{
  "_format": "hh-sol-artifact-1",
  "contractName": "CharacterNFT",
  "sourceName": "contracts/CharacterNFT.sol",
  "abi": [
    {
      "inputs": [],
      "stateMutability": "nonpayable",
      "type": "constructor"
    },
    {
      "inputs": [
        {
          "internalType": "address",
          "name": "sender",
          "type": "address"
        },
        {
          "internalType": "uint256",
          "name": "tokenId",
          "type": "uint256"
        },
        {
          "internalType": "address",
          "name": "owner",
          "type": "address"
        }
      ],
      "name": "ERC721IncorrectOwner",
      "type": "error"
    },
    {
      "inputs": [
        {
          "internalType": "address",
          "name": "operator",
          "type": "address"
        },
        {
          "internalType": "uint256",
          "name": "tokenId",
          "type": "uint256"
        }
      ],
      "name": "ERC721InsufficientApproval",
      "type": "error"
    },
    {
      "inputs": [
        {
          "internalType": "address",
          "name": "approver",
          "type": "address"
        }
      ],
      "name": "ERC721InvalidApprover",
      "type": "error"
    },
    {
      "inputs": [
        {
          "internalType": "address",
          "name": "operator",
          "type": "address"
        }
      ],
      "name": "ERC721InvalidOperator",
      "type": "error"
    },
    {
      "inputs": [
        {
          "internalType": "address",
          "name": "owner",
          "type": "address"
        }
      ],
      "name": "ERC721InvalidOwner",
      "type": "error"
    },
    {
      "inputs": [
        {
          "internalType": "address",
          "name": "receiver",
          "type": "address"
        }
      ],
      "name": "ERC721InvalidReceiver",
      "type": "error"
    },
    {
      "inputs": [
        {
          "internalType": "address",
          "name": "sender",
          "type": "address"
        }
      ],
      "name": "ERC721InvalidSender",
      "type": "error"
    },
    {
      "inputs": [
        {
          "internalType": "uint256",
          "name": "tokenId",
          "type": "uint256"
        }
      ],
      "name": "ERC721NonexistentToken",
      "type": "error"
    },
    {
      "inputs": [
        {
          "internalType": "address",
          "name": "owner",
          "type": "address"
        }
      ],
      "name": "OwnableInvalidOwner",
      "type": "error"
    },
    {
      "inputs": [
        {
          "internalType": "address",
          "name": "account",
          "type": "address"
        }
      ],
      "name": "OwnableUnauthorizedAccount",
      "type": "error"
    },
    {
      "anonymous": false,
      "inputs": [
        {
          "indexed": true,
          "internalType": "uint256",
          "name": "tokenId",
          "type": "uint256"
        },
        {
          "indexed": false,
          "internalType": "uint8",
          "name": "actionType",
          "type": "uint8"
        },
        {
          "indexed": false,
          "internalType": "uint64",
          "name": "timestamp",
          "type": "uint64"
        }
      ],
      "name": "ActionRecorded",
      "type": "event"
    },
    {
      "anonymous": false,
      "inputs": [
        {
          "indexed": true,
          "internalType": "address",
          "name": "owner",
          "type": "address"
        },
        {
          "indexed": true,
          "internalType": "address",
          "name": "approved",
          "type": "address"
        },
        {
          "indexed": true,
          "internalType": "uint256",
          "name": "tokenId",
          "type": "uint256"
        }
      ],
      "name": "Approval",
      "type": "event"
    },
    {
      "anonymous": false,
      "inputs": [
        {
          "indexed": true,
          "internalType": "address",
          "name": "owner",
          "type": "address"
        },
        {
          "indexed": true,
          "internalType": "address",
          "name": "operator",
          "type": "address"
        },
        {
          "indexed": false,
          "internalType": "bool",
          "name": "approved",
          "type": "bool"
        }
      ],
      "name": "ApprovalForAll",
      "type": "event"
    },
    {
      "anonymous": false,
      "inputs": [
        {
          "indexed": true,
          "internalType": "address",
          "name": "owner",
          "type": "address"
        },
        {
          "indexed": true,
          "internalType": "uint256",
          "name": "tokenId",
          "type": "uint256"
        },
        {
          "indexed": false,
          "internalType": "string",
          "name": "name",
          "type": "string"
        }
      ],
      "name": "CharacterMinted",
      "type": "event"
    },
    {
      "anonymous": false,
      "inputs": [
        {
          "indexed": true,
          "internalType": "address",
          "name": "previousOwner",
          "type": "address"
        },
        {
          "indexed": true,
          "internalType": "address",
          "name": "newOwner",
          "type": "address"
        }
      ],
      "name": "OwnershipTransferred",
      "type": "event"
    },
    {
      "anonymous": false,
      "inputs": [
        {
          "indexed": true,
          "internalType": "uint256",
          "name": "tokenId",
          "type": "uint256"
        },
        {
          "indexed": false,
          "internalType": "uint8",
          "name": "level",
          "type": "uint8"
        },
        {
          "indexed": false,
          "internalType": "uint32",
          "name": "xp",
          "type": "uint32"
        },
        {
          "indexed": false,
          "internalType": "uint16",
          "name": "hp",
          "type": "uint16"
        }
      ],
      "name": "StatsUpdated",
      "type": "event"
    },
    {
      "anonymous": false,
      "inputs": [
        {
          "indexed": true,
          "internalType": "address",
          "name": "from",
          "type": "address"
        },
        {
          "indexed": true,
          "internalType": "address",
          "name": "to",
          "type": "address"
        },
        {
          "indexed": true,
          "internalType": "uint256",
          "name": "tokenId",
          "type": "uint256"
        }
      ],
      "name": "Transfer",
      "type": "event"
    },
    {
      "inputs": [
        {
          "internalType": "uint256",
          "name": "",
          "type": "uint256"
        },
        {
          "internalType": "uint256",
          "name": "",
          "type": "uint256"
        }
      ],
      "name": "actionHistory",
      "outputs": [
        {
          "internalType": "uint64",
          "name": "timestamp",
          "type": "uint64"
        },
        {
          "internalType": "uint8",
          "name": "actionType",
          "type": "uint8"
        },
        {
          "internalType": "int16",
          "name": "hpChange",
          "type": "int16"
        },
        {
          "internalType": "uint32",
          "name": "xpGained",
          "type": "uint32"
        },
        {
          "internalType": "uint256",
          "name": "goldGained",
          "type": "uint256"
        }
      ],
      "stateMutability": "view",
      "type": "function"
    },
    {
      "inputs": [
        {
          "internalType": "address",
          "name": "to",
          "type": "address"
        },
        {
          "internalType": "uint256",
          "name": "tokenId",
          "type": "uint256"
        }
      ],
      "name": "approve",
      "outputs": [],
      "stateMutability": "nonpayable",
      "type": "function"
    },
    {
      "inputs": [
        {
          "internalType": "address",
          "name": "owner",
          "type": "address"
        }
      ],
      "name": "balanceOf",
      "outputs": [
        {
          "internalType": "uint256",
          "name": "",
          "type": "uint256"
        }
      ],
      "stateMutability": "view",
      "type": "function"
    },
    {
      "inputs": [
        {
          "internalType": "uint256",
          "name": "",
          "type": "uint256"
        }
      ],
      "name": "characters",
      "outputs": [
        {
          "internalType": "string",
          "name": "name",
          "type": "string"
        },
        {
          "internalType": "uint8",
          "name": "level",
          "type": "uint8"
        },
        {
          "internalType": "uint32",
          "name": "xp",
          "type": "uint32"
        },
        {
          "internalType": "uint16",
          "name": "hp",
          "type": "uint16"
        },
        {
          "internalType": "uint16",
          "name": "maxHp",
          "type": "uint16"
        },
        {
          "internalType": "uint16",
          "name": "strength",
          "type": "uint16"
        },
        {
          "internalType": "uint16",
          "name": "defense",
          "type": "uint16"
        },
        {
          "internalType": "uint256",
          "name": "equippedWeapon",
          "type": "uint256"
        },
        {
          "internalType": "uint256",
          "name": "equippedArmor",
          "type": "uint256"
        },
        {
          "internalType": "uint256",
          "name": "guildId",
          "type": "uint256"
        },
        {
          "internalType": "uint64",
          "name": "lastActionTime",
          "type": "uint64"
        },
        {
          "internalType": "uint8",
          "name": "energy",
          "type": "uint8"
        }
      ],
      "stateMutability": "view",
      "type": "function"
    },
    {
      "inputs": [
        {
          "internalType": "uint256",
          "name": "tokenId",
          "type": "uint256"
        },
        {
          "internalType": "uint256",
          "name": "itemId",
          "type": "uint256"
        }
      ],
      "name": "equipArmor",
      "outputs": [],
      "stateMutability": "nonpayable",
      "type": "function"
    },
    {
      "inputs": [
        {
          "internalType": "uint256",
          "name": "tokenId",
          "type": "uint256"
        },
        {
          "internalType": "uint256",
          "name": "itemId",
          "type": "uint256"
        }
      ],
      "name": "equipWeapon",
      "outputs": [],
      "stateMutability": "nonpayable",
      "type": "function"
    },
    {
      "inputs": [],
      "name": "gameManager",
      "outputs": [
        {
          "internalType": "address",
          "name": "",
          "type": "address"
        }
      ],
      "stateMutability": "view",
      "type": "function"
    },
    {
      "inputs": [
        {
          "internalType": "uint256",
          "name": "tokenId",
          "type": "uint256"
        }
      ],
      "name": "getActionHistory",
      "outputs": [
        {
          "components": [
            {
              "internalType": "uint64",
              "name": "timestamp",
              "type": "uint64"
            },
            {
              "internalType": "uint8",
              "name": "actionType",
              "type": "uint8"
            },
            {
              "internalType": "int16",
              "name": "hpChange",
              "type": "int16"
            },
            {
              "internalType": "uint32",
              "name": "xpGained",
              "type": "uint32"
            },
            {
              "internalType": "uint256",
              "name": "goldGained",
              "type": "uint256"
            }
          ],
          "internalType": "struct CharacterNFT.ActionRecord[]",
          "name": "",
          "type": "tuple[]"
        }
      ],
      "stateMutability": "view",
      "type": "function"
    },
    {
      "inputs": [
        {
          "internalType": "uint256",
          "name": "tokenId",
          "type": "uint256"
        }
      ],
      "name": "getActionHistoryLength",
      "outputs": [
        {
          "internalType": "uint256",
          "name": "",
          "type": "uint256"
        }
      ],
      "stateMutability": "view",
      "type": "function"
    },
    {
      "inputs": [
        {
          "internalType": "uint256",
          "name": "tokenId",
          "type": "uint256"
        }
      ],
      "name": "getApproved",
      "outputs": [
        {
          "internalType": "address",
          "name": "",
          "type": "address"
        }
      ],
      "stateMutability": "view",
      "type": "function"
    },
    {
      "inputs": [
        {
          "internalType": "uint256",
          "name": "tokenId",
          "type": "uint256"
        }
      ],
      "name": "getCharacter",
      "outputs": [
        {
          "components": [
            {
              "internalType": "string",
              "name": "name",
              "type": "string"
            },
            {
              "internalType": "uint8",
              "name": "level",
              "type": "uint8"
            },
            {
              "internalType": "uint32",
              "name": "xp",
              "type": "uint32"
            },
            {
              "internalType": "uint16",
              "name": "hp",
              "type": "uint16"
            },
            {
              "internalType": "uint16",
              "name": "maxHp",
              "type": "uint16"
            },
            {
              "internalType": "uint16",
              "name": "strength",
              "type": "uint16"
            },
            {
              "internalType": "uint16",
              "name": "defense",
              "type": "uint16"
            },
            {
              "internalType": "uint256",
              "name": "equippedWeapon",
              "type": "uint256"
            },
            {
              "internalType": "uint256",
              "name": "equippedArmor",
              "type": "uint256"
            },
            {
              "internalType": "uint256",
              "name": "guildId",
              "type": "uint256"
            },
            {
              "internalType": "uint64",
              "name": "lastActionTime",
              "type": "uint64"
            },
            {
              "internalType": "uint8",
              "name": "energy",
              "type": "uint8"
            }
          ],
          "internalType": "struct CharacterNFT.CharacterStats",
          "name": "",
          "type": "tuple"
        }
      ],
      "stateMutability": "view",
      "type": "function"
    },
    {
      "inputs": [],
      "name": "getNextTokenId",
      "outputs": [
        {
          "internalType": "uint256",
          "name": "",
          "type": "uint256"
        }
      ],
      "stateMutability": "view",
      "type": "function"
    },
    {
      "inputs": [],
      "name": "getTotalCharacters",
      "outputs": [
        {
          "internalType": "uint256",
          "name": "",
          "type": "uint256"
        }
      ],
      "stateMutability": "view",
      "type": "function"
    },
    {
      "inputs": [
        {
          "internalType": "address",
          "name": "owner",
          "type": "address"
        },
        {
          "internalType": "address",
          "name": "operator",
          "type": "address"
        }
      ],
      "name": "isApprovedForAll",
      "outputs": [
        {
          "internalType": "bool",
          "name": "",
          "type": "bool"
        }
      ],
      "stateMutability": "view",
      "type": "function"
    },
    {
      "inputs": [
        {
          "internalType": "string",
          "name": "_name",
          "type": "string"
        }
      ],
      "name": "mintCharacter",
      "outputs": [
        {
          "internalType": "uint256",
          "name": "",
          "type": "uint256"
        }
      ],
      "stateMutability": "payable",
      "type": "function"
    },
    {
      "inputs": [],
      "name": "name",
      "outputs": [
        {
          "internalType": "string",
          "name": "",
          "type": "string"
        }
      ],
      "stateMutability": "view",
      "type": "function"
    },
    {
      "inputs": [],
      "name": "owner",
      "outputs": [
        {
          "internalType": "address",
          "name": "",
          "type": "address"
        }
      ],
      "stateMutability": "view",
      "type": "function"
    },
    {
      "inputs": [
        {
          "internalType": "uint256",
          "name": "tokenId",
          "type": "uint256"
        }
      ],
      "name": "ownerOf",
      "outputs": [
        {
          "internalType": "address",
          "name": "",
          "type": "address"
        }
      ],
      "stateMutability": "view",
      "type": "function"
    },
    {
      "inputs": [
        {
          "internalType": "address",
          "name": "",
          "type": "address"
        }
      ],
      "name": "playerCharacter",
      "outputs": [
        {
          "internalType": "uint256",
          "name": "",
          "type": "uint256"
        }
      ],
      "stateMutability": "view",
      "type": "function"
    },
    {
      "inputs": [
        {
          "internalType": "uint256",
          "name": "tokenId",
          "type": "uint256"
        },
        {
          "internalType": "uint8",
          "name": "actionType",
          "type": "uint8"
        },
        {
          "internalType": "int16",
          "name": "hpChange",
          "type": "int16"
        },
        {
          "internalType": "uint32",
          "name": "xpGained",
          "type": "uint32"
        },
        {
          "internalType": "uint256",
          "name": "goldGained",
          "type": "uint256"
        }
      ],
      "name": "recordAction",
      "outputs": [],
      "stateMutability": "nonpayable",
      "type": "function"
    },
    {
      "inputs": [],
      "name": "renounceOwnership",
      "outputs": [],
      "stateMutability": "nonpayable",
      "type": "function"
    },
    {
      "inputs": [
        {
          "internalType": "address",
          "name": "from",
          "type": "address"
        },
        {
          "internalType": "address",
          "name": "to",
          "type": "address"
        },
        {
          "internalType": "uint256",
          "name": "tokenId",
          "type": "uint256"
        }
      ],
      "name": "safeTransferFrom",
      "outputs": [],
      "stateMutability": "nonpayable",
      "type": "function"
    },
    {
      "inputs": [
        {
          "internalType": "address",
          "name": "from",
          "type": "address"
        },
        {
          "internalType": "address",
          "name": "to",
          "type": "address"
        },
        {
          "internalType": "uint256",
          "name": "tokenId",
          "type": "uint256"
        },
        {
          "internalType": "bytes",
          "name": "data",
          "type": "bytes"
        }
      ],
      "name": "safeTransferFrom",
      "outputs": [],
      "stateMutability": "nonpayable",
      "type": "function"
    },
    {
      "inputs": [
        {
          "internalType": "address",
          "name": "operator",
          "type": "address"
        },
        {
          "internalType": "bool",
          "name": "approved",
          "type": "bool"
        }
      ],
      "name": "setApprovalForAll",
      "outputs": [],
      "stateMutability": "nonpayable",
      "type": "function"
    },
    {
      "inputs": [
        {
          "internalType": "uint256",
          "name": "tokenId",
          "type": "uint256"
        },
        {
          "internalType": "uint8",
          "name": "energy",
          "type": "uint8"
        },
        {
          "internalType": "uint64",
          "name": "lastAction",
          "type": "uint64"
        }
      ],
      "name": "setEnergy",
      "outputs": [],
      "stateMutability": "nonpayable",
      "type": "function"
    },
    {
      "inputs": [
        {
          "internalType": "address",
          "name": "_gm",
          "type": "address"
        }
      ],
      "name": "setGameManager",
      "outputs": [],
      "stateMutability": "nonpayable",
      "type": "function"
    },
    {
      "inputs": [
        {
          "internalType": "uint256",
          "name": "tokenId",
          "type": "uint256"
        },
        {
          "internalType": "uint256",
          "name": "guildId",
          "type": "uint256"
        }
      ],
      "name": "setGuild",
      "outputs": [],
      "stateMutability": "nonpayable",
      "type": "function"
    },
    {
      "inputs": [
        {
          "internalType": "bytes4",
          "name": "interfaceId",
          "type": "bytes4"
        }
      ],
      "name": "supportsInterface",
      "outputs": [
        {
          "internalType": "bool",
          "name": "",
          "type": "bool"
        }
      ],
      "stateMutability": "view",
      "type": "function"
    },
    {
      "inputs": [],
      "name": "symbol",
      "outputs": [
        {
          "internalType": "string",
          "name": "",
          "type": "string"
        }
      ],
      "stateMutability": "view",
      "type": "function"
    },
    {
      "inputs": [
        {
          "internalType": "uint256",
          "name": "tokenId",
          "type": "uint256"
        }
      ],
      "name": "tokenURI",
      "outputs": [
        {
          "internalType": "string",
          "name": "",
          "type": "string"
        }
      ],
      "stateMutability": "view",
      "type": "function"
    },
    {
      "inputs": [],
      "name": "totalCharacters",
      "outputs": [
        {
          "internalType": "uint256",
          "name": "",
          "type": "uint256"
        }
      ],
      "stateMutability": "view",
      "type": "function"
    },
    {
      "inputs": [
        {
          "internalType": "address",
          "name": "from",
          "type": "address"
        },
        {
          "internalType": "address",
          "name": "to",
          "type": "address"
        },
        {
          "internalType": "uint256",
          "name": "tokenId",
          "type": "uint256"
        }
      ],
      "name": "transferFrom",
      "outputs": [],
      "stateMutability": "nonpayable",
      "type": "function"
    },
    {
      "inputs": [
        {
          "internalType": "address",
          "name": "newOwner",
          "type": "address"
        }
      ],
      "name": "transferOwnership",
      "outputs": [],
      "stateMutability": "nonpayable",
      "type": "function"
    },
    {
      "inputs": [
        {
          "internalType": "uint256",
          "name": "tokenId",
          "type": "uint256"
        },
        {
          "internalType": "uint8",
          "name": "level",
          "type": "uint8"
        },
        {
          "internalType": "uint32",
          "name": "xp",
          "type": "uint32"
        },
        {
          "internalType": "uint16",
          "name": "hp",
          "type": "uint16"
        },
        {
          "internalType": "uint16",
          "name": "maxHp",
          "type": "uint16"
        },
        {
          "internalType": "uint16",
          "name": "strength",
          "type": "uint16"
        },
        {
          "internalType": "uint16",
          "name": "defense",
          "type": "uint16"
        }
      ],
      "name": "updateStats",
      "outputs": [],
      "stateMutability": "nonpayable",
      "type": "function"
    },
    {
      "inputs": [],
      "name": "withdraw",
      "outputs": [],
      "stateMutability": "nonpayable",
      "type": "function"
    }
  ],
  "bytecode": "0x60803462000357576001600160401b03906040908082018381118282101762000275578252601581526020927f45746865725265616c6d73204368617261637465720000000000000000000000848301528251938385018581108382111762000275578452600685526522a921a420a960d11b8186015282519082821162000275575f54916001948584811c941680156200034c575b8385101462000256578190601f94858111620002f9575b50839085831160011462000295575f9262000289575b50505f19600383901b1c191690851b175f555b8551928311620002755783548481811c911680156200026a575b8282101462000256578281116200020e575b5080918311600114620001a95750819293945f926200019d575b50505f19600383901b1c191690821b1790555b3315620001875760068054336001600160a01b0319821681179092559151916001600160a01b03167f8be0079c531659141344cd1fd0a4f28419497f9722a3daafe3b4186f6b6457e05f80a36130ea90816200035c8239f35b51631e4fbdf760e01b81525f6004820152602490fd5b015190505f806200011b565b90601f19831695845f52825f20925f905b888210620001f65750508385969710620001dd575b505050811b0190556200012e565b01515f1960f88460031b161c191690555f8080620001cf565b808785968294968601518155019501930190620001ba565b845f52815f208380860160051c8201928487106200024c575b0160051c019085905b8281106200024057505062000101565b5f815501859062000230565b9250819262000227565b634e487b7160e01b5f52602260045260245ffd5b90607f1690620000ef565b634e487b7160e01b5f52604160045260245ffd5b015190505f80620000c2565b90879350601f198316915f8052855f20925f5b87828210620002e25750508411620002c9575b505050811b015f55620000d5565b01515f1960f88460031b161c191690555f8080620002bb565b8385015186558b97909501949384019301620002a8565b9091505f8052835f208580850160051c82019286861062000342575b918991869594930160051c01915b82811062000333575050620000ac565b5f815585945089910162000323565b9250819262000315565b93607f169362000095565b5f80fdfe6080806040526004361015610012575f80fd5b5f3560e01c90816301ffc9a7146127275750806306fdde0314612680578063081812fc14612644578063095ea7b31461256357806323b872dd1461254c5780632b1d503914611d8457806336f0430214611d4d5780633ccfd60b14611d0057806342842e0e14611cd35780634810bc5914611c0057806353a87bf014611a885780636352211e14611a585780636394344b1461068757806370a0823114611a02578063715018a6146119a757806376912d5414611827578063785e8671146117f05780638da5cb5b146117c857806395d89b41146116ea5780639b4444dc14611666578063a22cb465146115a7578063aec1f0ea14611570578063b7127e41146114e4578063b88d4fde14611477578063c6b052661461144f578063c87b56dd146106c1578063caa0f92a146106a4578063ceebb28314610687578063dabb053114610496578063e5f4f2ee1461045e578063e985e9c51461040c578063f2fde38b14610385578063f6d3de361461035b578063f97bc413146102155763fb63527c1461019d575f80fd5b34610211576101ab36612839565b905f52600a60205260405f2080548210156102115760a0916101cc916129fd565b506001815491015463ffffffff604051926001600160401b038116845260ff8160401c1660208501528060481c60010b604085015260581c1660608301526080820152f35b5f80fd5b3461021157602080600319360112610211576004355f52600a815260405f20908154916001600160401b039283811161034757916040519261025c828260051b01856128d9565b80845281840180935f52825f205f915b8383106102ec57505050506040519281840190828552518091526040840192915f5b82811061029b5785850386f35b909192938260a060019287518a815116825260ff8482015116848301526040810151850b6040830152606063ffffffff8183015116908301526080809101519082015201950191019291909261028e565b600285600192604099979951610301816128a3565b85548c8116825260ff8160401c168483015263ffffffff86918060481c830b604085015260581c166060830152860154608082015281520192019201919095939561026c565b634e487b7160e01b5f52604160045260245ffd5b34610211576020366003190112610211576004355f52600a602052602060405f2054604051908152f35b346102115760203660031901126102115761039e6127d8565b6103a6612c98565b6001600160a01b039081169081156103f457600654826001600160601b0360a01b821617600655167f8be0079c531659141344cd1fd0a4f28419497f9722a3daafe3b4186f6b6457e05f80a3005b604051631e4fbdf760e01b81525f6004820152602490fd5b34610211576040366003190112610211576104256127d8565b61042d6127ee565b9060018060a01b038091165f52600560205260405f2091165f52602052602060ff60405f2054166040519015158152f35b34610211576020366003190112610211576001600160a01b0361047f6127d8565b165f52600b602052602060405f2054604051908152f35b34610211576020366003190112610211576004355f6101606040516104ba81612887565b606081528260208201528260408201528260608201528260808201528260a08201528260c08201528260e082015282610100820152826101208201528261014082015201528015158061067b575b61051190612c12565b5f52600960205260405f2060ff60056040519261052d84612887565b610536816128fa565b845261ffff6001820154848116602087015263ffffffff8160081c166040870152818160281c166060870152818160381c166080870152818160481c1660a087015260581c1660c0850152600281015460e08501526003810154610100850152600481015461012085015201546001600160401b03811661014084015260401c1661016082015260405180916020825260ff6101606105e3835161018060208701526101a08601906127b3565b9282602082015116604086015263ffffffff604082015116606086015261ffff606082015116608086015261ffff60808201511660a086015261ffff60a08201511660c086015261ffff60c08201511660e086015260e08101516101008601526101008101516101208601526101208101516101408601526001600160401b0361014082015116828601520151166101808301520390f35b50600754811115610508565b34610211575f366003190112610211576020600c54604051908152f35b34610211575f366003190112610211576020600754604051908152f35b346102115760203660031901126102115760043580151580611443575b6106e790612c12565b5f52600960205260405f20604051906106ff82612887565b6107a760ff61070d836128fa565b92838552816005600183015492828416602089015263ffffffff8460081c16604089015261ffff8460281c16606089015261ffff8460381c16608089015261ffff8460481c1660a089015261ffff8460581c1660c0890152600281015460e08901526003810154610100890152600481015461012089015201546001600160401b03811661014088015260401c1661016086015216612e0e565b9061ffff6060840151168060c881020460c8148115171561142f5761ffff608085015116801561141b5760c86107de920204612e0e565b926107f061ffff60a083015116612e0e565b9361080261ffff60c084015116612e0e565b9461081663ffffffff604085015116612e0e565b925f91604051928360408101106001600160401b0360408601111761034757604084016040526001845260203681860137602184015b5f190190600a906f181899199a1a9b1b9c1cb0b131b232b360811b8282061a835304908161084c5750506102736113b09761114197651e17b9bb339f60d11b610c18610d3c61032b6114179e6113ab9c661e17ba32bc3a1f60c91b809c816101529f6110879d610acc916040519a8b80997f3c7265637420783d223132352220793d223930222077696474683d223530222060208301527f6865696768743d223530222072783d223235222066696c6c3d222338623563666040830152631b11179f60e11b8060608401527f3c7465787420783d223135302220793d223132322220746578742d616e63686f60648401527f723d226d6964646c652220666f6e742d73697a653d223330223e000000000000608484015265e29a94efb88f60d01b609e8401528760a48401527f3c7265637420783d223131352220793d22313530222077696474683d2237302260ab8401527f206865696768743d223830222072783d2238222066696c6c3d2223336238326660cb84015260eb8301527f3c7465787420783d2234302220793d22323730222066696c6c3d22233934613360ef8301527f62382220666f6e742d73697a653d2231322220666f6e742d66616d696c793d2261010f8301527439b0b73996b9b2b934b3111f24281e17ba32bc3a1f60591b61012f8301527f3c7265637420783d2234302220793d22323738222077696474683d22323230226101448301527f206865696768743d223132222072783d2236222066696c6c3d22233061306531610164830152631b91179f60e11b6101848301527f3c7265637420783d2234302220793d22323738222077696474683d220000000061018883015283519586809560206101a486019101612792565b7f22206865696768743d223132222072783d2236222066696c6c3d2223313062398285016101a4810191909152641c1891179f60d91b6101c48201527f3c7465787420783d2234302220793d22333230222066696c6c3d2223656634346101c98201527f34342220666f6e742d73697a653d2231332220666f6e742d66616d696c793d226101e982015270039b0b73996b9b2b934b3111f29aa291d1607d1b610209820152855195889161021a91610b8c91899190840190602001612792565b8386018701908101919091527f3c7465787420783d223136302220793d22333230222066696c6c3d22233362386102218201527f3266362220666f6e742d73697a653d2231332220666f6e742d66616d696c793d6102418201527101139b0b73996b9b2b934b3111f2222a31d160751b6102619091015280519586920185016102730190602001612792565b8701010193818d8601527f3c7465787420783d2234302220793d22333435222066696c6c3d22236635396561027a8601527f30622220666f6e742d73697a653d2231332220666f6e742d66616d696c793d2261029a8601526f039b0b73996b9b2b934b3111f2c281d160851b6102ba8601526102ca94610ca18251809360208985019101612792565b01938401527f3c7465787420783d2234302220793d22333730222066696c6c3d2223393461336102d18401527f62382220666f6e742d73697a653d2231312220666f6e742d66616d696c793d226102f18401527273616e732d7365726966223e546f6b656e202360681b61031184015261032492610d288251809360208785019101612792565b01918201520361030b8101845201826128d9565b6040519788947f3c73766720786d6c6e733d22687474703a2f2f7777772e77332e6f72672f323060208701527f30302f737667222076696577426f783d2230203020333030203430302220737460408701527f796c653d226261636b67726f756e643a23316132333332223e0000000000000060608701527f3c646566733e3c6c696e6561724772616469656e742069643d2267222078313d60798701527f223025222079313d223025222078323d2231303025222079323d22313030252260998701527f3e3c73746f70206f66667365743d22302522207374796c653d2273746f702d6360b98701527f6f6c6f723a23666262663234222f3e3c73746f70206f66667365743d2231303060d98701527f2522207374796c653d2273746f702d636f6c6f723a23663937333136222f3e3c60f98701527f2f6c696e6561724772616469656e743e3c2f646566733e0000000000000000006101198701527f3c726563742077696474683d2233303022206865696768743d223430302220726101308701527f783d223132222066696c6c3d222331613233333222207374726f6b653d2223336101508701527f623832663622207374726f6b652d77696474683d2232222f3e000000000000006101708701527f3c7465787420783d223135302220793d2234302220746578742d616e63686f726101898701527f3d226d6964646c65222066696c6c3d2275726c282367292220666f6e742d73696101a98701527f7a653d2232302220666f6e742d7765696768743d22626f6c642220666f6e742d6101c98701526e3330b6b4b63c9e9139b2b934b3111f60891b6101e9870152816101f895610fb48151809260208a8c019101612792565b8701958601527f3c7465787420783d223135302220793d2236352220746578742d616e63686f726101ff8601527f3d226d6964646c65222066696c6c3d22233862356366362220666f6e742d736961021f8601527f7a653d2231342220666f6e742d66616d696c793d2273616e732d73657269662261023f8601526601f2632bb32b6160cd1b61025f860152610266946110578251809360208985019101612792565b019384015261026d926110738251809360208785019101612792565b0191820152036102538101855201836128d9565b805190627d5d7d60e81b6110aa6110a460ff602085015116612e0e565b94612f75565b936110bb60ff602085015116612e0e565b926110cd61ffff606083015116612e0e565b936110df61ffff608084015116612e0e565b906110f161ffff60a085015116612e0e565b9761111663ffffffff604061110d61ffff60c089015116612e0e565b96015116612e0e565b9460296040519d8e809b683d913730b6b2911d1160b91b602083015260208151948593019101612792565b89017f222c226465736372697074696f6e223a2245746865725265616c6d732043686160298201527203930b1ba32b91027232a1016902632bb32b61606d1b6049820152611199825180936020605c85019101612792565b017f222c22696d616765223a22646174613a696d6167652f7376672b786d6c3b6261605c820152641cd94d8d0b60da1b607c8201526111e2825180936020608185019101612792565b016f222c2261747472696275746573223a5b60801b60818201527f7b2274726169745f74797065223a224c6576656c222c2276616c7565223a0000609182015261123682518093602060af85019101612792565b0190611f4b60f21b95828760af819501527f7b2274726169745f74797065223a224850222c2276616c7565223a000000000060b182015261128182518093602060cc85019101612792565b018260cc8201527f7b2274726169745f74797065223a224d6178204850222c2276616c7565223a0060ce8201526112c282518093602060ed85019101612792565b01968160ed8901527f7b2274726169745f74797065223a22537472656e677468222c2276616c75652260ef890152601d60f91b61010f890152610110976113128251809360208c85019101612792565b01968701527f7b2274726169745f74797065223a22446566656e7365222c2276616c7565223a610112870152610132956113558251809360208a85019101612792565b0192858401527f7b2274726169745f74797065223a225850222c2276616c7565223a000000000061013484015261014f926113998251809360208785019101612792565b019182015203908101845201826128d9565b612f75565b611403603d60405180937f646174613a6170706c69636174696f6e2f6a736f6e3b6261736536342c00000060208301526113f38151809260208686019101612792565b810103601d8101845201826128d9565b6040519182916020835260208301906127b3565b0390f35b634e487b7160e01b5f52601260045260245ffd5b634e487b7160e01b5f52601160045260245ffd5b506007548111156106de565b34610211575f366003190112610211576008546040516001600160a01b039091168152602090f35b34610211576080366003190112610211576114906127d8565b6114986127ee565b90604435606435926001600160401b0384116102115736602385011215610211576114d06114e29436906024816004013591016129c7565b926114dc838383612a2a565b33612cc4565b005b34610211576020366003190112610211576114fd6127d8565b611505612c98565b6001600160a01b0316801561152b576001600160601b0360a01b60085416176008555f80f35b60405162461bcd60e51b815260206004820152601a60248201527f4368617261637465724e46543a207a65726f20616464726573730000000000006044820152606490fd5b346102115761157e36612839565b9061159460018060a01b03600854163314612bb6565b5f526009602052600460405f2001555f80f35b34610211576040366003190112610211576115c06127d8565b6024359081151580920361021157331561164e576001600160a01b031690811561163557335f52600560205260405f20825f5260205260405f2060ff1981541660ff83161790556040519081527f17307eab39ab6107e8899845ad3d59bd9653f200f220920489ca2b5937696c3160203392a3005b604051630b61174360e31b815260048101839052602490fd5b60405163a9fbf51f60e01b81525f6004820152602490fd5b346102115760603660031901126102115761167f61299c565b6044356001600160401b038116809103610211576116a860018060a01b03600854163314612bb6565b6004355f5260096020526116d8600560405f200192839060ff60401b82549160401b169060ff60401b1916179055565b815467ffffffffffffffff1916179055005b34610211575f366003190112610211576040515f6001826001549261170e8461284f565b92838352602094856001821691825f146117a857505060011461174d575b50611739925003836128d9565b6114176040519282849384528301906127b3565b84915060015f527fb10e2d527612073b26eecdfd717e6a320cf44b4afac2b0732d9fcbe2b7fa0cf6905f915b85831061179057505061173993508201018561172c565b80548389018501528794508693909201918101611779565b60ff19168582015261173995151560051b850101925087915061172c9050565b34610211575f366003190112610211576006546040516001600160a01b039091168152602090f35b34610211576117fe36612839565b9061181460018060a01b03600854163314612bb6565b5f526009602052600260405f2001555f80f35b346102115760e03660031901126102115760043561184361299c565b6044359063ffffffff8216918281036102115760643561ffff9384821691828103610211576084359580871687036102115760a4359581871687036102115760c4359182168203610211576119756060976119537f1c31271c48ee544d3b371b02fc8e4736794237f3ca1e701b9b0f7bcf87d87b899a611933611994978e6118d660018060a01b03600854163314612bb6565b5f52600960205261191360ff600160405f200198169c8d60ff198a5416178955889064ffffffff0082549160081b169064ffffffff001916179055565b865466ffff0000000000191660289190911b66ffff000000000016178655565b845468ffff00000000000000191660389190911b61ffff60381b16178455565b82546affff000000000000000000191660489190911b61ffff60481b16178255565b805461ffff60581b191660589290921b61ffff60581b16919091179055565b60405192835260208301526040820152a2005b34610211575f366003190112610211576119bf612c98565b600680546001600160a01b031981169091555f906001600160a01b03167f8be0079c531659141344cd1fd0a4f28419497f9722a3daafe3b4186f6b6457e08280a3005b34610211576020366003190112610211576001600160a01b03611a236127d8565b168015611a40575f526003602052602060405f2054604051908152f35b6040516322718ad960e21b81525f6004820152602490fd5b34610211576020366003190112610211576020611a76600435612c5e565b6040516001600160a01b039091168152f35b346102115760a036600319011261021157600435611aa461299c565b604435908160010b8092036102115760643563ffffffff811680910361021157611ad960018060a01b03600854163314612bb6565b835f52600a60205260405f20916001600160401b03938442169160405194611b00866128a3565b83865260ff602087019216948583526040870193845260608701908152608087019160843583528054600160401b81101561034757611b44916001820181556129fd565b949094611bed57611ba660ff6001957fe07bf6a8c780168edc6107e3abe8bc05d9315852be2cb4821f22bf8729dd94ee9b60409b51166001600160401b03198954161788555116869060ff60401b82549160401b169060ff60401b1916179055565b518454915165ffffffffffff60481b1990921661ffff60481b60489290921b919091161760589190911b63ffffffff60581b161783555191015582519182526020820152a2005b634e487b7160e01b5f525f60045260245ffd5b34610211576020366003190112610211576004355f526009602052611c6260405f20611c2b816128fa565b9060ff60018201549161ffff9060028101546003820154906005600484015493015493604051988998610180808b528a01906127b3565b9686811660208a015263ffffffff8160081c1660408a0152818160281c1660608a0152818160381c1660808a0152818160481c1660a08a015260581c1660c088015260e08701526101008601526101208501526001600160401b03811661014085015260401c166101608301520390f35b34610211576114e2611ce436612804565b9060405192611cf2846128be565b5f84526114dc838383612a2a565b34610211575f36600319011261021157611d18612c98565b5f80808060018060a01b03600654164790828215611d44575bf115611d3957005b6040513d5f823e3d90fd5b506108fc611d31565b3461021157611d5b36612839565b90611d7160018060a01b03600854163314612bb6565b5f526009602052600360405f2001555f80f35b6020366003190112610211576004356001600160401b0381116102115736602382011215610211576001600160401b038160040135116102115736602482600401358301011161021157662386f26fc10000341061250757335f52600b60205260405f20546124b65780600401351515806124a7575b1561246257611e0a600754612ba8565b80600755604051611e1a816128be565b5f8152331561244a575f828152600260205260409020546001600160a01b031680151590839082612417575b335f52600360205260405f2060018154019055815f52600260205260405f20336001600160601b0360a01b82541617905533907fddf252ad1be2c89b69c2b068fc378daa952ba7f163c4a11628f55a4df523b3ef5f80a46123ff57333b6122ed575b5060405191611eb683612887565b611ec8368260040135602484016129c7565b8352600160208401525f60408401526064606084015260646080840152600a60a0840152600560c08401525f60e08401525f6101008401525f6101208401526001600160401b0342166101408401526005610160840152815f52600960205260405f2083518051906001600160401b03821161034757611f48835461284f565b601f81116122ac575b50602090601f831160011461224057918061209a94926005945f92612235575b50508160011b915f199060031b1c19161781555b6120376001820160ff60208901511660ff19825416178155611fc863ffffffff60408a015116829064ffffffff0082549160081b169064ffffffff001916179055565b6060880151815460808a015160a08b015160c08c015160489190911b61ffff60481b1660389290921b61ffff60381b1660289490941b66ffff0000000000166cffffffffffffffff00000000001990931692909217929092179190911760589190911b61ffff60581b16179055565b60e08601516002820155610100860151600382015561012086015160048201550160ff6101606001600160401b0361014088015116966001600160401b0319978885541617845501511660ff60401b82549160401b169060ff60401b1916179055565b335f52600b6020528160405f20556120b3600c54612ba8565b600c55815f52600a60205260405f2090604051916120d0836128a3565b6001600160401b0342168352602083015f815260408401915f8352606085015f815260808601915f83528054600160401b81101561034757612117916001820181556129fd565b949094611bed5761215960ff60019560209b6001600160401b038c9b5116908954161788555116869060ff60401b82549160401b169060ff60401b1916179055565b518454915165ffffffffffff60481b1990921661ffff60481b60489290921b919091161760589190911b63ffffffff60581b1617835551910155604080515f8152426001600160401b03168682015283917fe07bf6a8c780168edc6107e3abe8bc05d9315852be2cb4821f22bf8729dd94ee91a27f85f4ff02532bd6d446adb2bb88a6905ccb2b213abf81bcb4f2f25048973ab0a460405185815282600401358682015282600401356024840160408301375f60408460040135830101526040813394601f8019916004013501168101030190a3604051908152f35b015190508880611f71565b90835f5260205f20915f5b601f198516811061229457509261209a949260019260059583601f1981161061227c575b505050811b018155611f85565b01515f1960f88460031b161c1916905588808061226f565b9192602060018192868501518155019401920161224b565b835f5260205f20601f840160051c8101602085106122e6575b601f830160051c820181106122db575050611f51565b5f81556001016122c5565b50806122c5565b60405160208180612326630a85bd0160e11b958683523360048401525f60248401528760448401526080606484015260848301906127b3565b03815f335af15f91816123ba575b5061238d573d15612386573d612349816129ac565b9061235760405192836128d9565b81523d5f602083013e5b8051908161238157604051633250574960e11b8152336004820152602490fd5b602001fd5b6060612361565b6001600160e01b031916036123a25782611ea8565b604051633250574960e11b8152336004820152602490fd5b9091506020813d6020116123f7575b816123d6602093836128d9565b8101031261021157516001600160e01b031981168103610211579085612334565b3d91506123c9565b6040516339e3563760e11b81525f6004820152602490fd5b5f82815260046020526040902080546001600160a01b0319169055805f52600360205260405f205f198154019055611e46565b604051633250574960e11b81525f6004820152602490fd5b60405162461bcd60e51b815260206004820152601a60248201527f4368617261637465724e46543a20696e76616c6964206e616d650000000000006044820152606490fd5b50602081600401351115611dfa565b60405162461bcd60e51b815260206004820152602360248201527f4368617261637465724e46543a20616c726561647920686173206368617261636044820152623a32b960e91b6064820152608490fd5b60405162461bcd60e51b815260206004820152601e60248201527f4368617261637465724e46543a20696e73756666696369656e742045544800006044820152606490fd5b34610211576114e261255d36612804565b91612a2a565b346102115760403660031901126102115761257c6127d8565b60243561258881612c5e565b33151580612631575b80612608575b6125f0576001600160a01b039283169282918491167f8c5be1e5ebec7d5bd14f71427d1e84f3dd0314c0f7b2291e5b200ac8c7c3b9255f80a45f90815260046020526040902080546001600160a01b0319169091179055005b60405163a9fbf51f60e01b8152336004820152602490fd5b5060018060a01b0381165f52600560205260405f20335f5260205260ff60405f20541615612597565b506001600160a01b038116331415612591565b346102115760203660031901126102115760043561266181612c5e565b505f526004602052602060018060a01b0360405f205416604051908152f35b34610211575f366003190112610211576040515f805490826126a18361284f565b91828252602093600190856001821691825f146117a85750506001146126ce5750611739925003836128d9565b5f808052859250907f290decd9548b62a8d60345a988386fc84ba6bc95484008f6362f93160ef3e5635b85831061270f57505061173993508201018561172c565b805483890185015287945086939092019181016126f8565b34610211576020366003190112610211576004359063ffffffff60e01b8216809203610211576020916380ac58cd60e01b8114908115612781575b8115612770575b5015158152f35b6301ffc9a760e01b14905083612769565b635b5e139f60e01b81149150612762565b5f5b8381106127a35750505f910152565b8181015183820152602001612794565b906020916127cc81518092818552858086019101612792565b601f01601f1916010190565b600435906001600160a01b038216820361021157565b602435906001600160a01b038216820361021157565b6060906003190112610211576001600160a01b0390600435828116810361021157916024359081168103610211579060443590565b6040906003190112610211576004359060243590565b90600182811c9216801561287d575b602083101461286957565b634e487b7160e01b5f52602260045260245ffd5b91607f169161285e565b61018081019081106001600160401b0382111761034757604052565b60a081019081106001600160401b0382111761034757604052565b602081019081106001600160401b0382111761034757604052565b90601f801991011681019081106001600160401b0382111761034757604052565b9060405191825f825461290c8161284f565b908184526020946001916001811690815f1461297a575060011461293c575b50505061293a925003836128d9565b565b5f90815285812095935091905b81831061296257505061293a93508201015f808061292b565b85548884018501529485019487945091830191612949565b9250505061293a94925060ff191682840152151560051b8201015f808061292b565b6024359060ff8216820361021157565b6001600160401b03811161034757601f01601f191660200190565b9291926129d3826129ac565b916129e160405193846128d9565b829481845281830111610211578281602093845f960137010152565b8054821015612a16575f5260205f209060011b01905f90565b634e487b7160e01b5f52603260045260245ffd5b6001600160a01b03918216929091831561244a57815f52602092600284528260409583875f2054169533151580612b16575b5060029087612ae5575b825f5260038152885f2060018154019055835f5252865f20816001600160601b0360a01b825416179055857fddf252ad1be2c89b69c2b068fc378daa952ba7f163c4a11628f55a4df523b3ef5f80a41692838303612ac45750505050565b6064945051926364283d7b60e01b8452600484015260248301526044820152fd5b5f84815260046020526040812080546001600160a01b03191690558881526003825289902080545f19019055612a66565b9192509080612b67575b15612b2e579084915f612a5c565b868587612b4b576024915190637e27328960e01b82526004820152fd5b604491519063177e802f60e01b82523360048301526024820152fd5b503386148015612b8c575b80612b205750845f52600481523384885f20541614612b20565b50855f5260058152865f20335f52815260ff875f205416612b72565b5f19811461142f5760010190565b15612bbd57565b60405162461bcd60e51b815260206004820152602760248201527f4368617261637465724e46543a2063616c6c6572206973206e6f742047616d6560448201526626b0b730b3b2b960c91b6064820152608490fd5b15612c1957565b60405162461bcd60e51b815260206004820152601860248201527f4368617261637465724e46543a20696e76616c696420696400000000000000006044820152606490fd5b5f818152600260205260409020546001600160a01b0316908115612c80575090565b60249060405190637e27328960e01b82526004820152fd5b6006546001600160a01b03163303612cac57565b60405163118cdaa760e01b8152336004820152602490fd5b9293909193843b612cd7575b5050505050565b604051630a85bd0160e11b8082526001600160a01b039586166004830152938516602482015260448101919091526080606482015260209594909316939290859082908190612d2a9060848301906127b3565b03815f885af15f9181612dce575b50612d97575050503d5f14612d8f573d91612d52836129ac565b92612d6060405194856128d9565b83523d5f8285013e5b82519283612d8a57604051633250574960e11b815260048101849052602490fd5b019050fd5b606091612d69565b9193506001600160e01b031990911603612db657505f80808080612cd0565b60249060405190633250574960e11b82526004820152fd5b9091508581813d8311612e07575b612de681836128d9565b8101031261021157516001600160e01b03198116810361021157905f612d38565b503d612ddc565b805f917a184f03e93ff9f4daa797ed6e38ed64bf6a1f01000000000000000080821015612f67575b506d04ee2d6d415b85acef810000000080831015612f58575b50662386f26fc1000080831015612f49575b506305f5e10080831015612f3a575b5061271080831015612f2b575b506064821015612f1b575b600a80921015612f11575b6001908160216001860195612ea7876129ac565b96612eb560405198896128d9565b808852612ec4601f19916129ac565b01366020890137860101905b612edc575b5050505090565b5f19019083906f181899199a1a9b1b9c1cb0b131b232b360811b8282061a835304918215612f0c57919082612ed0565b612ed5565b9160010191612e93565b9190606460029104910191612e88565b6004919392049101915f612e7d565b6008919392049101915f612e70565b6010919392049101915f612e61565b6020919392049101915f612e4f565b60409350810491505f612e36565b8051156130a157805191600280840180941161142f57600393849004600281901b91906001600160fe1b0381160361142f5793604051937f4142434445464748494a4b4c4d4e4f505152535455565758595a616263646566601f52603f917f6768696a6b6c6d6e6f707172737475767778797a303132333435363738392b2f603f5260208601928291835184019160208301998a51945f8c525b8481106130655750505050509060039160209596975251068060011461305057600214613043575b50808452830101604052565b603d905f1901535f613037565b50603d90815f1982015360011901535f613037565b836004919c95989c019b838d51818160121c165183538181600c1c16516001840153818160061c1651858401531651858201530196939a61300f565b506040516130ae816128be565b5f81529056fea26469706673582212209fa709582c340fff1bbd6d42ad7a21bf288e405bc09e944e92e9f496f8f71e0a64736f6c63430008180033",
  "linkReferences": {},
  "deployedLinkReferences": {}
}