{
  "_format": "hh-sol-artifact-1",
  "contractName": "GameManager",
  "sourceName": "contracts/GameManager.sol",
  "abi": [
    {
      "inputs": [
        {
          "internalType": "address",
          "name": "_characterNFT",
          "type": "address"
        },
        {
          "internalType": "address",
          "name": "_itemNFT",
          "type": "address"
        },
        {
          "internalType": "address",
          "name": "_goldToken",
          "type": "address"
        },
        {
          "internalType": "address",
          "name": "_guildManager",
          "type": "address"
        }
      ],
      "stateMutability": "nonpayable",
      "type": "constructor"
    },
    {
      "inputs": [
        {
          "internalType": "address",
          "name": "owner",
          "type": "address"
        }
      ],
      "name": "OwnableInvalidOwner",
      "type": "error"
    },
    {
      "inputs": [
        {
          "internalType": "address",
          "name": "account",
          "type": "address"
        }
      ],
      "name": "OwnableUnauthorizedAccount",
      "type": "error"
    },
    {
      "anonymous": false,
      "inputs": [
        {
          "indexed": true,
          "internalType": "address",
          "name": "player",
          "type": "address"
        },
        {
          "indexed": true,
          "internalType": "uint256",
          "name": "characterId",
          "type": "uint256"
        },
        {
          "indexed": false,
          "internalType": "uint32",
          "name": "xpGained",
          "type": "uint32"
        },
        {
          "indexed": false,
          "internalType": "uint256",
          "name": "goldGained",
          "type": "uint256"
        },
        {
          "indexed": false,
          "internalType": "bool",
          "name": "itemDropped",
          "type": "bool"
        }
      ],
      "name": "AdventureEvent",
      "type": "event"
    },
    {
      "anonymous": false,
      "inputs": [
        {
          "indexed": true,
          "internalType": "address",
          "name": "player",
          "type": "address"
        },
        {
          "indexed": true,
          "internalType": "uint256",
          "name": "characterId",
          "type": "uint256"
        },
        {
          "indexed": false,
          "internalType": "uint8",
          "name": "monsterType",
          "type": "uint8"
        },
        {
          "indexed": false,
          "internalType": "bool",
          "name": "victory",
          "type": "bool"
        },
        {
          "indexed": false,
          "internalType": "uint32",
          "name": "xpGained",
          "type": "uint32"
        },
        {
          "indexed": false,
          "internalType": "uint256",
          "name": "goldGained",
          "type": "uint256"
        }
      ],
      "name": "CombatEvent",
      "type": "event"
    },
    {
      "anonymous": false,
      "inputs": [
        {
          "indexed": true,
          "internalType": "address",
          "name": "player",
          "type": "address"
        },
        {
          "indexed": true,
          "internalType": "uint256",
          "name": "characterId",
          "type": "uint256"
        },
        {
          "indexed": false,
          "internalType": "uint256",
          "name": "itemId",
          "type": "uint256"
        }
      ],
      "name": "ItemEquipped",
      "type": "event"
    },
    {
      "anonymous": false,
      "inputs": [
        {
          "indexed": true,
          "internalType": "address",
          "name": "player",
          "type": "address"
        },
        {
          "indexed": true,
          "internalType": "uint256",
          "name": "characterId",
          "type": "uint256"
        },
        {
          "indexed": false,
          "internalType": "uint8",
          "name": "newLevel",
          "type": "uint8"
        }
      ],
      "name": "LevelUp",
      "type": "event"
    },
    {
      "anonymous": false,
      "inputs": [
        {
          "indexed": true,
          "internalType": "address",
          "name": "previousOwner",
          "type": "address"
        },
        {
          "indexed": true,
          "internalType": "address",
          "name": "newOwner",
          "type": "address"
        }
      ],
      "name": "OwnershipTransferred",
      "type": "event"
    },
    {
      "anonymous": false,
      "inputs": [
        {
          "indexed": true,
          "internalType": "uint256",
          "name": "eventIndex",
          "type": "uint256"
        },
        {
          "indexed": true,
          "internalType": "address",
          "name": "player",
          "type": "address"
        },
        {
          "indexed": false,
          "internalType": "uint8",
          "name": "eventType",
          "type": "uint8"
        }
      ],
      "name": "WorldEventEmitted",
      "type": "event"
    },
    {
      "inputs": [],
      "name": "ENERGY_REGEN_TIME",
      "outputs": [
        {
          "internalType": "uint256",
          "name": "",
          "type": "uint256"
        }
      ],
      "stateMutability": "view",
      "type": "function"
    },
    {
      "inputs": [],
      "name": "ITEM_COST",
      "outputs": [
        {
          "internalType": "uint256",
          "name": "",
          "type": "uint256"
        }
      ],
      "stateMutability": "view",
      "type": "function"
    },
    {
      "inputs": [],
      "name": "MAX_ENERGY",
      "outputs": [
        {
          "internalType": "uint8",
          "name": "",
          "type": "uint8"
        }
      ],
      "stateMutability": "view",
      "type": "function"
    },
    {
      "inputs": [
        {
          "internalType": "uint8",
          "name": "itemType",
          "type": "uint8"
        }
      ],
      "name": "buyItem",
      "outputs": [],
      "stateMutability": "nonpayable",
      "type": "function"
    },
    {
      "inputs": [],
      "name": "characterNFT",
      "outputs": [
        {
          "internalType": "contract CharacterNFT",
          "name": "",
          "type": "address"
        }
      ],
      "stateMutability": "view",
      "type": "function"
    },
    {
      "inputs": [
        {
          "internalType": "string",
          "name": "name",
          "type": "string"
        }
      ],
      "name": "createGuild",
      "outputs": [],
      "stateMutability": "nonpayable",
      "type": "function"
    },
    {
      "inputs": [
        {
          "internalType": "string",
          "name": "description",
          "type": "string"
        }
      ],
      "name": "createProposal",
      "outputs": [
        {
          "internalType": "uint256",
          "name": "",
          "type": "uint256"
        }
      ],
      "stateMutability": "nonpayable",
      "type": "function"
    },
    {
      "inputs": [
        {
          "internalType": "uint256",
          "name": "amount",
          "type": "uint256"
        }
      ],
      "name": "donateToGuild",
      "outputs": [],
      "stateMutability": "nonpayable",
      "type": "function"
    },
    {
      "inputs": [
        {
          "internalType": "uint256",
          "name": "charId",
          "type": "uint256"
        },
        {
          "internalType": "uint256",
          "name": "itemId",
          "type": "uint256"
        }
      ],
      "name": "equipItem",
      "outputs": [],
      "stateMutability": "nonpayable",
      "type": "function"
    },
    {
      "inputs": [
        {
          "internalType": "uint256",
          "name": "charId",
          "type": "uint256"
        }
      ],
      "name": "explore",
      "outputs": [],
      "stateMutability": "nonpayable",
      "type": "function"
    },
    {
      "inputs": [
        {
          "internalType": "uint256",
          "name": "charId",
          "type": "uint256"
        },
        {
          "internalType": "uint8",
          "name": "monsterType",
          "type": "uint8"
        }
      ],
      "name": "fightMonster",
      "outputs": [],
      "stateMutability": "nonpayable",
      "type": "function"
    },
    {
      "inputs": [],
      "name": "getAllPlayers",
      "outputs": [
        {
          "internalType": "address[]",
          "name": "",
          "type": "address[]"
        }
      ],
      "stateMutability": "view",
      "type": "function"
    },
    {
      "inputs": [
        {
          "internalType": "uint256",
          "name": "charId",
          "type": "uint256"
        }
      ],
      "name": "getAvailableEnergy",
      "outputs": [
        {
          "internalType": "uint8",
          "name": "",
          "type": "uint8"
        }
      ],
      "stateMutability": "view",
      "type": "function"
    },
    {
      "inputs": [],
      "name": "getPlayerCount",
      "outputs": [
        {
          "internalType": "uint256",
          "name": "",
          "type": "uint256"
        }
      ],
      "stateMutability": "view",
      "type": "function"
    },
    {
      "inputs": [
        {
          "internalType": "uint256",
          "name": "count",
          "type": "uint256"
        }
      ],
      "name": "getRecentWorldEvents",
      "outputs": [
        {
          "components": [
            {
              "internalType": "address",
              "name": "player",
              "type": "address"
            },
            {
              "internalType": "uint256",
              "name": "characterId",
              "type": "uint256"
            },
            {
              "internalType": "uint8",
              "name": "eventType",
              "type": "uint8"
            },
            {
              "internalType": "string",
              "name": "message",
              "type": "string"
            },
            {
              "internalType": "uint64",
              "name": "timestamp",
              "type": "uint64"
            }
          ],
          "internalType": "struct GameManager.WorldEvent[]",
          "name": "",
          "type": "tuple[]"
        }
      ],
      "stateMutability": "view",
      "type": "function"
    },
    {
      "inputs": [],
      "name": "getWorldEventsCount",
      "outputs": [
        {
          "internalType": "uint256",
          "name": "",
          "type": "uint256"
        }
      ],
      "stateMutability": "view",
      "type": "function"
    },
    {
      "inputs": [],
      "name": "goldToken",
      "outputs": [
        {
          "internalType": "contract GoldToken",
          "name": "",
          "type": "address"
        }
      ],
      "stateMutability": "view",
      "type": "function"
    },
    {
      "inputs": [],
      "name": "guildManager",
      "outputs": [
        {
          "internalType": "contract GuildManager",
          "name": "",
          "type": "address"
        }
      ],
      "stateMutability": "view",
      "type": "function"
    },
    {
      "inputs": [
        {
          "internalType": "address",
          "name": "",
          "type": "address"
        }
      ],
      "name": "isRegistered",
      "outputs": [
        {
          "internalType": "bool",
          "name": "",
          "type": "bool"
        }
      ],
      "stateMutability": "view",
      "type": "function"
    },
    {
      "inputs": [],
      "name": "itemNFT",
      "outputs": [
        {
          "internalType": "contract ItemNFT",
          "name": "",
          "type": "address"
        }
      ],
      "stateMutability": "view",
      "type": "function"
    },
    {
      "inputs": [
        {
          "internalType": "uint256",
          "name": "guildId",
          "type": "uint256"
        }
      ],
      "name": "joinGuild",
      "outputs": [],
      "stateMutability": "nonpayable",
      "type": "function"
    },
    {
      "inputs": [],
      "name": "leaderboard",
      "outputs": [
        {
          "internalType": "uint256[]",
          "name": "ids",
          "type": "uint256[]"
        },
        {
          "internalType": "string[]",
          "name": "names",
          "type": "string[]"
        },
        {
          "internalType": "uint8[]",
          "name": "levels",
          "type": "uint8[]"
        },
        {
          "internalType": "uint32[]",
          "name": "xps",
          "type": "uint32[]"
        },
        {
          "internalType": "address[]",
          "name": "owners",
          "type": "address[]"
        }
      ],
      "stateMutability": "view",
      "type": "function"
    },
    {
      "inputs": [],
      "name": "leaveGuild",
      "outputs": [],
      "stateMutability": "nonpayable",
      "type": "function"
    },
    {
      "inputs": [
        {
          "internalType": "uint256",
          "name": "",
          "type": "uint256"
        }
      ],
      "name": "monsters",
      "outputs": [
        {
          "internalType": "string",
          "name": "name",
          "type": "string"
        },
        {
          "internalType": "uint16",
          "name": "hp",
          "type": "uint16"
        },
        {
          "internalType": "uint16",
          "name": "attack",
          "type": "uint16"
        },
        {
          "internalType": "uint16",
          "name": "defense",
          "type": "uint16"
        },
        {
          "internalType": "uint32",
          "name": "xpReward",
          "type": "uint32"
        },
        {
          "internalType": "uint256",
          "name": "goldReward",
          "type": "uint256"
        }
      ],
      "stateMutability": "view",
      "type": "function"
    },
    {
      "inputs": [],
      "name": "owner",
      "outputs": [
        {
          "internalType": "address",
          "name": "",
          "type": "address"
        }
      ],
      "stateMutability": "view",
      "type": "function"
    },
    {
      "inputs": [
        {
          "internalType": "uint256",
          "name": "",
          "type": "uint256"
        }
      ],
      "name": "playerList",
      "outputs": [
        {
          "internalType": "address",
          "name": "",
          "type": "address"
        }
      ],
      "stateMutability": "view",
      "type": "function"
    },
    {
      "inputs": [],
      "name": "renounceOwnership",
      "outputs": [],
      "stateMutability": "nonpayable",
      "type": "function"
    },
    {
      "inputs": [
        {
          "internalType": "uint256",
          "name": "charId",
          "type": "uint256"
        }
      ],
      "name": "rest",
      "outputs": [],
      "stateMutability": "nonpayable",
      "type": "function"
    },
    {
      "inputs": [
        {
          "internalType": "address",
          "name": "newOwner",
          "type": "address"
        }
      ],
      "name": "transferOwnership",
      "outputs": [],
      "stateMutability": "nonpayable",
      "type": "function"
    },
    {
      "inputs": [
        {
          "internalType": "uint256",
          "name": "charId",
          "type": "uint256"
        },
        {
          "internalType": "uint256",
          "name": "itemId",
          "type": "uint256"
        }
      ],
      "name": "usePotion",
      "outputs": [],
      "stateMutability": "nonpayable",
      "type": "function"
    },
    {
      "inputs": [
        {
          "internalType": "uint256",
          "name": "proposalId",
          "type": "uint256"
        },
        {
          "internalType": "bool",
          "name": "support",
          "type": "bool"
        }
      ],
      "name": "voteOnProposal",
      "outputs": [],
      "stateMutability": "nonpayable",
      "type": "function"
    },
    {
      "inputs": [
        {
          "internalType": "uint256",
          "name": "",
          "type": "uint256"
        }
      ],
      "name": "worldEvents",
      "outputs": [
        {
          "internalType": "address",
          "name": "player",
          "type": "address"
        },
        {
          "internalType": "uint256",
          "name": "characterId",
          "type": "uint256"
        },
        {
          "internalType": "uint8",
          "name": "eventType",
          "type": "uint8"
        },
        {
          "internalType": "string",
          "name": "message",
          "type": "string"
        },
        {
          "internalType": "uint64",
          "name": "timestamp",
          "type": "uint64"
        }
      ],
      "stateMutability": "view",
      "type": "function"
    },
    {
      "inputs": [
        {
          "internalType": "uint256",
          "name": "",
          "type": "uint256"
        }
      ],
      "name": "xpTable",
      "outputs": [
        {
          "internalType": "uint32",
          "name": "",
          "type": "uint32"
        }
      ],
      "stateMutability": "view",
      "type": "function"
    }
  ],
  "bytecode": "0x6080346200078157601f6200554738819003918201601f19168301916001600160401b038311848410176200059e5780849260809460405283398101031262000781576200004d81620007c5565b6200005b60208301620007c5565b906200007860606200007060408601620007c5565b9401620007c5565b90331562000769575f549360018060a01b03809481809460018060a01b031998338a8216175f55823391167f8be0079c531659141344cd1fd0a4f28419497f9722a3daafe3b4186f6b6457e05f80a316876001541617600155168560025416176002551683600354161760035516906004541617600455620000f962000785565b62000103620007a5565b906005825264536c696d6560d81b6020830152818152601e6020820152600560408201526002606082015260146080820152678ac7230489e8000060a082015281519160018060401b0383116200059e57600554600181811c911680156200075e575b60208210146200057f57601f811162000717575b50602090601f8411600114620006a85760a093915f91836200069c575b50508160011b915f199060031b1c1916176005555b61ffff60208201511660065490604083015163ffff000065ffff00000000606086015160201b169269ffffffff000000000000608087015160301b169460018060501b031916179160101b1617171760065501516007556200020d62000785565b62000217620007a5565b90600682526523b7b13634b760d11b6020830152818152603c6020820152600c6040820152600560608201526032608082015268015af1d78b58c4000060a082015281519160018060401b0383116200059e57600854600181811c9116801562000691575b60208210146200057f57601f81116200062d575b50602090601f8411600114620005be5760a093915f9183620005b2575b50508160011b915f199060031b1c1916176008555b61ffff6020820151166009549063ffff0000604084015160101b1665ffff00000000606085015160201b169169ffffffff000000000000608086015160301b169360018060501b031916171717176009550151600a556200032262000785565b6200032c620007a5565b90600b82526a11185c9ac812db9a59da1d60aa1b60208301528181526078602082015260196040820152600f606082015260786080820152680340aad21b3b70000060a082015281519160018060401b0383116200059e57600b54600181811c9116801562000593575b60208210146200057f57601f811162000517575b50602090601f84116001146200048b5760a093915f91836200047f575b50508160011b915f199060031b1c191617600b555b61ffff602082015116600c549063ffff0000604084015160101b1665ffff00000000606085015160201b169169ffffffff000000000000608086015160301b169360018060501b03191617171717600c550151600d557d0960000005dc00000384000001f4000000fa000000640000000000000000601155692134000016a800000ed860018060601b03196012541617601255604051614d6c9081620007db8239f35b015190505f80620003c7565b600b5f9081527f0175b7a638427703f0dbe7bb9bbf987a2551717b34e79f33b5b1008d1fa01db9929190601f198616905b818110620004fe575091600193918660a0979410620004e5575b505050811b01600b55620003dc565b01515f1960f88460031b161c191690555f8080620004d6565b92936020600181928786015181550195019301620004bc565b600b5f527f0175b7a638427703f0dbe7bb9bbf987a2551717b34e79f33b5b1008d1fa01db9601f850160051c8101916020861062000574575b601f0160051c01905b818110620005685750620003aa565b5f815560010162000559565b909150819062000550565b634e487b7160e01b5f52602260045260245ffd5b90607f169062000396565b634e487b7160e01b5f52604160045260245ffd5b015190505f80620002ad565b9060085f5260205f20915f5b601f198616811062000614575091849160019360a096601f19811610620005fb575b505050811b01600855620002c2565b01515f1960f88460031b161c191690555f8080620005ec565b91926020600181928685015181550194019201620005ca565b60085f527ff3f7a9fe364faab93b216da50a3214154f22a0a2b415b23a84c8169e8b636ee3601f850160051c81016020861062000689575b601f830160051c820181106200067d57505062000290565b5f815560010162000665565b508062000665565b90607f16906200027c565b015190505f8062000197565b9060055f5260205f20915f5b601f1986168110620006fe575091849160019360a096601f19811610620006e5575b505050811b01600555620001ac565b01515f1960f88460031b161c191690555f8080620006d6565b91926020600181928685015181550194019201620006b4565b60055f5260205f20601f850160051c81016020861062000756575b601f830160051c820181106200074a5750506200017a565b5f815560010162000732565b508062000732565b90607f169062000166565b604051631e4fbdf760e01b81525f6004820152602490fd5b5f80fd5b6040519060c082016001600160401b038111838210176200059e57604052565b60408051919082016001600160401b038111838210176200059e57604052565b51906001600160a01b0382168203620007815756fe60c0806040526004361015610012575f80fd5b5f60a0525f3560e01c9081630d3dfa9214613d3f575080631614665c14613ccf578063174aa059146139e45780631c0e61dc146135b85780631fdebc441461359b5780632468fc7e1461357c57806325bc22f714612412578063262a8c3b146120e557806326f92b74146120c05780632c3ce998146120a3578063384d10ee1461207957806347846fd91461205057806349c2a1a614611f4157806357d1f91014611f175780636457e389146114435780636e8eb222146111ec578063715018a61461118f57806373ea5d3214610ff15780637df8b12314610e3d5780638da5cb5b14610e1257806394002b5714610de8578063a03160be14610dab578063a983e78114610d1f578063adb2be8b14610cf5578063ae6d907314610cb3578063b02177d714610aca578063c0576b7314610a42578063c2e5220614610a23578063c3c5a547146109de578063eb56b740146104ab578063ecb4da5a146102bd578063efa1c4821461021e5763f2fde38b1461018b575f80fd5b34610218576020366003190112610218576004356001600160a01b0381811691829003610218576101ba6149ce565b81156101fe575f54826001600160601b0360a01b8216175f55167f8be0079c531659141344cd1fd0a4f28419497f9722a3daafe3b4186f6b6457e05f80a360a05180f35b604051631e4fbdf760e01b815260a0516004820152602490fd5b60a05180fd5b346102185760a0513660031901126102185760405180600f5491828152602080910192600f60a051527f8d1108e10bcb7c27dddfc02ed9d693a074039d026cf4ea4240b40f7d581ac8029160a051905b82821061029d576102998561028581890382613fc2565b604051918291602083526020830190614100565b0390f35b83546001600160a01b03168652948501946001938401939091019061026e565b3461021857602080600319360112610218576004359060ff821680920361045c5760028211610467576003546040516370a0823160e01b8152336004820152906001600160a01b03168282602481845afa9182156104275760a05192610434575b506103356802b5e3af16b188000080931015614738565b803b15610218576040519163079cc67960e41b835233600484015260248301528160448160a0519360a051905af1801561042757610411575b505f194301904382116103f957604051908101914082524260408201523360601b606082015260548152608081018181106001600160401b038211176103e55760405251902060038210156103cd576103c791336149f9565b60a05180f35b634e487b7160e01b60a051526021600452602460a051fd5b634e487b7160e01b5f52604160045260245ffd5b634e487b7160e01b60a051526011600452602460a051fd5b61041a90613f5e565b60a051610218578261036e565b6040513d60a051823e3d90fd5b9091508281813d8311610460575b61044c8183613fc2565b8101031261045c5751908461031e565b5f80fd5b503d610442565b6064906040519062461bcd60e51b82526004820152601960248201527f47616d654d616e616765723a20696e76616c69642074797065000000000000006044820152fd5b346102185760a0513660031901126102185760015460405163ceebb28360e01b8152906001600160a01b0316602082600481845afa9182156104275760a051926109aa575b50600a8211156109a457600a915b61050783614784565b916105156040519384613fc2565b83835261052184614784565b601f190136602085013761054561053785614784565b604051608052608051613fc2565b836080515261055384614784565b601f190160a0515b81811061099157505061056d84614784565b9061057b6040519283613fc2565b84825261058785614784565b601f190136602084013761059a85614784565b946105a86040519687613fc2565b8086526105b481614784565b601f19013660208801376105c781614784565b936105d56040519586613fc2565b818552601f196105e483614784565b013660208701376001810181116103f95761060160018201614784565b61060e6040519182613fc2565b60018201808252601f199061062290614784565b0136602083013760a0515b8381106107665750505050506040519260a0840160a085528151809152602060c0860192019060a0515b81811061075057505050838103602085015260805151808252602082019060208160051b840101926020608051019260a051915b83831061072357505050505083810360408501526020808351928381520192019060a0515b81811061070a5750505082810360608401526020808551928381520194019060a0515b8181106106ee57848061029988878382036080850152614100565b825163ffffffff168652602095860195909201916001016106d3565b825160ff168452602093840193909201916001016106b0565b9091929394602080610741600193601f1986820301875289516140a6565b9701930193019193929061068b565b8251845260209384019390920191600101610657565b60a05190818060015b868111156108be575050508161078a575b600191500161062d565b6001610796838561479b565b52816107a2828b61479b565b5260405163dabb053160e01b81526004810183905260a051816024818a5afa9081156104275763ffffffff9160409160a0519161089a575b5080516107e98560805161479b565b526107f68460805161479b565b5060ff602082015116610809858c61479b565b52015116610817828c61479b565b52604051916331a9108f60e11b83526004830152602082602481895afa80156104275760a05190610860575b60019250610851828a61479b565b90838060a01b03169052610780565b506020823d602011610892575b8161087a60209383613fc2565b810103126102185761088d600192614188565b610843565b3d915061086d565b6108b891503d8060a051833e6108b08183613fc2565b81019061436b565b8d6107da565b6108c8818761479b565b51156108dd575b6108d8906147af565b61076f565b60405163dabb053160e01b81526004810182905260a051816024818d5afa9081156104275760a05191610975575b5060ff908160208201511691841680831190811561094f575b50610931575b50506108cf565b9250945091506108d863ffffffff604084969301511692908e61092a565b905082148061095f575b5f610924565b5063ffffffff8060408301511690861610610959565b61098b91503d8060a051833e6108b08183613fc2565b8e61090b565b806060602080936080510101520161055b565b816104fe565b9091506020813d6020116109d6575b816109c660209383613fc2565b8101031261045c575190826104f0565b3d91506109b9565b34610218576020366003190112610218576004356001600160a01b038116908190036102185760a051526010602052602060ff604060a0512054166040519015158152f35b346102185760a051366003190112610218576020600f54604051908152f35b34610218576020366003190112610218576004356003811015610218576003610a9a9102610a7281600501613fe3565b90600681015463ffffffff600761ffff9301549160405195869560c0875260c08701906140a6565b938082166020870152808260101c1660408701528160201c16606086015260301c16608084015260a08301520390f35b346102185760208060031936011261021857600e5460043580821115610ca557610af7610afe918361456a565b809261456a565b610b0781614784565b91610b156040519384613fc2565b818352610b2182614784565b601f19018460a0515b828110610c695750505060a0515b828110610be7575050506040519082820192808352815180945260408301938160408260051b86010193019160a051955b828710610b765785850386f35b909192938280600192603f19898203018552875190610bc460a0868060a01b038451168352848401518584015260ff60408501511660408401526060908082860151928501528301906140a6565b916001600160401b03608080920151169101529601920196019592919092610b69565b80610bfc610bf7600193856145b1565b613eed565b506001600160401b03600460405192610c1484613f8c565b858060a01b038154168452858101548a85015260ff6002820154166040850152610c4060038201613fe3565b60608501520154166080820152610c57828761479b565b52610c62818661479b565b5001610b38565b604051610c7581613f8c565b60a051815260a0518382015260a051604082015260608082015260a0516080820152828288010152018590610b2a565b50610afe60a051809261456a565b3461021857602036600319011261021857600435600f5481101561021857610cdc6020916140cb565b905460405160039290921b1c6001600160a01b03168152f35b346102185760a051366003190112610218576004546040516001600160a01b039091168152602090f35b3461021857602036600319011261021857600435600e5481101561021857610d4690613eed565b5060018060a01b03815416600182015491610da160ff600283015416916001600160401b036004610d7960038401613fe3565b920154169260405195869586526020860152604085015260a0606085015260a08401906140a6565b9060808301520390f35b3461021857602036600319011261021857600435600b8110156102185763ffffffff610dd8602092613ebe565b9190546040519260031b1c168152f35b346102185760a051366003190112610218576003546040516001600160a01b039091168152602090f35b346102185760a0513660031901126102185760a051546040516001600160a01b039091168152602090f35b34610218576020806003193601126102185760048054604051637154d7ff60e11b81523381840152929135916001600160a01b039181908590602490829086165afa9384156104275760a05194610fc2575b50610e9b8415156146ec565b6003546040516370a0823160e01b8152336004820152908316918082602481865afa801561042757859160a05191610f8f575b50610edb92501015614738565b803b156102185760405163079cc67960e41b815260a0805133600484015260248301869052905191929091839160449183915af1801561042757610f79575b506004541690813b156102185760405192631f72eb3760e11b8452600484015260248301523360448301528160648160a0519360a051905af1801561042757610f635760a05180f35b610f6c90613f5e565b60a05161021857806103c7565b610f8290613f5e565b60a0516102185783610f1a565b8092508391503d8311610fbb575b610fa78183613fc2565b8101031261045c5783610edb915187610ece565b503d610f9d565b9080945081813d8311610fea575b610fda8183613fc2565b8101031261045c57519284610e8f565b503d610fd0565b3461021857602036600319011261021857602460043560018060a01b039060208260015416604051948580926372fa797760e11b82523360048301525afa9283156104275760a0519361115b575b5061104b83151561413c565b8160045416803b15610218576040519063b2137f2160e01b82528260048301523360248301528160448160a0519360a051905af1801561042757611145575b508160015416803b156102185760405191635760f87560e11b835284600484015260248301528160448160a0519360a051905af180156104275761112f575b506001541690813b1561021857604051809263053a87bf60e41b8252818061111760a051956004830160805f9193929360a08101948152600460208201528260408201528260608201520152565b039160a051905af1801561042757610f635760a05180f35b61113890613f5e565b60a05161021857826110c9565b61114e90613f5e565b60a051610218578361108a565b9092506020813d602011611187575b8161117760209383613fc2565b8101031261045c5751918361103f565b3d915061116a565b346102185760a051366003190112610218576111a96149ce565b5f80546001600160a01b0319811682556001600160a01b03167f8be0079c531659141344cd1fd0a4f28419497f9722a3daafe3b4186f6b6457e08280a360a05180f35b3461021857602080600319360112610218576001546040516331a9108f60e11b8152600480359082018190526001600160a01b039390928416918181602481865afa80156104275760a0519061140d575b61124b915085163314614525565b6040519163dabb053160e01b83528360048401528260248160a051935afa9182156104275760a051926113ef575b5061ffff93846060840151169060808401918683511611156113b3576003546040516370a0823160e01b81523360048201529082168482602481845afa9182156104275760a05192611384575b506112dc678ac7230489e8000080931015614738565b803b15610218576040519163079cc67960e41b835233600484015260248301528160448160a0519360a051905af180156104275761136e575b5060ff906001541692840151168563ffffffff6040860151169251169560c08160a0870151169501511693833b156102185786946111179160405198899788968796631da44b5560e21b885260a0519b600489016144c2565b61137790613f5e565b60a0516102185786611315565b9091508481813d83116113ac575b61139c8183613fc2565b8101031261045c575190886112c6565b503d611392565b60405162461bcd60e51b8152600481018490526014602482015273047616d654d616e616765723a2066756c6c2048560641b6044820152606490fd5b6114069192503d8060a051833e6108b08183613fc2565b9084611279565b508181813d831161143c575b6114238183613fc2565b810103126102185761143761124b91614188565b61123d565b503d611419565b34610218576020366003190112610218576001546040516331a9108f60e11b8152600480359082015290602090829060249082906001600160a01b03165afa80156104275760a05190611edc575b6114a691506001600160a01b03163314614525565b6114ae6147bd565b6114b960043561481e565b60015460405163dabb053160e01b8152600480359082015260a0519091829060249082906001600160a01b03165afa9081156104275760a05191611ec0575b505f1943014381116103f95760405160208101914082524260408201523360601b606082015260043560748201526074815261153381613f8c565b51902060158106600a019182600a116103f95763ffffffff91600f8160081c1660050191826005116103f957670de0b6b3a76400009083828102048214841517156103f95761158a858716866040840151166145be565b60ff60208301511661ffff60808401511661ffff60a0850151169261ffff60c086015116600a841080611e9b575b611c24575b60018060a01b03600154169161ffff60608801511691833b15610218576116029060405197889687958695631da44b5560e21b875260a0519a600435600489016144c2565b039160a051905af1801561042757611c0e575b506003546001600160a01b0316803b15610218576040516340c10f1960e01b815260a080513360048401528588026024840152905191929091839160449183915af1801561042757611bf8575b50600f60648460101c0610611991575b6001546001600160a01b0316803b15610218576040519063053a87bf60e41b825260043560048301526001602483015260a0516044830152868816606483015283860260848301528160a48160a0519360a051905af180156104275761197b575b50516117286038604051836116f2829551809260208086019101614085565b81017f206578706c6f726564207468652077696c6465726e65737300000000000000006020820152036018810184520182613fc2565b6001600160401b0360405161173c81613f8c565b33815260208101926004358452604082015f81526060830191825260808301948442168652600e54600160401b8110156103e5578060016117809201600e55613eed565b949094611968575184546001600160a01b0319166001600160a01b03919091161784555160018401555160028301805460ff191660ff9290921691909117905551805160038301918482116103e5576117d98354613f26565b601f8111611923575b50602090601f83116001146118bb576004949392915f91836118b0575b50508160011b915f199060031b1c19161790555b019151166001600160401b0319825416179055600e54925f19840193841161189c57600f94606494604051905f82525f80516020614d1783398151915260203393a36040519616865202602085015260101c06106040820152600435907f4cccc67e32dadb987e673893cf273910b88fe0c56656e976fab09499572ebb3e60603392a360a05180f35b634e487b7160e01b5f52601160045260245ffd5b015190508c806117ff565b90601f19831691845f5260205f20925f5b81811061190b5750916001939185600498979694106118f3575b505050811b019055611813565b01515f1960f88460031b161c191690558c80806118e6565b929360206001819287860151815501950193016118cc565b835f5260205f20601f840160051c8101916020851061195e575b601f0160051c01905b81811061195357506117e2565b5f8155600101611946565b909150819061193d565b634e487b7160e01b5f525f60045260245ffd5b61198490613f5e565b60a05161021857866116d3565b61199e8360181c33614998565b80516119f3603f604051836119bd829551809260208086019101614085565b81017f20666f756e6420616e206974656d207768696c65206578706c6f72696e672100602082015203601f810184520182613fc2565b60405190611a0082613f8c565b338252602082019060043582526040830160038152606084019182526001600160401b0342166080850152600e54600160401b8110156103e557806001611a4a9201600e55613eed565b9390936119685760018060a01b038551166001600160601b0360a01b85541617845551600184015560ff6002840191511660ff19825416179055518051906001600160401b0382116103e557611aa36003840154613f26565b601f8111611bb0575b50602090601f8311600114611b375792826080936004936001600160401b03965f92611b2c575b50508160011b915f199060031b1c19161760038201555b01920151166001600160401b0319825416179055600e545f19810190811161189c5760405190600382525f80516020614d1783398151915260203393a3611672565b015190508d80611ad3565b90600384015f5260205f20915f5b601f1985168110611b985750836004936001600160401b039693600193608097601f19811610611b80575b505050811b016003820155611aea565b01515f1960f88460031b161c191690558d8080611b70565b91926020600181928685015181550194019201611b45565b600384015f5260205f20601f840160051c81019160208510611bee575b601f0160051c01905b818110611be35750611aac565b5f8155600101611bd6565b9091508190611bcd565b611c0190613f5e565b60a0516102185786611662565b611c1790613f5e565b60a0516102185786611615565b939192611c45611c3f611c39611c4b936145e8565b95614473565b93614486565b94614499565b611c628651611c5c60ff87166148da565b906145f9565b60405190611c6f82613f8c565b33825260043560208301526004604083015260608201526001600160401b0342166080820152600e54600160401b8110156103e557806001611cb49201600e55613eed565b6119685760018060a01b038251166001600160601b0360a01b825416178155602082015160018201556002810160ff60408401511660ff1982541617905560608201518051906001600160401b0382116103e557611d156003840154613f26565b601f8111611e57575b50602090601f8311600114611dde5792826080936004936001600160401b03965f92611dd3575b50508160011b915f199060031b1c19161760038201555b01920151166001600160401b0319825416179055600e54805f1981011161189c57604051600481525f80516020614d17833981519152602033935f190192a360405160ff85168152600435907f5e61899597153fce5cf9104e496f413cd513c8082de3fd78f3162ae80dce70ac60203392a36115bd565b015190505f80611d45565b90600384015f5260205f20915f5b601f1985168110611e3f5750836004936001600160401b039693600193608097601f19811610611e27575b505050811b016003820155611d5c565b01515f1960f88460031b161c191690555f8080611e17565b91926020600181928685015181550194019201611dec565b600384015f5260205f20601f840160051c810160208510611e94575b601f830160051c82018110611e89575050611d1e565b5f8155600101611e73565b5080611e73565b5089611eae611ea9866145d6565b613ebe565b90549060031b1c168a831610156115b8565b611ed691503d8060a051833e6108b08183613fc2565b816114f8565b506020813d602011611f0f575b81611ef660209383613fc2565b8101031261021857611f0a6114a691614188565b611491565b3d9150611ee9565b346102185760a051366003190112610218576002546040516001600160a01b039091168152602090f35b3461021857611f4f36613e75565b60048054604051637154d7ff60e11b81523392810192909252602093906001600160a01b03168483602481845afa801561042757859360a0519161201d575b509384611f9f611fc99615156146ec565b6040519586948593849363fd9d880d60e01b85526004850152606060248501526064840191614505565b336044830152039160a051905af19081156104275760a05191611ff0575b50604051908152f35b90508181813d8311612016575b6120078183613fc2565b8101031261045c575182611fe7565b503d611ffd565b84819592503d8311612049575b6120348183613fc2565b8101031261045c579151849290611fc9611f8e565b503d61202a565b3461021857602036600319011261021857602061206e600435614657565b60ff60405191168152f35b346102185760a051366003190112610218576001546040516001600160a01b039091168152602090f35b346102185760a051366003190112610218576020604051600a8152f35b346102185760a0513660031901126102185760206040516802b5e3af16b18800008152f35b34610218576120f336613e5f565b6001546040516331a9108f60e11b808252600482018590526020926024926001600160a01b0392918316919085818681865afa80156104275760a051906123dc575b61214391508416331461419c565b82600254169060405190815286600482015285818681855afa80156104275760a051906123a6575b6121799150841633146141e8565b60405190633129e77360e01b825286600483015281858160a051935afa801561042757859160a05191612382575b50018051600381101561236b5760021461232957516003811015612312576122bd57508060015416803b15610218576040519063785e867160e01b825286600483015285848301528160448160a0519360a051905af18015610427576122a7575b505b60015416803b156102185760036040519263053a87bf60e41b845286600485015283015260a051604483015260a051606483015260a05160848301528160a48160a0519360a051905af1801561042757612291575b507f553822f3475b531fa45f45841e2de9b316742a9e44f6a114ce4c7c3c9113b2c0906040519283523392a360a05180f35b61229a90613f5e565b60a051610218578361225f565b6122b090613f5e565b60a0516102185785612208565b803b156102185760405190631b78218160e11b825286600483015285848301528160448160a0519360a051905af18015610427576122fc575b5061220a565b61230590613f5e565b60a05161021857856122f6565b83634e487b7160e01b60a05152602160045260a051fd5b606484866040519162461bcd60e51b83528160048401528201527f47616d654d616e616765723a2063616e6e6f7420657175697020706f74696f6e6044820152fd5b84634e487b7160e01b60a05152602160045260a051fd5b6123a091503d8060a051833e6123988183613fc2565b8101906142c5565b886121a7565b508581813d83116123d5575b6123bc8183613fc2565b81010312610218576123d061217991614188565b61216b565b503d6123b2565b508581813d831161240b575b6123f28183613fc2565b810103126102185761240661214391614188565b612135565b503d6123e8565b346102185760403660031901126102185760ff602435166024350361045c576001546040516331a9108f60e11b8152600480359082015290602090829060249082906001600160a01b03165afa80156104275760a05190613541575b61248391506001600160a01b03163314614525565b600360ff6024351610156134fc576124996147bd565b6124a460043561481e565b60015460405163dabb053160e01b8152600480359082015260a0516001600160a01b039092169181602481855afa9081156104275760a051916134e0575b50600360243510156134c8576040516124fa81613f71565b61250b600360243502600501613fe3565b815263ffffffff6006600360243502015461ffff8116602084015261ffff8160101c16604084015261ffff8160201c16606084015260301c1660808201526007600360243502015460a0820152435f194301116103f95760405160208101905f1943014082524260408201523360601b6060820152600435607482015260ff60f81b60243560f81b166094820152607581526125a681613f8c565b5190209161ffff60a08201511661ffff60c0830151169060e083015180613453575b50610100830151806133dc575b50606084015161ffff9081169082168110156133d2576125f49161458a565b905b604084015161ffff908116919081168211156133c9576126159161458a565b61ffff61263061262b84836020890151166144ac565b614577565b1661ffff8316156133b15761ffff61266c9316900460a05150600161ffff8216115f146133a45761ffff6126648192614577565b16911661459e565b602984066050016050116103f95761268d606491602986066050019061459e565b049361ffff851161339a575b60a05160608301519091829161ffff1687101561307f575050506126cb60019461ffff8060608501511691169061458a565b9063ffffffff6080840151169260a0810151946126f28563ffffffff6040860151166145be565b60ff60208501511661ffff60808601511661ffff60a0870151169261ffff60c088015116600a841080613057575b612df8575b6001546001600160a01b031691823b15610218576127628a9260405197889687958695631da44b5560e21b875260a0519a600435600489016144c2565b039160a051905af1801561042757612de2575b506003546001600160a01b0316803b15610218576040516340c10f1960e01b815260a08051336004840152602483018a9052905191929091839160449183915af1801561042757612dcc575b50601960648260081c0610612b53575b5061282c602a835192519260405193816127f5869351809260208087019101614085565b8201690103232b332b0ba32b2160b51b602082015261281d8251809360208785019101614085565b0103600a810184520182613fc2565b6040519061283982613f8c565b33825260043560208301526001604083015260608201526001600160401b0342166080820152600e54600160401b8110156103e55780600161287e9201600e55613eed565b6119685760018060a01b038251166001600160601b0360a01b825416178155602082015160018201556002810160ff60408401511660ff1982541617905560608201518051906001600160401b0382116103e5576128df6003840154613f26565b601f8111612b0f575b50602090601f8311600114612a965792826080936004936001600160401b03965f92612a8b575b50508160011b915f199060031b1c19161760038201555b01920151166001600160401b0319825416179055600e54905f19820191821161189c57606061ffff9291839260405190600182525f80516020614d1783398151915260203393a35b01511660030b911660030b03637fffffff8113637fffffff198212176103f957617fff90600381900b9082821315612a6d5750505b6001546001600160a01b031691823b156102185763ffffffff906040519263053a87bf60e41b845260043560048501526002602485015260010b604484015216918260648301528360848301528160a48160a0519360a051905af1801561042757612a57575b506040519260ff6024351684521515602084015260408301526060820152600435907f4c74de8355b81fb1e36fd17f9ede7105c1198338475799e11354ea6a4a21a9b160803392a360a05180f35b612a6090613f5e565b60a0516102185783612a09565b617fff19925090821315612a8157506129a3565b905060010b6129a3565b015190508c8061290f565b90600384015f5260205f20915f5b601f1985168110612af75750836004936001600160401b039693600193608097601f19811610612adf575b505050811b016003820155612926565b01515f1960f88460031b161c191690558c8080612acf565b91926020600181928685015181550194019201612aa4565b600384015f5260205f20601f840160051c810160208510612b4c575b601f830160051c82018110612b415750506128e8565b5f8155600101612b2b565b5080612b2b565b612b609060101c33614998565b8151612bc560358351926040519381612b83869351809260208087019101614085565b8201740103637b7ba32b21030b71034ba32b690333937b69605d1b6020820152612bb68251809360208785019101614085565b01036015810184520182613fc2565b60405190612bd282613f8c565b33825260043560208301526003604083015260608201526001600160401b0342166080820152600e54600160401b8110156103e557806001612c179201600e55613eed565b6119685760018060a01b038251166001600160601b0360a01b825416178155602082015160018201556002810160ff60408401511660ff1982541617905560608201518051906001600160401b0382116103e557612c786003840154613f26565b601f8111612d88575b50602090601f8311600114612d0f5792826080936004936001600160401b03965f92612d04575b50508160011b915f199060031b1c19161760038201555b01920151166001600160401b0319825416179055600e54805f1981011161189c57604051600381525f80516020614d17833981519152602033935f190192a3866127d1565b015190508d80612ca8565b90600384015f5260205f20915f5b601f1985168110612d705750836004936001600160401b039693600193608097601f19811610612d58575b505050811b016003820155612cbf565b01515f1960f88460031b161c191690558d8080612d48565b91926020600181928685015181550194019201612d1d565b600384015f5260205f20601f840160051c810160208510612dc5575b601f830160051c82018110612dba575050612c81565b5f8155600101612da4565b5080612da4565b612dd590613f5e565b60a05161021857876127c1565b612deb90613f5e565b60a0516102185787612775565b939192611c45611c3f611c39612e0d936145e8565b612e1e8851611c5c60ff87166148da565b60405190612e2b82613f8c565b33825260043560208301526004604083015260608201526001600160401b0342166080820152600e54600160401b8110156103e557806001612e709201600e55613eed565b6119685760018060a01b038251166001600160601b0360a01b825416178155602082015160018201556002810160ff60408401511660ff1982541617905560608201518051906001600160401b0382116103e557612ed16003840154613f26565b601f8111613013575b50602090601f8311600114612f9a5792826080936004936001600160401b03965f92612f8f575b50508160011b915f199060031b1c19161760038201555b01920151166001600160401b0319825416179055600e54805f1981011161189c57604051600481525f80516020614d17833981519152602033935f190192a360405160ff85168152600435907f5e61899597153fce5cf9104e496f413cd513c8082de3fd78f3162ae80dce70ac60203392a3612725565b015190505f80612f01565b90600384015f5260205f20915f5b601f1985168110612ffb5750836004936001600160401b039693600193608097601f19811610612fe3575b505050811b016003820155612f18565b01515f1960f88460031b161c191690555f8080612fd3565b91926020600181928685015181550194019201612fa8565b600384015f5260205f20601f840160051c810160208510613050575b601f830160051c82018110613045575050612eda565b5f815560010161302f565b508061302f565b5063ffffffff613069611ea9866145d6565b90549060031b1c1663ffffffff83161015612720565b9291945092945060a0519460019260ff6020840151169063ffffffff60408501511661ffff60808601511661ffff60a0870151169061ffff60c08801511692843b156102185760405195631da44b5560e21b875260043560048801526024870152604486015260016064860152608485015260a484015260c48301528160e48160a0519360a051905af1801561042757613384575b50613176603183519251926040519381613138869351809260208087019101614085565b8201700103bb0b9903232b332b0ba32b210313c9607d1b60208201526131678251809360208785019101614085565b01036011810184520182613fc2565b6040519061318382613f8c565b33825260043560208301526002604083015260608201526001600160401b0342166080820152600e54600160401b8110156103e5578060016131c89201600e55613eed565b6119685760018060a01b038251166001600160601b0360a01b825416178155602082015160018201556002810160ff60408401511660ff1982541617905560608201518051906001600160401b0382116103e5576132296003840154613f26565b601f8111613340575b50602090601f83116001146132c75792826080936004936001600160401b03965f926132bc575b50508160011b915f199060031b1c19161760038201555b01920151166001600160401b0319825416179055600e54905f19820191821161189c57606061ffff9291839260405190600282525f80516020614d1783398151915260203393a361296e565b015190508c80613259565b90600384015f5260205f20915f5b601f19851681106133285750836004936001600160401b039693600193608097601f19811610613310575b505050811b016003820155613270565b01515f1960f88460031b161c191690558c8080613300565b919260206001819286850151815501940192016132d5565b600384015f5260205f20601f840160051c81016020851061337d575b601f830160051c82018110613372575050613232565b5f815560010161335c565b508061335c565b61338d90613f5e565b60a0516102185786613114565b61ffff9450612699565b5061ffff8060a051612664565b634e487b7160e01b60a051526012600452602460a051fd5b50506001612615565b50506001906125f6565b600254604051633129e77360e01b8152600481019290925260a05190829060249082906001600160a01b03165afa60a0519181613435575b50156125d5579161ffff604061342e9394015116906144ac565b90866125d5565b61344c9192503d8060a051833e6123988183613fc2565b9088613414565b600254604051633129e77360e01b8152600481019290925260a05190829060249082906001600160a01b03165afa60a05191816134aa575b50156125c8579061ffff60406134a493015116906144ac565b866125c8565b6134c19192503d8060a051833e6123988183613fc2565b908861348b565b634e487b7160e01b60a051526032600452602460a051fd5b6134f691503d8060a051833e6108b08183613fc2565b826124e2565b60405162461bcd60e51b815260206004820152601c60248201527f47616d654d616e616765723a20696e76616c6964206d6f6e73746572000000006044820152606490fd5b506020813d602011613574575b8161355b60209383613fc2565b810103126102185761356f61248391614188565b61246e565b3d915061354e565b346102185760a051366003190112610218576020600e54604051908152f35b346102185760a05136600319011261021857602060405160058152f35b34610218576135c636613e75565b600180546040516372fa797760e11b815233600482015260209492936024936001600160a01b0393919291879083908790829088165afa9182156104275760a051926139b5575b5061361982151561413c565b8360045416876040518092634fa4a1bb60e01b8252604060048301528180613645604482018a89614505565b338c830152039160a051905af19081156104275760a05191613988575b5084875416803b156102185760405191635760f87560e11b8352846004840152878301528160448160a0519360a051905af1801561042757613972575b5083865416803b156102185760405163053a87bf60e41b815260a08051600480840187905260248401525f60448401819052606484018190526084840152905191929091839160a49183915af180156104275761395c575b5060356137409184604051958692664775696c64202760c81b8c850152602784013781016d272077617320666f756e6465642160901b6027820152036015810185520183613fc2565b6001600160401b03916040519161375683613f8c565b3383528783019081526040830190600582526060840192835260808401958542168752600e54600160401b81101561394957808a6137979201600e55613eed565b9590956139375751166001600160601b0360a01b855416178455518784015560ff6002840191511660ff1982541617905560038201905195865190848211613924576137e38354613f26565b601f81116138de575b508897601f831160011461387c57829160049697989983925f94613871575b50501b915f199060031b1c19161790555b019151166001600160401b0319825416179055600e54905f19820191821161385e57505f80516020614d1783398151915260405192600584523393a360a05180f35b634e487b7160e01b5f9081526011600452fd5b015192508b8061380b565b601f92919219821698845f528a5f20915f5b8c8c82106138ca57505083600498999a9b106138b2575b505050811b01905561381c565b01515f1960f88460031b161c191690558980806138a5565b82840151855593860193928301920161388e565b835f52895f20601f840160051c8101918b851061391a575b601f0160051c019082905b82811061390f5750506137ec565b5f8155018290613901565b90915081906138f6565b86634e487b7160e01b5f5260416004525ffd5b88634e487b7160e01b5f525f6004525ffd5b88634e487b7160e01b5f5260416004525ffd5b61396590613f5e565b60a05161021857876136f7565b61397b90613f5e565b60a051610218578761369f565b90508781813d83116139ae575b61399f8183613fc2565b8101031261045c575188613662565b503d613995565b9091508681813d83116139dd575b6139cd8183613fc2565b8101031261045c5751908761360d565b503d6139c3565b34610218576139f236613e5f565b60018060a01b038060015416604051936331a9108f60e11b80865281600487015260209260249684818981855afa80156104275760a05190613c99575b613a3d91508616331461419c565b84600254169160405190815286600482015284818981865afa80156104275760a05190613c63575b613a739150861633146141e8565b60405191633129e77360e01b835286600484015282888160a051935afa9182156104275760a05192613c45575b50838201516003811015613c2e57600203613bea576040519163dabb053160e01b835283600484015260a051838981855afa9283156104275760a05193613bcc575b50613afe61ffff918260408160608801511692015116906144ac565b9281608082015116958683861611613bc4575b60ff90820151169063ffffffff6040820151169260c08160a08401511692015116843b1561021857613b5e9160405198899788968796631da44b5560e21b885260a0519b600489016144c2565b039160a051905af1801561042757613bae575b506002541690813b1561021857604051928391632da35f4560e21b835260048301528160a0519360a051905af1801561042757610f635760a05180f35b613bb790613f5e565b60a0516102185783613b71565b869450613b11565b613be39193503d8060a051833e6108b08183613fc2565b9188613ae2565b60405162461bcd60e51b8152600481018590526019818901527f47616d654d616e616765723a206e6f74206120706f74696f6e000000000000006044820152606490fd5b87634e487b7160e01b60a05152602160045260a051fd5b613c5c9192503d8060a051833e6123988183613fc2565b9087613aa0565b508481813d8311613c92575b613c798183613fc2565b8101031261021857613c8d613a7391614188565b613a65565b503d613c6f565b508481813d8311613cc8575b613caf8183613fc2565b8101031261021857613cc3613a3d91614188565b613a2f565b503d613ca5565b3461021857604036600319011261021857602435801515809103610218576004546001600160a01b0316803b156102185760405191637166ea1560e11b8352600435600484015233602484015260448301528160648160a0519360a051905af1801561042757610f635760a05180f35b3461045c575f36600319011261045c576001546372fa797760e11b82523360048301526001600160a01b03906020908390602490829085165afa918215613e20575f92613e2b575b50613d9382151561413c565b8060045416803b1561045c575f8091602460405180948193631acd8f1560e11b83523360048401525af18015613e2057613e0d575b5060015416803b156102185760405191635760f87560e11b8352600483015260a05160248301528160448160a0519360a051905af1801561042757610f635760a05180f35b613e1690613f5e565b5f60a05282613dc8565b6040513d5f823e3d90fd5b9091506020813d602011613e57575b81613e4760209383613fc2565b8101031261045c57519082613d87565b3d9150613e3a565b604090600319011261045c576004359060243590565b90602060031983011261045c576004356001600160401b039283821161045c578060238301121561045c57816004013593841161045c576024848301011161045c576024019190565b90600b821015613ed957601c8260031c6011019260021b1690565b634e487b7160e01b5f52603260045260245ffd5b600e54811015613ed957600590600e5f52027fbb7b4a454dc3493923482f07822329ed19e8244eff582cc204f8554c3620c3fd01905f90565b90600182811c92168015613f54575b6020831014613f4057565b634e487b7160e01b5f52602260045260245ffd5b91607f1691613f35565b6001600160401b0381116103e557604052565b60c081019081106001600160401b038211176103e557604052565b60a081019081106001600160401b038211176103e557604052565b604081019081106001600160401b038211176103e557604052565b90601f801991011681019081106001600160401b038211176103e557604052565b9060405191825f8254613ff581613f26565b908184526020946001916001811690815f146140635750600114614025575b50505061402392500383613fc2565b565b5f90815285812095935091905b81831061404b57505061402393508201015f8080614014565b85548884018501529485019487945091830191614032565b9250505061402394925060ff191682840152151560051b8201015f8080614014565b5f5b8381106140965750505f910152565b8181015183820152602001614087565b906020916140bf81518092818552858086019101614085565b601f01601f1916010190565b600f54811015613ed957600f5f527f8d1108e10bcb7c27dddfc02ed9d693a074039d026cf4ea4240b40f7d581ac80201905f90565b9081518082526020808093019301915f5b82811061411f575050505090565b83516001600160a01b031685529381019392810192600101614111565b1561414357565b60405162461bcd60e51b815260206004820152601960248201527f47616d654d616e616765723a206e6f20636861726163746572000000000000006044820152606490fd5b51906001600160a01b038216820361045c57565b156141a357565b60405162461bcd60e51b815260206004820152601b60248201527f47616d654d616e616765723a206e6f742063686172206f776e657200000000006044820152606490fd5b156141ef57565b60405162461bcd60e51b815260206004820152601b60248201527f47616d654d616e616765723a206e6f74206974656d206f776e657200000000006044820152606490fd5b6001600160401b0381116103e557601f01601f191660200190565b81601f8201121561045c57805161426581614234565b926142736040519485613fc2565b8184526020828401011161045c576142919160208085019101614085565b90565b519061ffff8216820361045c57565b519060ff8216820361045c57565b51906001600160401b038216820361045c57565b60208183031261045c5780516001600160401b039182821161045c57019060c08284031261045c57604051926142fa84613f71565b825191821161045c5761430e91830161424f565b82526020810151600381101561045c576143639160a091602085015261433660408201614294565b6040850152614347606082016142a3565b6060850152614358608082016142b1565b608085015201614188565b60a082015290565b60208183031261045c5780516001600160401b039182821161045c57019061018092838382031261045c57604051938401848110838211176103e557604052825191821161045c576143be91830161424f565b82526143cc602082016142a3565b6020830152604081015163ffffffff8116810361045c5760408301526143f460608201614294565b606083015261440560808201614294565b608083015261441660a08201614294565b60a083015261442760c08201614294565b60c083015260e081015160e08301526101008082015190830152610120808201519083015261014061445a8183016142b1565b9083015261446c6101608092016142a3565b9082015290565b90600a61ffff8093160191821161189c57565b90600361ffff8093160191821161189c57565b90600261ffff8093160191821161189c57565b91909161ffff8080941691160191821161189c57565b90815260ff91909116602082015263ffffffff909116604082015261ffff9182166060820152918116608083015291821660a0820152911660c082015260e00190565b908060209392818452848401375f828201840152601f01601f1916010190565b1561452c57565b60405162461bcd60e51b815260206004820152601660248201527523b0b6b2a6b0b730b3b2b91d103737ba1037bbb732b960511b6044820152606490fd5b9190820391821161189c57565b61ffff9081165f19019190821161189c57565b61ffff918216908216039190821161189c57565b8181029291811591840414171561189c57565b9190820180921161189c57565b91909163ffffffff8080941691160191821161189c57565b60ff60019116019060ff821161189c57565b60ff1660ff811461189c5760010190565b602f61402391939293604051948161461b879351809260208087019101614085565b82016e0103932b0b1b432b2103632bb32b61608d1b60208201526146488251809360208785019101614085565b0103600f810185520183613fc2565b60015460405163dabb053160e01b815260048101929092525f90829060249082906001600160a01b03165afa8015613e20576146be915f916146d2575b5060ff610160600a6146b46001600160401b03610140860151164261456a565b04920151166145b1565b600581116146cc5760ff1690565b50600590565b6146e691503d805f833e6108b08183613fc2565b5f614694565b156146f357565b60405162461bcd60e51b815260206004820152601960248201527f47616d654d616e616765723a206e6f7420696e206775696c64000000000000006044820152606490fd5b1561473f57565b60405162461bcd60e51b815260206004820152601e60248201527f47616d654d616e616765723a20696e73756666696369656e7420676f6c6400006044820152606490fd5b6001600160401b0381116103e55760051b60200190565b8051821015613ed95760209160051b010190565b5f19811461189c5760010190565b335f52601060205260405f20805460ff8116156147d8575050565b60ff19166001179055600f54600160401b8110156103e5578060016148009201600f556140cb565b81546001600160a01b0360039290921b91821b19163390911b179055565b60ff61482982614657565b1690811561489c576001546001600160a01b0316915f190160ff811161189c57823b1561045c5760645f928360ff9560405196879586946326d1113760e21b865260048601521660248401526001600160401b03421660448401525af18015613e20576148935750565b61402390613f5e565b60405162461bcd60e51b815260206004820152601660248201527547616d654d616e616765723a206e6f20656e6572677960501b6044820152606490fd5b801561497a575f81805b61496657506148f281614234565b906149006040519283613fc2565b808252601f1961490f82614234565b013660208401375b80831561495f57801561189c575f190192600a916030838306810180911161189c578451861015613ed95760f81b6001600160f81b0319165f1a908401601f01530491614917565b5050905090565b90614972600a916147af565b9104806148e4565b5060405161498781613fa7565b60018152600360fc1b602082015290565b614023916064810660288110156149b657505f905b60081c916149f9565b604b11156149c6576001906149ad565b6002906149ad565b5f546001600160a01b031633036149e157565b60405163118cdaa760e01b8152336004820152602490fd5b91606481066032811015614cd6575060ff60015b1690816005029060ff821691820361189c578260030260ff811690810361189c57614a3960ff916145d6565b16918215614cc25761ffff92614a539260081c06906145b1565b1660038310159182614b1f5783614b915760028111614b3357604051614a7881613fa7565b600a815269125c9bdb8814dddbdc9960b21b6020820152915b6002546040516304e75a2f60e51b81526001600160a01b03978816600482015260a06024820152961692614ac99060a48801906140a6565b93614b1f5785809481935f9360209860448501526064840152608483015203925af18015613e2057614af85750565b602090813d8311614b18575b614b0e8183613fc2565b8101031261045c57565b503d614b04565b634e487b7160e01b5f52602160045260245ffd5b60048111614b6557604051614b4781613fa7565b600b81526a537465656c20426c61646560a81b602082015291614a91565b604051614b7181613fa7565b600d81526c223930b3b7b71029b630bcb2b960991b602082015291614a91565b5f925060018403614c2d5760028111614bd057604051614bb081613fa7565b600d81526c2632b0ba3432b91020b936b7b960991b602082015291614a91565b60048111614c0157604051614be481613fa7565b600a81526910da185a5b8813585a5b60b21b602082015291614a91565b604051614c0d81613fa7565b600d81526c4d79746872696c20506c61746560981b602082015291614a91565b60028111614c6057604051614c4181613fa7565b600c81526b26b4b737b9102837ba34b7b760a11b602082015291614a91565b60048111614c9557604051614c7481613fa7565b600e81526d23b932b0ba32b9102837ba34b7b760911b602082015291614a91565b604051614ca181613fa7565b600e81526d456c69786972206f66204c69666560901b602082015291614a91565b634e487b7160e01b5f52601260045260245ffd5b6050811015614ce9575060ff6002614a0d565b605d811015614cfc575060ff6003614a0d565b60631115614d0d5760ff6004614a0d565b60ff6005614a0d56fe553e77366a0b1fb41bb78bc783f96bf20304092332c1b0a7cc71eafd3a756483a2646970667358221220b14aef1231a717c24631cf0bc40a26323bce996f0b49ec80ce654343d24e96af64736f6c63430008180033",
  "linkReferences": {},
  "deployedLinkReferences": {}
}