{
  "_format": "hh-sol-artifact-1",
  "contractName": "GameManager",
  "sourceName": "contracts/GameManager.sol",
  "abi": [
    {
      "inputs": [
        {
          "internalType": "address",
          "name": "_characterNFT",
          "type": "address"
        },
        {
          "internalType": "address",
          "name": "_itemNFT",
          "type": "address"
        },
        {
          "internalType": "address",
          "name": "_goldToken",
          "type": "address"
        },
        {
          "internalType": "address",
          "name": "_guildManager",
          "type": "address"
        }
      ],
      "stateMutability": "nonpayable",
      "type": "constructor"
    },
    {
      "inputs": [
        {
          "internalType": "address",
          "name": "owner",
          "type": "address"
        }
      ],
      "name": "OwnableInvalidOwner",
      "type": "error"
    },
    {
      "inputs": [
        {
          "internalType": "address",
          "name": "account",
          "type": "address"
        }
      ],
      "name": "OwnableUnauthorizedAccount",
      "type": "error"
    },
    {
      "anonymous": false,
      "inputs": [
        {
          "indexed": true,
          "internalType": "address",
          "name": "player",
          "type": "address"
        },
        {
          "indexed": true,
          "internalType": "uint256",
          "name": "characterId",
          "type": "uint256"
        },
        {
          "indexed": false,
          "internalType": "uint32",
          "name": "xpGained",
          "type": "uint32"
        },
        {
          "indexed": false,
          "internalType": "uint256",
          "name": "goldGained",
          "type": "uint256"
        },
        {
          "indexed": false,
          "internalType": "bool",
          "name": "itemDropped",
          "type": "bool"
        }
      ],
      "name": "AdventureEvent",
      "type": "event"
    },
    {
      "anonymous": false,
      "inputs": [
        {
          "indexed": true,
          "internalType": "address",
          "name": "player",
          "type": "address"
        },
        {
          "indexed": true,
          "internalType": "uint256",
          "name": "characterId",
          "type": "uint256"
        },
        {
          "indexed": false,
          "internalType": "uint8",
          "name": "monsterType",
          "type": "uint8"
        },
        {
          "indexed": false,
          "internalType": "bool",
          "name": "victory",
          "type": "bool"
        },
        {
          "indexed": false,
          "internalType": "uint32",
          "name": "xpGained",
          "type": "uint32"
        },
        {
          "indexed": false,
          "internalType": "uint256",
          "name": "goldGained",
          "type": "uint256"
        }
      ],
      "name": "CombatEvent",
      "type": "event"
    },
    {
      "anonymous": false,
      "inputs": [
        {
          "indexed": true,
          "internalType": "address",
          "name": "player",
          "type": "address"
        },
        {
          "indexed": true,
          "internalType": "uint256",
          "name": "characterId",
          "type": "uint256"
        },
        {
          "indexed": false,
          "internalType": "uint256",
          "name": "itemId",
          "type": "uint256"
        }
      ],
      "name": "ItemEquipped",
      "type": "event"
    },
    {
      "anonymous": false,
      "inputs": [
        {
          "indexed": true,
          "internalType": "address",
          "name": "player",
          "type": "address"
        },
        {
          "indexed": true,
          "internalType": "uint256",
          "name": "characterId",
          "type": "uint256"
        },
        {
          "indexed": false,
          "internalType": "uint8",
          "name": "newLevel",
          "type": "uint8"
        }
      ],
      "name": "LevelUp",
      "type": "event"
    },
    {
      "anonymous": false,
      "inputs": [
        {
          "indexed": true,
          "internalType": "address",
          "name": "previousOwner",
          "type": "address"
        },
        {
          "indexed": true,
          "internalType": "address",
          "name": "newOwner",
          "type": "address"
        }
      ],
      "name": "OwnershipTransferred",
      "type": "event"
    },
    {
      "anonymous": false,
      "inputs": [
        {
          "indexed": true,
          "internalType": "uint256",
          "name": "eventIndex",
          "type": "uint256"
        },
        {
          "indexed": true,
          "internalType": "address",
          "name": "player",
          "type": "address"
        },
        {
          "indexed": false,
          "internalType": "uint8",
          "name": "eventType",
          "type": "uint8"
        }
      ],
      "name": "WorldEventEmitted",
      "type": "event"
    },
    {
      "inputs": [],
      "name": "ENERGY_REGEN_TIME",
      "outputs": [
        {
          "internalType": "uint256",
          "name": "",
          "type": "uint256"
        }
      ],
      "stateMutability": "view",
      "type": "function"
    },
    {
      "inputs": [],
      "name": "ITEM_COST",
      "outputs": [
        {
          "internalType": "uint256",
          "name": "",
          "type": "uint256"
        }
      ],
      "stateMutability": "view",
      "type": "function"
    },
    {
      "inputs": [],
      "name": "MAX_ENERGY",
      "outputs": [
        {
          "internalType": "uint8",
          "name": "",
          "type": "uint8"
        }
      ],
      "stateMutability": "view",
      "type": "function"
    },
    {
      "inputs": [
        {
          "internalType": "uint8",
          "name": "itemType",
          "type": "uint8"
        }
      ],
      "name": "buyItem",
      "outputs": [],
      "stateMutability": "nonpayable",
      "type": "function"
    },
    {
      "inputs": [],
      "name": "characterNFT",
      "outputs": [
        {
          "internalType": "contract CharacterNFT",
          "name": "",
          "type": "address"
        }
      ],
      "stateMutability": "view",
      "type": "function"
    },
    {
      "inputs": [
        {
          "internalType": "string",
          "name": "name",
          "type": "string"
        }
      ],
      "name": "createGuild",
      "outputs": [],
      "stateMutability": "nonpayable",
      "type": "function"
    },
    {
      "inputs": [
        {
          "internalType": "string",
          "name": "description",
          "type": "string"
        }
      ],
      "name": "createProposal",
      "outputs": [
        {
          "internalType": "uint256",
          "name": "",
          "type": "uint256"
        }
      ],
      "stateMutability": "nonpayable",
      "type": "function"
    },
    {
      "inputs": [
        {
          "internalType": "uint256",
          "name": "amount",
          "type": "uint256"
        }
      ],
      "name": "donateToGuild",
      "outputs": [],
      "stateMutability": "nonpayable",
      "type": "function"
    },
    {
      "inputs": [
        {
          "internalType": "uint256",
          "name": "charId",
          "type": "uint256"
        },
        {
          "internalType": "uint256",
          "name": "itemId",
          "type": "uint256"
        }
      ],
      "name": "equipItem",
      "outputs": [],
      "stateMutability": "nonpayable",
      "type": "function"
    },
    {
      "inputs": [
        {
          "internalType": "uint256",
          "name": "charId",
          "type": "uint256"
        }
      ],
      "name": "explore",
      "outputs": [],
      "stateMutability": "nonpayable",
      "type": "function"
    },
    {
      "inputs": [
        {
          "internalType": "uint256",
          "name": "charId",
          "type": "uint256"
        },
        {
          "internalType": "uint8",
          "name": "monsterType",
          "type": "uint8"
        }
      ],
      "name": "fightMonster",
      "outputs": [],
      "stateMutability": "nonpayable",
      "type": "function"
    },
    {
      "inputs": [],
      "name": "getAllPlayers",
      "outputs": [
        {
          "internalType": "address[]",
          "name": "",
          "type": "address[]"
        }
      ],
      "stateMutability": "view",
      "type": "function"
    },
    {
      "inputs": [
        {
          "internalType": "uint256",
          "name": "charId",
          "type": "uint256"
        }
      ],
      "name": "getAvailableEnergy",
      "outputs": [
        {
          "internalType": "uint8",
          "name": "",
          "type": "uint8"
        }
      ],
      "stateMutability": "view",
      "type": "function"
    },
    {
      "inputs": [],
      "name": "getPlayerCount",
      "outputs": [
        {
          "internalType": "uint256",
          "name": "",
          "type": "uint256"
        }
      ],
      "stateMutability": "view",
      "type": "function"
    },
    {
      "inputs": [
        {
          "internalType": "uint256",
          "name": "count",
          "type": "uint256"
        }
      ],
      "name": "getRecentWorldEvents",
      "outputs": [
        {
          "components": [
            {
              "internalType": "address",
              "name": "player",
              "type": "address"
            },
            {
              "internalType": "uint256",
              "name": "characterId",
              "type": "uint256"
            },
            {
              "internalType": "uint8",
              "name": "eventType",
              "type": "uint8"
            },
            {
              "internalType": "string",
              "name": "message",
              "type": "string"
            },
            {
              "internalType": "uint64",
              "name": "timestamp",
              "type": "uint64"
            }
          ],
          "internalType": "struct GameManager.WorldEvent[]",
          "name": "",
          "type": "tuple[]"
        }
      ],
      "stateMutability": "view",
      "type": "function"
    },
    {
      "inputs": [],
      "name": "getWorldEventsCount",
      "outputs": [
        {
          "internalType": "uint256",
          "name": "",
          "type": "uint256"
        }
      ],
      "stateMutability": "view",
      "type": "function"
    },
    {
      "inputs": [],
      "name": "goldToken",
      "outputs": [
        {
          "internalType": "contract GoldToken",
          "name": "",
          "type": "address"
        }
      ],
      "stateMutability": "view",
      "type": "function"
    },
    {
      "inputs": [],
      "name": "guildManager",
      "outputs": [
        {
          "internalType": "contract GuildManager",
          "name": "",
          "type": "address"
        }
      ],
      "stateMutability": "view",
      "type": "function"
    },
    {
      "inputs": [
        {
          "internalType": "address",
          "name": "",
          "type": "address"
        }
      ],
      "name": "isRegistered",
      "outputs": [
        {
          "internalType": "bool",
          "name": "",
          "type": "bool"
        }
      ],
      "stateMutability": "view",
      "type": "function"
    },
    {
      "inputs": [],
      "name": "itemNFT",
      "outputs": [
        {
          "internalType": "contract ItemNFT",
          "name": "",
          "type": "address"
        }
      ],
      "stateMutability": "view",
      "type": "function"
    },
    {
      "inputs": [
        {
          "internalType": "uint256",
          "name": "guildId",
          "type": "uint256"
        }
      ],
      "name": "joinGuild",
      "outputs": [],
      "stateMutability": "nonpayable",
      "type": "function"
    },
    {
      "inputs": [],
      "name": "leaderboard",
      "outputs": [
        {
          "internalType": "uint256[]",
          "name": "ids",
          "type": "uint256[]"
        },
        {
          "internalType": "string[]",
          "name": "names",
          "type": "string[]"
        },
        {
          "internalType": "uint8[]",
          "name": "levels",
          "type": "uint8[]"
        },
        {
          "internalType": "uint32[]",
          "name": "xps",
          "type": "uint32[]"
        },
        {
          "internalType": "address[]",
          "name": "owners",
          "type": "address[]"
        }
      ],
      "stateMutability": "view",
      "type": "function"
    },
    {
      "inputs": [],
      "name": "leaveGuild",
      "outputs": [],
      "stateMutability": "nonpayable",
      "type": "function"
    },
    {
      "inputs": [
        {
          "internalType": "uint256",
          "name": "",
          "type": "uint256"
        }
      ],
      "name": "monsters",
      "outputs": [
        {
          "internalType": "string",
          "name": "name",
          "type": "string"
        },
        {
          "internalType": "uint16",
          "name": "hp",
          "type": "uint16"
        },
        {
          "internalType": "uint16",
          "name": "attack",
          "type": "uint16"
        },
        {
          "internalType": "uint16",
          "name": "defense",
          "type": "uint16"
        },
        {
          "internalType": "uint32",
          "name": "xpReward",
          "type": "uint32"
        },
        {
          "internalType": "uint256",
          "name": "goldReward",
          "type": "uint256"
        }
      ],
      "stateMutability": "view",
      "type": "function"
    },
    {
      "inputs": [],
      "name": "owner",
      "outputs": [
        {
          "internalType": "address",
          "name": "",
          "type": "address"
        }
      ],
      "stateMutability": "view",
      "type": "function"
    },
    {
      "inputs": [
        {
          "internalType": "uint256",
          "name": "",
          "type": "uint256"
        }
      ],
      "name": "playerList",
      "outputs": [
        {
          "internalType": "address",
          "name": "",
          "type": "address"
        }
      ],
      "stateMutability": "view",
      "type": "function"
    },
    {
      "inputs": [],
      "name": "renounceOwnership",
      "outputs": [],
      "stateMutability": "nonpayable",
      "type": "function"
    },
    {
      "inputs": [
        {
          "internalType": "uint256",
          "name": "charId",
          "type": "uint256"
        }
      ],
      "name": "rest",
      "outputs": [],
      "stateMutability": "nonpayable",
      "type": "function"
    },
    {
      "inputs": [
        {
          "internalType": "address",
          "name": "newOwner",
          "type": "address"
        }
      ],
      "name": "transferOwnership",
      "outputs": [],
      "stateMutability": "nonpayable",
      "type": "function"
    },
    {
      "inputs": [
        {
          "internalType": "uint256",
          "name": "charId",
          "type": "uint256"
        },
        {
          "internalType": "uint256",
          "name": "itemId",
          "type": "uint256"
        }
      ],
      "name": "unequipItem",
      "outputs": [],
      "stateMutability": "nonpayable",
      "type": "function"
    },
    {
      "inputs": [
        {
          "internalType": "uint256",
          "name": "charId",
          "type": "uint256"
        },
        {
          "internalType": "uint256",
          "name": "itemId",
          "type": "uint256"
        }
      ],
      "name": "usePotion",
      "outputs": [],
      "stateMutability": "nonpayable",
      "type": "function"
    },
    {
      "inputs": [
        {
          "internalType": "uint256",
          "name": "proposalId",
          "type": "uint256"
        },
        {
          "internalType": "bool",
          "name": "support",
          "type": "bool"
        }
      ],
      "name": "voteOnProposal",
      "outputs": [],
      "stateMutability": "nonpayable",
      "type": "function"
    },
    {
      "inputs": [
        {
          "internalType": "uint256",
          "name": "",
          "type": "uint256"
        }
      ],
      "name": "worldEvents",
      "outputs": [
        {
          "internalType": "address",
          "name": "player",
          "type": "address"
        },
        {
          "internalType": "uint256",
          "name": "characterId",
          "type": "uint256"
        },
        {
          "internalType": "uint8",
          "name": "eventType",
          "type": "uint8"
        },
        {
          "internalType": "string",
          "name": "message",
          "type": "string"
        },
        {
          "internalType": "uint64",
          "name": "timestamp",
          "type": "uint64"
        }
      ],
      "stateMutability": "view",
      "type": "function"
    },
    {
      "inputs": [
        {
          "internalType": "uint256",
          "name": "",
          "type": "uint256"
        }
      ],
      "name": "xpTable",
      "outputs": [
        {
          "internalType": "uint32",
          "name": "",
          "type": "uint32"
        }
      ],
      "stateMutability": "view",
      "type": "function"
    }
  ],
  "bytecode": "0x6080346200078157601f620057a838819003918201601f19168301916001600160401b038311848410176200059e5780849260809460405283398101031262000781576200004d81620007c5565b6200005b60208301620007c5565b906200007860606200007060408601620007c5565b9401620007c5565b90331562000769575f549360018060a01b03809481809460018060a01b031998338a8216175f55823391167f8be0079c531659141344cd1fd0a4f28419497f9722a3daafe3b4186f6b6457e05f80a316876001541617600155168560025416176002551683600354161760035516906004541617600455620000f962000785565b62000103620007a5565b906005825264536c696d6560d81b6020830152818152601e6020820152600560408201526002606082015260146080820152678ac7230489e8000060a082015281519160018060401b0383116200059e57600554600181811c911680156200075e575b60208210146200057f57601f811162000717575b50602090601f8411600114620006a85760a093915f91836200069c575b50508160011b915f199060031b1c1916176005555b61ffff60208201511660065490604083015163ffff000065ffff00000000606086015160201b169269ffffffff000000000000608087015160301b169460018060501b031916179160101b1617171760065501516007556200020d62000785565b62000217620007a5565b90600682526523b7b13634b760d11b6020830152818152603c6020820152600c6040820152600560608201526032608082015268015af1d78b58c4000060a082015281519160018060401b0383116200059e57600854600181811c9116801562000691575b60208210146200057f57601f81116200062d575b50602090601f8411600114620005be5760a093915f9183620005b2575b50508160011b915f199060031b1c1916176008555b61ffff6020820151166009549063ffff0000604084015160101b1665ffff00000000606085015160201b169169ffffffff000000000000608086015160301b169360018060501b031916171717176009550151600a556200032262000785565b6200032c620007a5565b90600b82526a11185c9ac812db9a59da1d60aa1b60208301528181526078602082015260196040820152600f606082015260786080820152680340aad21b3b70000060a082015281519160018060401b0383116200059e57600b54600181811c9116801562000593575b60208210146200057f57601f811162000517575b50602090601f84116001146200048b5760a093915f91836200047f575b50508160011b915f199060031b1c191617600b555b61ffff602082015116600c549063ffff0000604084015160101b1665ffff00000000606085015160201b169169ffffffff000000000000608086015160301b169360018060501b03191617171717600c550151600d557d0960000005dc00000384000001f4000000fa000000640000000000000000601155692134000016a800000ed860018060601b03196012541617601255604051614fcd9081620007db8239f35b015190505f80620003c7565b600b5f9081527f0175b7a638427703f0dbe7bb9bbf987a2551717b34e79f33b5b1008d1fa01db9929190601f198616905b818110620004fe575091600193918660a0979410620004e5575b505050811b01600b55620003dc565b01515f1960f88460031b161c191690555f8080620004d6565b92936020600181928786015181550195019301620004bc565b600b5f527f0175b7a638427703f0dbe7bb9bbf987a2551717b34e79f33b5b1008d1fa01db9601f850160051c8101916020861062000574575b601f0160051c01905b818110620005685750620003aa565b5f815560010162000559565b909150819062000550565b634e487b7160e01b5f52602260045260245ffd5b90607f169062000396565b634e487b7160e01b5f52604160045260245ffd5b015190505f80620002ad565b9060085f5260205f20915f5b601f198616811062000614575091849160019360a096601f19811610620005fb575b505050811b01600855620002c2565b01515f1960f88460031b161c191690555f8080620005ec565b91926020600181928685015181550194019201620005ca565b60085f527ff3f7a9fe364faab93b216da50a3214154f22a0a2b415b23a84c8169e8b636ee3601f850160051c81016020861062000689575b601f830160051c820181106200067d57505062000290565b5f815560010162000665565b508062000665565b90607f16906200027c565b015190505f8062000197565b9060055f5260205f20915f5b601f1986168110620006fe575091849160019360a096601f19811610620006e5575b505050811b01600555620001ac565b01515f1960f88460031b161c191690555f8080620006d6565b91926020600181928685015181550194019201620006b4565b60055f5260205f20601f850160051c81016020861062000756575b601f830160051c820181106200074a5750506200017a565b5f815560010162000732565b508062000732565b90607f169062000166565b604051631e4fbdf760e01b81525f6004820152602490fd5b5f80fd5b6040519060c082016001600160401b038111838210176200059e57604052565b60408051919082016001600160401b038111838210176200059e57604052565b51906001600160a01b0382168203620007815756fe60c0806040526004361015610012575f80fd5b5f60a0525f3560e01c9081630d3dfa9214613d74575080631614665c14613d04578063174aa05914613a195780631c0e61dc146136385780631fdebc441461361b5780632468fc7e146135fc57806325bc22f714612669578063262a8c3b1461234357806326f92b741461231e5780632c3ce99814612300578063384d10ee146122d65780633a34544614611f5957806347846fd914611f3057806349c2a1a614611e2157806357d1f91014611df75780636457e3891461144e5780636e8eb222146111f7578063715018a61461119a57806373ea5d3214610ffc5780637df8b12314610e485780638da5cb5b14610e1d57806394002b5714610df3578063a03160be14610db6578063a983e78114610d2a578063adb2be8b14610d00578063ae6d907314610cbe578063b02177d714610ad5578063c0576b7314610a4d578063c2e5220614610a2e578063c3c5a547146109e9578063eb56b740146104b6578063ecb4da5a146102c8578063efa1c482146102295763f2fde38b14610196575f80fd5b34610223576020366003190112610223576004356001600160a01b0381811691829003610223576101c5614c01565b8115610209575f54826001600160601b0360a01b8216175f55167f8be0079c531659141344cd1fd0a4f28419497f9722a3daafe3b4186f6b6457e05f80a360a05180f35b604051631e4fbdf760e01b815260a0516004820152602490fd5b60a05180fd5b346102235760a0513660031901126102235760405180600f5491828152602080910192600f60a051527f8d1108e10bcb7c27dddfc02ed9d693a074039d026cf4ea4240b40f7d581ac8029160a051905b8282106102a8576102a48561029081890382613ff7565b604051918291602083526020830190614135565b0390f35b83546001600160a01b031686529485019460019384019390910190610279565b3461022357602080600319360112610223576004359060ff82168092036104675760028211610472576003546040516370a0823160e01b8152336004820152906001600160a01b03168282602481845afa9182156104325760a0519261043f575b506103406802b5e3af16b18800008093101561478c565b803b15610223576040519163079cc67960e41b835233600484015260248301528160448160a0519360a051905af180156104325761041c575b505f1943019043821161040457604051908101914082524260408201523360601b606082015260548152608081018181106001600160401b038211176103f05760405251902060038210156103d8576103d29133614c2c565b60a05180f35b634e487b7160e01b60a051526021600452602460a051fd5b634e487b7160e01b5f52604160045260245ffd5b634e487b7160e01b60a051526011600452602460a051fd5b61042590613f93565b60a0516102235782610379565b6040513d60a051823e3d90fd5b9091508281813d831161046b575b6104578183613ff7565b8101031261046757519084610329565b5f80fd5b503d61044d565b6064906040519062461bcd60e51b82526004820152601960248201527f47616d654d616e616765723a20696e76616c69642074797065000000000000006044820152fd5b346102235760a0513660031901126102235760015460405163ceebb28360e01b8152906001600160a01b0316602082600481845afa9182156104325760a051926109b5575b50600a8211156109af57600a915b610512836147d8565b916105206040519384613ff7565b83835261052c846147d8565b601f1901366020850137610550610542856147d8565b604051608052608051613ff7565b836080515261055e846147d8565b601f190160a0515b81811061099c575050610578846147d8565b906105866040519283613ff7565b848252610592856147d8565b601f19013660208401376105a5856147d8565b946105b36040519687613ff7565b8086526105bf816147d8565b601f19013660208801376105d2816147d8565b936105e06040519586613ff7565b818552601f196105ef836147d8565b013660208701376001810181116104045761060c600182016147d8565b6106196040519182613ff7565b60018201808252601f199061062d906147d8565b0136602083013760a0515b8381106107715750505050506040519260a0840160a085528151809152602060c0860192019060a0515b81811061075b57505050838103602085015260805151808252602082019060208160051b840101926020608051019260a051915b83831061072e57505050505083810360408501526020808351928381520192019060a0515b8181106107155750505082810360608401526020808551928381520194019060a0515b8181106106f95784806102a488878382036080850152614135565b825163ffffffff168652602095860195909201916001016106de565b825160ff168452602093840193909201916001016106bb565b909192939460208061074c600193601f1986820301875289516140db565b97019301930191939290610696565b8251845260209384019390920191600101610662565b60a05190818060015b868111156108c95750505081610795575b6001915001610638565b60016107a183856147ef565b52816107ad828b6147ef565b5260405163dabb053160e01b81526004810183905260a051816024818a5afa9081156104325763ffffffff9160409160a051916108a5575b5080516107f4856080516147ef565b52610801846080516147ef565b5060ff602082015116610814858c6147ef565b52015116610822828c6147ef565b52604051916331a9108f60e11b83526004830152602082602481895afa80156104325760a0519061086b575b6001925061085c828a6147ef565b90838060a01b0316905261078b565b506020823d60201161089d575b8161088560209383613ff7565b81010312610223576108986001926141bd565b61084e565b3d9150610878565b6108c391503d8060a051833e6108bb8183613ff7565b8101906143a0565b8d6107e5565b6108d381876147ef565b51156108e8575b6108e390614803565b61077a565b60405163dabb053160e01b81526004810182905260a051816024818d5afa9081156104325760a05191610980575b5060ff908160208201511691841680831190811561095a575b5061093c575b50506108da565b9250945091506108e363ffffffff604084969301511692908e610935565b905082148061096a575b5f61092f565b5063ffffffff8060408301511690861610610964565b61099691503d8060a051833e6108bb8183613ff7565b8e610916565b8060606020809360805101015201610566565b81610509565b9091506020813d6020116109e1575b816109d160209383613ff7565b81010312610467575190826104fb565b3d91506109c4565b34610223576020366003190112610223576004356001600160a01b038116908190036102235760a051526010602052602060ff604060a0512054166040519015158152f35b346102235760a051366003190112610223576020600f54604051908152f35b34610223576020366003190112610223576004356003811015610223576003610aa59102610a7d81600501614018565b90600681015463ffffffff600761ffff9301549160405195869560c0875260c08701906140db565b938082166020870152808260101c1660408701528160201c16606086015260301c16608084015260a08301520390f35b346102235760208060031936011261022357600e5460043580821115610cb057610b02610b09918361459f565b809261459f565b610b12816147d8565b91610b206040519384613ff7565b818352610b2c826147d8565b601f19018460a0515b828110610c745750505060a0515b828110610bf2575050506040519082820192808352815180945260408301938160408260051b86010193019160a051955b828710610b815785850386f35b909192938280600192603f19898203018552875190610bcf60a0868060a01b038451168352848401518584015260ff60408501511660408401526060908082860151928501528301906140db565b916001600160401b03608080920151169101529601920196019592919092610b74565b80610c07610c0260019385614604565b613f22565b506001600160401b03600460405192610c1f84613fc1565b858060a01b038154168452858101548a85015260ff6002820154166040850152610c4b60038201614018565b60608501520154166080820152610c6282876147ef565b52610c6d81866147ef565b5001610b43565b604051610c8081613fc1565b60a051815260a0518382015260a051604082015260608082015260a0516080820152828288010152018590610b35565b50610b0960a051809261459f565b3461022357602036600319011261022357600435600f5481101561022357610ce7602091614100565b905460405160039290921b1c6001600160a01b03168152f35b346102235760a051366003190112610223576004546040516001600160a01b039091168152602090f35b3461022357602036600319011261022357600435600e5481101561022357610d5190613f22565b5060018060a01b03815416600182015491610dac60ff600283015416916001600160401b036004610d8460038401614018565b920154169260405195869586526020860152604085015260a0606085015260a08401906140db565b9060808301520390f35b3461022357602036600319011261022357600435600b8110156102235763ffffffff610de3602092613ef3565b9190546040519260031b1c168152f35b346102235760a051366003190112610223576003546040516001600160a01b039091168152602090f35b346102235760a0513660031901126102235760a051546040516001600160a01b039091168152602090f35b34610223576020806003193601126102235760048054604051637154d7ff60e11b81523381840152929135916001600160a01b039181908590602490829086165afa9384156104325760a05194610fcd575b50610ea6841515614740565b6003546040516370a0823160e01b8152336004820152908316918082602481865afa801561043257859160a05191610f9a575b50610ee69250101561478c565b803b156102235760405163079cc67960e41b815260a0805133600484015260248301869052905191929091839160449183915af1801561043257610f84575b506004541690813b156102235760405192631f72eb3760e11b8452600484015260248301523360448301528160648160a0519360a051905af1801561043257610f6e5760a05180f35b610f7790613f93565b60a05161022357806103d2565b610f8d90613f93565b60a0516102235783610f25565b8092508391503d8311610fc6575b610fb28183613ff7565b810103126104675783610ee6915187610ed9565b503d610fa8565b9080945081813d8311610ff5575b610fe58183613ff7565b8101031261046757519284610e9a565b503d610fdb565b3461022357602036600319011261022357602460043560018060a01b039060208260015416604051948580926372fa797760e11b82523360048301525afa9283156104325760a05193611166575b50611056831515614171565b8160045416803b15610223576040519063b2137f2160e01b82528260048301523360248301528160448160a0519360a051905af1801561043257611150575b508160015416803b156102235760405191635760f87560e11b835284600484015260248301528160448160a0519360a051905af180156104325761113a575b506001541690813b1561022357604051809263053a87bf60e41b8252818061112260a051956004830160805f9193929360a08101948152600460208201528260408201528260608201520152565b039160a051905af1801561043257610f6e5760a05180f35b61114390613f93565b60a05161022357826110d4565b61115990613f93565b60a0516102235783611095565b9092506020813d602011611192575b8161118260209383613ff7565b810103126104675751918361104a565b3d9150611175565b346102235760a051366003190112610223576111b4614c01565b5f80546001600160a01b0319811682556001600160a01b03167f8be0079c531659141344cd1fd0a4f28419497f9722a3daafe3b4186f6b6457e08280a360a05180f35b3461022357602080600319360112610223576001546040516331a9108f60e11b8152600480359082018190526001600160a01b039390928416918181602481865afa80156104325760a05190611418575b61125691508516331461455a565b6040519163dabb053160e01b83528360048401528260248160a051935afa9182156104325760a051926113fa575b5061ffff93846060840151169060808401918683511611156113be576003546040516370a0823160e01b81523360048201529082168482602481845afa9182156104325760a0519261138f575b506112e7678ac7230489e800008093101561478c565b803b15610223576040519163079cc67960e41b835233600484015260248301528160448160a0519360a051905af1801561043257611379575b5060ff906001541692840151168563ffffffff6040860151169251169560c08160a0870151169501511693833b156102235786946111229160405198899788968796631da44b5560e21b885260a0519b600489016144f7565b61138290613f93565b60a0516102235786611320565b9091508481813d83116113b7575b6113a78183613ff7565b81010312610467575190886112d1565b503d61139d565b60405162461bcd60e51b8152600481018490526014602482015273047616d654d616e616765723a2066756c6c2048560641b6044820152606490fd5b6114119192503d8060a051833e6108bb8183613ff7565b9084611284565b508181813d8311611447575b61142e8183613ff7565b8101031261022357611442611256916141bd565b611248565b503d611424565b34610223576020366003190112610223576001546040516331a9108f60e11b815260048035908201526024916020908290849082906001600160a01b03165afa80156104325760a05190611dbc575b6114b291506001600160a01b0316331461455a565b6114ba6149f0565b6114c5600435614a51565b60015460405163dabb053160e01b8152600480359082015260a05190918290849082906001600160a01b03165afa9081156104325760a05191611da0575b505f194301438111611d895760405160208101914082524260408201523360601b606082015260043560748201526074815261153e81613fc1565b5190209060158206600a019283600a11611d7357600f8360081c166005019081600511611d7357670de0b6b3a7640000928284810204841483151715611d5c5761159863ffffffff871663ffffffff604084015116614611565b60ff60208301511661ffff60808401511661ffff60a0850151169261ffff60c086015116600a841080611d2f575b611a6d575b60018060a01b03600154169161ffff60608801511691833b15610223576116109060405197889687958695631da44b5560e21b875260a0519a600435600489016144f7565b039160a051905af1801561043257611a57575b506003546001600160a01b0316803b15610223576040516340c10f1960e01b815260a080513360048401528787026024840152905191929091839160449183915af1801561043257611a41575b50600f60648660101c06106119ce575b6001546001600160a01b0316803b15610223576040519063053a87bf60e41b8252600435600483015260018483015260a051604483015263ffffffff8816606483015285850260848301528160a48160a0519360a051905af18015610432576119b8575b50516117396038604051836117038295518092602080860191016140ba565b81017f206578706c6f726564207468652077696c6465726e65737300000000000000006020820152036018810184520182613ff7565b6001600160401b0360405161174d81613fc1565b33815260208101926004358452604082015f81526060830191825260808301948442168652600e54600160401b8110156119a5578060016117919201600e55613f22565b949094611993575184546001600160a01b0319166001600160a01b03919091161784555160018401555160028301805460ff191660ff929092169190911790555180516003830191848211611980576117ea8354613f5b565b601f811161193b575b50602090601f83116001146118d3576004949392915f91836118c8575b50508160011b915f199060031b1c19161790555b019151166001600160401b0319825416179055600e54905f1982019182116118b5575091600f9391606493604051905f82525f80516020614f7883398151915260203393a363ffffffff6040519616865202602085015260101c06106040820152600435907f4cccc67e32dadb987e673893cf273910b88fe0c56656e976fab09499572ebb3e60603392a360a05180f35b634e487b7160e01b5f9081526011600452fd5b015190508c80611810565b90601f19831691845f5260205f20925f5b81811061192357509160019391856004989796941061190b575b505050811b019055611824565b01515f1960f88460031b161c191690558c80806118fe565b929360206001819287860151815501950193016118e4565b835f5260205f20601f840160051c81019160208510611976575b601f0160051c01905b81811061196b57506117f3565b5f815560010161195e565b9091508190611955565b86634e487b7160e01b5f5260416004525ffd5b87634e487b7160e01b5f525f6004525ffd5b87634e487b7160e01b5f5260416004525ffd5b6119c190613f93565b60a05161022357866116e4565b6119db8560181c33614bcb565b611a3c8151611a33603f604051836119fd8295518092602080860191016140ba565b81017f20666f756e6420616e206974656d207768696c65206578706c6f72696e672100602082015203601f810184520182613ff7565b60043533614811565b611680565b611a4a90613f93565b60a0516102235786611670565b611a6090613f93565b60a0516102235786611623565b939192611a8e611a88611a82611a949361463b565b956144a8565b936144bb565b946144ce565b611aab8651611aa560ff8716614b0d565b9061464c565b60405190611ab882613fc1565b33825260043560208301526004604083015260608201526001600160401b0342166080820152600e54600160401b811015611d1c57806001611afd9201600e55613f22565b611d0a5760018060a01b038251166001600160601b0360a01b825416178155602082015160018201556002810160ff60408401511660ff1982541617905560608201518051906001600160401b038211611cf757611b5e6003840154613f5b565b601f8111611cb3575b50602090601f8311600114611c3a5792826080936004936001600160401b03965f92611c2f575b50508160011b915f199060031b1c19161760038201555b01920151166001600160401b0319825416179055600e54805f19810111611c1c57604051600481525f80516020614f78833981519152602033935f190192a360405160ff85168152600435907f5e61899597153fce5cf9104e496f413cd513c8082de3fd78f3162ae80dce70ac60203392a36115cb565b87634e487b7160e01b5f5260116004525ffd5b015190505f80611b8e565b90600384015f5260205f20915f5b601f1985168110611c9b5750836004936001600160401b039693600193608097601f19811610611c83575b505050811b016003820155611ba5565b01515f1960f88460031b161c191690555f8080611c73565b91926020600181928685015181550194019201611c48565b600384015f5260205f20601f840160051c810160208510611cf0575b601f830160051c82018110611ce5575050611b67565b5f8155600101611ccf565b5080611ccf565b8a634e487b7160e01b5f5260416004525ffd5b88634e487b7160e01b5f525f6004525ffd5b88634e487b7160e01b5f5260416004525ffd5b5063ffffffff611d46611d4186614629565b613ef3565b90549060031b1c1663ffffffff831610156115c6565b5060a08051634e487b7160e01b9052601160045251fd5b60a08051634e487b7160e01b9052601160045251fd5b82634e487b7160e01b60a05152601160045260a051fd5b611db691503d8060a051833e6108bb8183613ff7565b82611503565b506020813d602011611def575b81611dd660209383613ff7565b8101031261022357611dea6114b2916141bd565b61149d565b3d9150611dc9565b346102235760a051366003190112610223576002546040516001600160a01b039091168152602090f35b3461022357611e2f36613eaa565b60048054604051637154d7ff60e11b81523392810192909252602093906001600160a01b03168483602481845afa801561043257859360a05191611efd575b509384611e7f611ea9961515614740565b6040519586948593849363fd9d880d60e01b8552600485015260606024850152606484019161453a565b336044830152039160a051905af19081156104325760a05191611ed0575b50604051908152f35b90508181813d8311611ef6575b611ee78183613ff7565b81010312610467575182611ec7565b503d611edd565b84819592503d8311611f29575b611f148183613ff7565b81010312610467579151849290611ea9611e6e565b503d611f0a565b34610223576020366003190112610223576020611f4e6004356146aa565b60ff60405191168152f35b3461022357611f6736613e94565b6001546040516331a9108f60e11b8152600481018490526020926001600160a01b0392602492908416919085818581865afa80156104325760a051906122a0575b611fb69150851633146141d1565b60405163dabb053160e01b81526004810187905260a051818581865afa9081156104325760a05191612284575b50846002541660405190633129e77360e01b825283600483015281868160a051935afa801561043257879160a05191612260575b50018051600381101561224957612170575060e0015103905061212e578160015416803b15610223576040519163785e867160e01b835285600484015260a051908301528160448160a0519360a051905af1801561043257612118575b505b60015416803b156102235760405163053a87bf60e41b815260a0805160048301869052600360248401525f60448401819052606484018190526084840152905191929091839160a49183915af1801561043257612102575b507f553822f3475b531fa45f45841e2de9b316742a9e44f6a114ce4c7c3c9113b2c06040519160a05183523392a360a05180f35b61210b90613f93565b60a05161022357826120ce565b61212190613f93565b60a0516102235783612074565b606490836040519162461bcd60e51b83528160048401528201527f47616d654d616e616765723a20776561706f6e206e6f742065717569707065646044820152fd5b5160038110156122325760011461218b575b50505050612076565b6101000151036121ee57803b156102235760405191631b78218160e11b835285600484015260a051908301528160448160a0519360a051905af18015610432576121d8575b808080612182565b6121e190613f93565b60a05161022357836121d0565b60405162461bcd60e51b815260048101859052601f818401527f47616d654d616e616765723a2061726d6f72206e6f74206571756970706564006044820152606490fd5b84634e487b7160e01b60a05152602160045260a051fd5b85634e487b7160e01b60a05152602160045260a051fd5b61227e91503d8060a051833e6122768183613ff7565b8101906142fa565b89612017565b61229a91503d8060a051833e6108bb8183613ff7565b87611fe3565b508581813d83116122cf575b6122b68183613ff7565b81010312610223576122ca611fb6916141bd565b611fa8565b503d6122ac565b346102235760a051366003190112610223576001546040516001600160a01b039091168152602090f35b346102235760a05136600319011261022357602060405161012c8152f35b346102235760a0513660031901126102235760206040516802b5e3af16b18800008152f35b346102235761235136613e94565b6001546040516331a9108f60e11b808252600482018590526020926001600160a01b0392602492918416919085818581865afa80156104325760a05190612633575b6123a19150851633146141d1565b83600254169060405190815286600482015285818581855afa80156104325760a051906125fd575b6123d791508516331461421d565b60405190633129e77360e01b825286600483015281848160a051935afa801561043257859160a051916125e1575b5001805160038110156125ca57600214612588575160038110156125715761251d57508160015416803b1561022357846040519263785e867160e01b84528760048501528301528160448160a0519360a051905af1801561043257612507575b505b60015416803b156102235760405163053a87bf60e41b815260a0805160048301879052600360248401525f60448401819052606484018190526084840152905191929091839160a49183915af18015610432576124f1575b507f553822f3475b531fa45f45841e2de9b316742a9e44f6a114ce4c7c3c9113b2c0906040519283523392a360a05180f35b6124fa90613f93565b60a05161022357836124bf565b61251090613f93565b60a0516102235784612465565b803b15610223578460405192631b78218160e11b84528760048501528301528160448160a0519360a051905af180156104325761255b575b50612467565b61256490613f93565b60a0516102235784612555565b82634e487b7160e01b60a05152602160045260a051fd5b606483866040519162461bcd60e51b83528160048401528201527f47616d654d616e616765723a2063616e6e6f7420657175697020706f74696f6e6044820152fd5b83634e487b7160e01b60a05152602160045260a051fd5b6125f791503d8060a051833e6122768183613ff7565b88612405565b508581813d831161262c575b6126138183613ff7565b81010312610223576126276123d7916141bd565b6123c9565b503d612609565b508581813d8311612662575b6126498183613ff7565b810103126102235761265d6123a1916141bd565b612393565b503d61263f565b346102235760403660031901126102235760ff6024351660243503610467576001546040516331a9108f60e11b8152600480359082015290602090829060249082906001600160a01b03165afa80156104325760a051906135c1575b6126da91506001600160a01b0316331461455a565b600360ff60243516101561357c576126f06149f0565b6126fb600435614a51565b60015460405163dabb053160e01b8152600480359082015260a0516001600160a01b039092169181602481855afa9081156104325760a05191613560575b50600360243510156135485760405161275181613fa6565b612762600360243502600501614018565b815263ffffffff6006600360243502015461ffff8116602084015261ffff8160101c16604084015261ffff8160201c16606084015260301c1660808201526007600360243502015460a0820152435f194301116104045760405160208101905f1943014082524260408201523360601b6060820152600435607482015260ff60f81b60243560f81b166094820152607581526127fd81613fc1565b5190209161ffff60a08201511661ffff60c0830151169060e0830151806134d3575b506101008301518061345c575b50606084015161ffff9081169082168110156134525761284b916145bf565b905b604084015161ffff908116919081168211156134495761286c916145bf565b61ffff61288761288284836020890151166144e1565b6145ac565b1661ffff8316156134315761ffff6128c39316900460a05150600161ffff8216115f146134245761ffff6128bb81926145ac565b1691166145d3565b60298406605001605011610404576128e460649160298606605001906145d3565b049361ffff851161341a575b60a05160608301519091829161ffff168710156130ff5750505061292260019461ffff806060850151169116906145bf565b9063ffffffff6080840151169260a0810151946129498563ffffffff604086015116614611565b60ff60208501511661ffff60808601511661ffff60a0870151169261ffff60c088015116600a8410806130d7575b612e78575b6001546001600160a01b031691823b15610223576129b98a9260405197889687958695631da44b5560e21b875260a0519a600435600489016144f7565b039160a051905af1801561043257612e62575b506003546001600160a01b0316803b15610223576040516340c10f1960e01b815260a08051336004840152602483018a9052905191929091839160449183915af1801561043257612e4c575b50601960648260081c0610612dd1575b50612a83602a83519251926040519381612a4c8693518092602080870191016140ba565b8201690103232b332b0ba32b2160b51b6020820152612a7482518093602087850191016140ba565b0103600a810184520182613ff7565b60405190612a9082613fc1565b33825260043560208301526001604083015260608201526001600160401b0342166080820152600e54600160401b8110156103f057806001612ad59201600e55613f22565b612dbe5760018060a01b038251166001600160601b0360a01b825416178155602082015160018201556002810160ff60408401511660ff1982541617905560608201518051906001600160401b0382116103f057612b366003840154613f5b565b601f8111612d7a575b50602090601f8311600114612d015792826080936004936001600160401b03965f92612cf6575b50508160011b915f199060031b1c19161760038201555b01920151166001600160401b0319825416179055600e54905f198201918211612ce257606061ffff9291839260405190600182525f80516020614f7883398151915260203393a35b01511660030b911660030b03637fffffff8113637fffffff1982121761040457617fff90600381900b9082821315612cc45750505b6001546001600160a01b031691823b156102235763ffffffff906040519263053a87bf60e41b845260043560048501526002602485015260010b604484015216918260648301528360848301528160a48160a0519360a051905af1801561043257612cae575b506040519260ff6024351684521515602084015260408301526060820152600435907f4c74de8355b81fb1e36fd17f9ede7105c1198338475799e11354ea6a4a21a9b160803392a360a05180f35b612cb790613f93565b60a0516102235783612c60565b617fff19925090821315612cd85750612bfa565b905060010b612bfa565b634e487b7160e01b5f52601160045260245ffd5b015190508c80612b66565b90600384015f5260205f20915f5b601f1985168110612d625750836004936001600160401b039693600193608097601f19811610612d4a575b505050811b016003820155612b7d565b01515f1960f88460031b161c191690558c8080612d3a565b91926020600181928685015181550194019201612d0f565b600384015f5260205f20601f840160051c810160208510612db7575b601f830160051c82018110612dac575050612b3f565b5f8155600101612d96565b5080612d96565b634e487b7160e01b5f525f60045260245ffd5b612dde9060101c33614bcb565b612e468251611a3360358451926040519381612e048693518092602080870191016140ba565b8201740103637b7ba32b21030b71034ba32b690333937b69605d1b6020820152612e3782518093602087850191016140ba565b01036015810184520182613ff7565b86612a28565b612e5590613f93565b60a0516102235787612a18565b612e6b90613f93565b60a05161022357876129cc565b939192611a8e611a88611a82612e8d9361463b565b612e9e8851611aa560ff8716614b0d565b60405190612eab82613fc1565b33825260043560208301526004604083015260608201526001600160401b0342166080820152600e54600160401b8110156103f057806001612ef09201600e55613f22565b612dbe5760018060a01b038251166001600160601b0360a01b825416178155602082015160018201556002810160ff60408401511660ff1982541617905560608201518051906001600160401b0382116103f057612f516003840154613f5b565b601f8111613093575b50602090601f831160011461301a5792826080936004936001600160401b03965f9261300f575b50508160011b915f199060031b1c19161760038201555b01920151166001600160401b0319825416179055600e54805f19810111612ce257604051600481525f80516020614f78833981519152602033935f190192a360405160ff85168152600435907f5e61899597153fce5cf9104e496f413cd513c8082de3fd78f3162ae80dce70ac60203392a361297c565b015190505f80612f81565b90600384015f5260205f20915f5b601f198516811061307b5750836004936001600160401b039693600193608097601f19811610613063575b505050811b016003820155612f98565b01515f1960f88460031b161c191690555f8080613053565b91926020600181928685015181550194019201613028565b600384015f5260205f20601f840160051c8101602085106130d0575b601f830160051c820181106130c5575050612f5a565b5f81556001016130af565b50806130af565b5063ffffffff6130e9611d4186614629565b90549060031b1c1663ffffffff83161015612977565b9291945092945060a0519460019260ff6020840151169063ffffffff60408501511661ffff60808601511661ffff60a0870151169061ffff60c08801511692843b156102235760405195631da44b5560e21b875260043560048801526024870152604486015260016064860152608485015260a484015260c48301528160e48160a0519360a051905af1801561043257613404575b506131f66031835192519260405193816131b88693518092602080870191016140ba565b8201700103bb0b9903232b332b0ba32b210313c9607d1b60208201526131e782518093602087850191016140ba565b01036011810184520182613ff7565b6040519061320382613fc1565b33825260043560208301526002604083015260608201526001600160401b0342166080820152600e54600160401b8110156103f0578060016132489201600e55613f22565b612dbe5760018060a01b038251166001600160601b0360a01b825416178155602082015160018201556002810160ff60408401511660ff1982541617905560608201518051906001600160401b0382116103f0576132a96003840154613f5b565b601f81116133c0575b50602090601f83116001146133475792826080936004936001600160401b03965f9261333c575b50508160011b915f199060031b1c19161760038201555b01920151166001600160401b0319825416179055600e54905f198201918211612ce257606061ffff9291839260405190600282525f80516020614f7883398151915260203393a3612bc5565b015190508c806132d9565b90600384015f5260205f20915f5b601f19851681106133a85750836004936001600160401b039693600193608097601f19811610613390575b505050811b0160038201556132f0565b01515f1960f88460031b161c191690558c8080613380565b91926020600181928685015181550194019201613355565b600384015f5260205f20601f840160051c8101602085106133fd575b601f830160051c820181106133f25750506132b2565b5f81556001016133dc565b50806133dc565b61340d90613f93565b60a0516102235786613194565b61ffff94506128f0565b5061ffff8060a0516128bb565b634e487b7160e01b60a051526012600452602460a051fd5b5050600161286c565b505060019061284d565b600254604051633129e77360e01b8152600481019290925260a05190829060249082906001600160a01b03165afa60a05191816134b5575b501561282c579161ffff60406134ae9394015116906144e1565b908661282c565b6134cc9192503d8060a051833e6122768183613ff7565b9088613494565b600254604051633129e77360e01b8152600481019290925260a05190829060249082906001600160a01b03165afa60a051918161352a575b501561281f579061ffff604061352493015116906144e1565b8661281f565b6135419192503d8060a051833e6122768183613ff7565b908861350b565b634e487b7160e01b60a051526032600452602460a051fd5b61357691503d8060a051833e6108bb8183613ff7565b82612739565b60405162461bcd60e51b815260206004820152601c60248201527f47616d654d616e616765723a20696e76616c6964206d6f6e73746572000000006044820152606490fd5b506020813d6020116135f4575b816135db60209383613ff7565b81010312610223576135ef6126da916141bd565b6126c5565b3d91506135ce565b346102235760a051366003190112610223576020600e54604051908152f35b346102235760a05136600319011261022357602060405160058152f35b346102235761364636613eaa565b600180546040516372fa797760e11b815233600482015260209492936024936001600160a01b0393919291879083908790829088165afa9182156104325760a051926139ea575b50613699821515614171565b8360045416876040518092634fa4a1bb60e01b82526040600483015281806136c5604482018a8961453a565b338c830152039160a051905af19081156104325760a051916139bd575b5084875416803b156102235760405191635760f87560e11b8352846004840152878301528160448160a0519360a051905af18015610432576139a7575b5083865416803b156102235760405163053a87bf60e41b815260a08051600480840187905260248401525f60448401819052606484018190526084840152905191929091839160a49183915af1801561043257613991575b5060356137c09184604051958692664775696c64202760c81b8c850152602784013781016d272077617320666f756e6465642160901b6027820152036015810185520183613ff7565b6001600160401b0391604051916137d683613fc1565b3383528783019081526040830190600582526060840192835260808401958542168752600e54600160401b811015611d1c57808a6138179201600e55613f22565b959095611d0a5751166001600160601b0360a01b855416178455518784015560ff6002840191511660ff1982541617905560038201905195865190848211611980576138638354613f5b565b601f811161394b575b508897601f83116001146138e957829160049697989983925f946138de575b50501b915f199060031b1c19161790555b019151166001600160401b0319825416179055600e54905f1982019182116118b557505f80516020614f7883398151915260405192600584523393a360a05180f35b015192508b8061388b565b601f92919219821698845f528a5f20915f5b8c8c821061393757505083600498999a9b1061391f575b505050811b01905561389c565b01515f1960f88460031b161c19169055898080613912565b8284015185559386019392830192016138fb565b835f52895f20601f840160051c8101918b8510613987575b601f0160051c019082905b82811061397c57505061386c565b5f815501829061396e565b9091508190613963565b61399a90613f93565b60a0516102235787613777565b6139b090613f93565b60a051610223578761371f565b90508781813d83116139e3575b6139d48183613ff7565b810103126104675751886136e2565b503d6139ca565b9091508681813d8311613a12575b613a028183613ff7565b810103126104675751908761368d565b503d6139f8565b3461022357613a2736613e94565b60018060a01b038060015416604051936331a9108f60e11b80865281600487015260209260249684818981855afa80156104325760a05190613cce575b613a729150861633146141d1565b84600254169160405190815286600482015284818981865afa80156104325760a05190613c98575b613aa891508616331461421d565b60405191633129e77360e01b835286600484015282888160a051935afa9182156104325760a05192613c7a575b50838201516003811015613c6357600203613c1f576040519163dabb053160e01b835283600484015260a051838981855afa9283156104325760a05193613c01575b50613b3361ffff918260408160608801511692015116906144e1565b9281608082015116958683861611613bf9575b60ff90820151169063ffffffff6040820151169260c08160a08401511692015116843b1561022357613b939160405198899788968796631da44b5560e21b885260a0519b600489016144f7565b039160a051905af1801561043257613be3575b506002541690813b1561022357604051928391632da35f4560e21b835260048301528160a0519360a051905af1801561043257610f6e5760a05180f35b613bec90613f93565b60a0516102235783613ba6565b869450613b46565b613c189193503d8060a051833e6108bb8183613ff7565b9188613b17565b60405162461bcd60e51b8152600481018590526019818901527f47616d654d616e616765723a206e6f74206120706f74696f6e000000000000006044820152606490fd5b87634e487b7160e01b60a05152602160045260a051fd5b613c919192503d8060a051833e6122768183613ff7565b9087613ad5565b508481813d8311613cc7575b613cae8183613ff7565b8101031261022357613cc2613aa8916141bd565b613a9a565b503d613ca4565b508481813d8311613cfd575b613ce48183613ff7565b8101031261022357613cf8613a72916141bd565b613a64565b503d613cda565b3461022357604036600319011261022357602435801515809103610223576004546001600160a01b0316803b156102235760405191637166ea1560e11b8352600435600484015233602484015260448301528160648160a0519360a051905af1801561043257610f6e5760a05180f35b34610467575f366003190112610467576001546372fa797760e11b82523360048301526001600160a01b03906020908390602490829085165afa918215613e55575f92613e60575b50613dc8821515614171565b8060045416803b15610467575f8091602460405180948193631acd8f1560e11b83523360048401525af18015613e5557613e42575b5060015416803b156102235760405191635760f87560e11b8352600483015260a05160248301528160448160a0519360a051905af1801561043257610f6e5760a05180f35b613e4b90613f93565b5f60a05282613dfd565b6040513d5f823e3d90fd5b9091506020813d602011613e8c575b81613e7c60209383613ff7565b8101031261046757519082613dbc565b3d9150613e6f565b6040906003190112610467576004359060243590565b906020600319830112610467576004356001600160401b039283821161046757806023830112156104675781600401359384116104675760248483010111610467576024019190565b90600b821015613f0e57601c8260031c6011019260021b1690565b634e487b7160e01b5f52603260045260245ffd5b600e54811015613f0e57600590600e5f52027fbb7b4a454dc3493923482f07822329ed19e8244eff582cc204f8554c3620c3fd01905f90565b90600182811c92168015613f89575b6020831014613f7557565b634e487b7160e01b5f52602260045260245ffd5b91607f1691613f6a565b6001600160401b0381116103f057604052565b60c081019081106001600160401b038211176103f057604052565b60a081019081106001600160401b038211176103f057604052565b604081019081106001600160401b038211176103f057604052565b90601f801991011681019081106001600160401b038211176103f057604052565b9060405191825f825461402a81613f5b565b908184526020946001916001811690815f14614098575060011461405a575b50505061405892500383613ff7565b565b5f90815285812095935091905b81831061408057505061405893508201015f8080614049565b85548884018501529485019487945091830191614067565b9250505061405894925060ff191682840152151560051b8201015f8080614049565b5f5b8381106140cb5750505f910152565b81810151838201526020016140bc565b906020916140f4815180928185528580860191016140ba565b601f01601f1916010190565b600f54811015613f0e57600f5f527f8d1108e10bcb7c27dddfc02ed9d693a074039d026cf4ea4240b40f7d581ac80201905f90565b9081518082526020808093019301915f5b828110614154575050505090565b83516001600160a01b031685529381019392810192600101614146565b1561417857565b60405162461bcd60e51b815260206004820152601960248201527f47616d654d616e616765723a206e6f20636861726163746572000000000000006044820152606490fd5b51906001600160a01b038216820361046757565b156141d857565b60405162461bcd60e51b815260206004820152601b60248201527f47616d654d616e616765723a206e6f742063686172206f776e657200000000006044820152606490fd5b1561422457565b60405162461bcd60e51b815260206004820152601b60248201527f47616d654d616e616765723a206e6f74206974656d206f776e657200000000006044820152606490fd5b6001600160401b0381116103f057601f01601f191660200190565b81601f8201121561046757805161429a81614269565b926142a86040519485613ff7565b81845260208284010111610467576142c691602080850191016140ba565b90565b519061ffff8216820361046757565b519060ff8216820361046757565b51906001600160401b038216820361046757565b6020818303126104675780516001600160401b039182821161046757019060c082840312610467576040519261432f84613fa6565b825191821161046757614343918301614284565b825260208101516003811015610467576143989160a091602085015261436b604082016142c9565b604085015261437c606082016142d8565b606085015261438d608082016142e6565b6080850152016141bd565b60a082015290565b6020818303126104675780516001600160401b039182821161046757019061018092838382031261046757604051938401848110838211176103f0576040528251918211610467576143f3918301614284565b8252614401602082016142d8565b6020830152604081015163ffffffff81168103610467576040830152614429606082016142c9565b606083015261443a608082016142c9565b608083015261444b60a082016142c9565b60a083015261445c60c082016142c9565b60c083015260e081015160e08301526101008082015190830152610120808201519083015261014061448f8183016142e6565b908301526144a16101608092016142d8565b9082015290565b90600a61ffff80931601918211612ce257565b90600361ffff80931601918211612ce257565b90600261ffff80931601918211612ce257565b91909161ffff80809416911601918211612ce257565b90815260ff91909116602082015263ffffffff909116604082015261ffff9182166060820152918116608083015291821660a0820152911660c082015260e00190565b908060209392818452848401375f828201840152601f01601f1916010190565b1561456157565b60405162461bcd60e51b815260206004820152601660248201527523b0b6b2a6b0b730b3b2b91d103737ba1037bbb732b960511b6044820152606490fd5b91908203918211612ce257565b61ffff9081165f190191908211612ce257565b61ffff9182169082160391908211612ce257565b81810292918115918404141715612ce257565b81156145f0570690565b634e487b7160e01b5f52601260045260245ffd5b91908201809211612ce257565b91909163ffffffff80809416911601918211612ce257565b60ff60019116019060ff8211612ce257565b60ff1660ff8114612ce25760010190565b602f61405891939293604051948161466e8793518092602080870191016140ba565b82016e0103932b0b1b432b2103632bb32b61608d1b602082015261469b82518093602087850191016140ba565b0103600f810185520183613ff7565b60015460405163dabb053160e01b815260048101929092525f90829060249082906001600160a01b03165afa8015613e5557614712915f91614726575b5060ff61016061012c6147086001600160401b03610140860151164261459f565b0492015116614604565b600581116147205760ff1690565b50600590565b61473a91503d805f833e6108bb8183613ff7565b5f6146e7565b1561474757565b60405162461bcd60e51b815260206004820152601960248201527f47616d654d616e616765723a206e6f7420696e206775696c64000000000000006044820152606490fd5b1561479357565b60405162461bcd60e51b815260206004820152601e60248201527f47616d654d616e616765723a20696e73756666696369656e7420676f6c6400006044820152606490fd5b6001600160401b0381116103f05760051b60200190565b8051821015613f0e5760209160051b010190565b5f198114612ce25760010190565b92916001600160401b03916040519261482984613fc1565b60018060a01b038096169384815260209384820193845260408201600381526060830191825260808301948442168652600e5499600160401b8b10156103f05761487a60019b8c8101600e55613f22565b959095612dbe5751166001600160601b0360a01b855416178455518984015560ff6002840191511660ff19825416179055600382019051978851908482116103f0576148c68354613f5b565b601f81116149aa575b508699601f83116001146149475782916004969798999a9b83925f9461493c575b50501b915f199060031b1c19161790555b019151166001600160401b0319825416179055600e54905f198201918211612ce2575f80516020614f788339815191529060405160038152a3565b015192505f806148f0565b601f9291921982169a845f52885f20915f5b8d8110614995575083600498999a9b9c9d1061497d575b505050811b019055614901565b01515f1960f88460031b161c191690555f8080614970565b81830151845592850192918a01918a01614959565b835f52875f20601f840160051c8101918985106149e6575b601f0160051c019082905b8281106149db5750506148cf565b5f81550182906149cd565b90915081906149c2565b335f52601060205260405f20805460ff811615614a0b575050565b60ff19166001179055600f54600160401b8110156103f057806001614a339201600f55614100565b81546001600160a01b0360039290921b91821b19163390911b179055565b60ff614a5c826146aa565b16908115614acf576001546001600160a01b0316915f190160ff8111612ce257823b156104675760645f928360ff9560405196879586946326d1113760e21b865260048601521660248401526001600160401b03421660448401525af18015613e5557614ac65750565b61405890613f93565b60405162461bcd60e51b815260206004820152601660248201527547616d654d616e616765723a206e6f20656e6572677960501b6044820152606490fd5b8015614bad575f81805b614b995750614b2581614269565b90614b336040519283613ff7565b808252601f19614b4282614269565b013660208401375b808315614b92578015612ce2575f190192600a9160308383068101809111612ce2578451861015613f0e5760f81b6001600160f81b0319165f1a908401601f01530491614b4a565b5050905090565b90614ba5600a91614803565b910480614b17565b50604051614bba81613fdc565b60018152600360fc1b602082015290565b61405891606481066028811015614be957505f905b60081c91614c2c565b604b1115614bf957600190614be0565b600290614be0565b5f546001600160a01b03163303614c1457565b60405163118cdaa760e01b8152336004820152602490fd5b91606481066032811015614f3b57506001915b60ff809316918260050290848216918203612ce25760081c83600302858116908103612ce257614c88614c7b93614c828861ffff968795614629565b16856145e6565b90614604565b169060038410159586614d595784614dcb57505060028411614d6d57604051614cb081613fdc565b600a815269125c9bdb8814dddbdc9960b21b6020820152925b6002546040516304e75a2f60e51b81526001600160a01b03988916600482015260a06024820152971693614d019060a48901906140db565b95614d5957602095879586945f9486946044860152166064840152608483015203925af18015613e5557614d325750565b602090813d8311614d52575b614d488183613ff7565b8101031261046757565b503d614d3e565b634e487b7160e01b5f52602160045260245ffd5b60048411614d9f57604051614d8181613fdc565b600b81526a537465656c20426c61646560a81b602082015292614cc9565b604051614dab81613fdc565b600d81526c223930b3b7b71029b630bcb2b960991b602082015292614cc9565b5f96509060018503614e6a57505060028411614e0d57604051614ded81613fdc565b600d81526c2632b0ba3432b91020b936b7b960991b602082015292614cc9565b60048411614e3e57604051614e2181613fdc565b600a81526910da185a5b8813585a5b60b21b602082015292614cc9565b604051614e4a81613fdc565b600d81526c4d79746872696c20506c61746560981b602082015292614cc9565b9093915060028511614ed957604051614e8281613fdc565b600c81526b26b4b737b9102837ba34b7b760a11b6020820152935b85601402818116908103612ce25786600a02828116908103612ce2578593614ed293614ecb614c8293614629565b16906145e6565b1690614cc9565b60048511614f0e57604051614eed81613fdc565b600e81526d23b932b0ba32b9102837ba34b7b760911b602082015293614e9d565b604051614f1a81613fdc565b600e81526d456c69786972206f66204c69666560901b602082015293614e9d565b6050811015614f4d5750600291614c3f565b605d811015614f5f5750600391614c3f565b60631115614f6f57600491614c3f565b600591614c3f56fe553e77366a0b1fb41bb78bc783f96bf20304092332c1b0a7cc71eafd3a756483a264697066735822122009509c4d1a9d391783ef9c7af703d7f31e0f2839dddc98738e54c989688c05c564736f6c63430008180033",
  "linkReferences": {},
  "deployedLinkReferences": {}
}