{
  "_format": "hh-sol-artifact-1",
  "contractName": "GoldToken",
  "sourceName": "contracts/GoldToken.sol",
  "abi": [
    {
      "inputs": [],
      "stateMutability": "nonpayable",
      "type": "constructor"
    },
    {
      "inputs": [
        {
          "internalType": "address",
          "name": "spender",
          "type": "address"
        },
        {
          "internalType": "uint256",
          "name": "allowance",
          "type": "uint256"
        },
        {
          "internalType": "uint256",
          "name": "needed",
          "type": "uint256"
        }
      ],
      "name": "ERC20InsufficientAllowance",
      "type": "error"
    },
    {
      "inputs": [
        {
          "internalType": "address",
          "name": "sender",
          "type": "address"
        },
        {
          "internalType": "uint256",
          "name": "balance",
          "type": "uint256"
        },
        {
          "internalType": "uint256",
          "name": "needed",
          "type": "uint256"
        }
      ],
      "name": "ERC20InsufficientBalance",
      "type": "error"
    },
    {
      "inputs": [
        {
          "internalType": "address",
          "name": "approver",
          "type": "address"
        }
      ],
      "name": "ERC20InvalidApprover",
      "type": "error"
    },
    {
      "inputs": [
        {
          "internalType": "address",
          "name": "receiver",
          "type": "address"
        }
      ],
      "name": "ERC20InvalidReceiver",
      "type": "error"
    },
    {
      "inputs": [
        {
          "internalType": "address",
          "name": "sender",
          "type": "address"
        }
      ],
      "name": "ERC20InvalidSender",
      "type": "error"
    },
    {
      "inputs": [
        {
          "internalType": "address",
          "name": "spender",
          "type": "address"
        }
      ],
      "name": "ERC20InvalidSpender",
      "type": "error"
    },
    {
      "inputs": [
        {
          "internalType": "address",
          "name": "owner",
          "type": "address"
        }
      ],
      "name": "OwnableInvalidOwner",
      "type": "error"
    },
    {
      "inputs": [
        {
          "internalType": "address",
          "name": "account",
          "type": "address"
        }
      ],
      "name": "OwnableUnauthorizedAccount",
      "type": "error"
    },
    {
      "anonymous": false,
      "inputs": [
        {
          "indexed": true,
          "internalType": "address",
          "name": "owner",
          "type": "address"
        },
        {
          "indexed": true,
          "internalType": "address",
          "name": "spender",
          "type": "address"
        },
        {
          "indexed": false,
          "internalType": "uint256",
          "name": "value",
          "type": "uint256"
        }
      ],
      "name": "Approval",
      "type": "event"
    },
    {
      "anonymous": false,
      "inputs": [
        {
          "indexed": true,
          "internalType": "address",
          "name": "addr",
          "type": "address"
        },
        {
          "indexed": false,
          "internalType": "bool",
          "name": "status",
          "type": "bool"
        }
      ],
      "name": "AuthorizedUpdated",
      "type": "event"
    },
    {
      "anonymous": false,
      "inputs": [
        {
          "indexed": true,
          "internalType": "address",
          "name": "oldMinter",
          "type": "address"
        },
        {
          "indexed": true,
          "internalType": "address",
          "name": "newMinter",
          "type": "address"
        }
      ],
      "name": "MinterUpdated",
      "type": "event"
    },
    {
      "anonymous": false,
      "inputs": [
        {
          "indexed": true,
          "internalType": "address",
          "name": "previousOwner",
          "type": "address"
        },
        {
          "indexed": true,
          "internalType": "address",
          "name": "newOwner",
          "type": "address"
        }
      ],
      "name": "OwnershipTransferred",
      "type": "event"
    },
    {
      "anonymous": false,
      "inputs": [
        {
          "indexed": true,
          "internalType": "address",
          "name": "from",
          "type": "address"
        },
        {
          "indexed": true,
          "internalType": "address",
          "name": "to",
          "type": "address"
        },
        {
          "indexed": false,
          "internalType": "uint256",
          "name": "value",
          "type": "uint256"
        }
      ],
      "name": "Transfer",
      "type": "event"
    },
    {
      "inputs": [
        {
          "internalType": "address",
          "name": "owner",
          "type": "address"
        },
        {
          "internalType": "address",
          "name": "spender",
          "type": "address"
        }
      ],
      "name": "allowance",
      "outputs": [
        {
          "internalType": "uint256",
          "name": "",
          "type": "uint256"
        }
      ],
      "stateMutability": "view",
      "type": "function"
    },
    {
      "inputs": [
        {
          "internalType": "address",
          "name": "spender",
          "type": "address"
        },
        {
          "internalType": "uint256",
          "name": "value",
          "type": "uint256"
        }
      ],
      "name": "approve",
      "outputs": [
        {
          "internalType": "bool",
          "name": "",
          "type": "bool"
        }
      ],
      "stateMutability": "nonpayable",
      "type": "function"
    },
    {
      "inputs": [
        {
          "internalType": "address",
          "name": "",
          "type": "address"
        }
      ],
      "name": "authorized",
      "outputs": [
        {
          "internalType": "bool",
          "name": "",
          "type": "bool"
        }
      ],
      "stateMutability": "view",
      "type": "function"
    },
    {
      "inputs": [
        {
          "internalType": "address",
          "name": "account",
          "type": "address"
        }
      ],
      "name": "balanceOf",
      "outputs": [
        {
          "internalType": "uint256",
          "name": "",
          "type": "uint256"
        }
      ],
      "stateMutability": "view",
      "type": "function"
    },
    {
      "inputs": [
        {
          "internalType": "address",
          "name": "from",
          "type": "address"
        },
        {
          "internalType": "uint256",
          "name": "amount",
          "type": "uint256"
        }
      ],
      "name": "burnFrom",
      "outputs": [],
      "stateMutability": "nonpayable",
      "type": "function"
    },
    {
      "inputs": [],
      "name": "decimals",
      "outputs": [
        {
          "internalType": "uint8",
          "name": "",
          "type": "uint8"
        }
      ],
      "stateMutability": "view",
      "type": "function"
    },
    {
      "inputs": [
        {
          "internalType": "address",
          "name": "to",
          "type": "address"
        },
        {
          "internalType": "uint256",
          "name": "amount",
          "type": "uint256"
        }
      ],
      "name": "mint",
      "outputs": [],
      "stateMutability": "nonpayable",
      "type": "function"
    },
    {
      "inputs": [],
      "name": "minter",
      "outputs": [
        {
          "internalType": "address",
          "name": "",
          "type": "address"
        }
      ],
      "stateMutability": "view",
      "type": "function"
    },
    {
      "inputs": [],
      "name": "name",
      "outputs": [
        {
          "internalType": "string",
          "name": "",
          "type": "string"
        }
      ],
      "stateMutability": "view",
      "type": "function"
    },
    {
      "inputs": [],
      "name": "owner",
      "outputs": [
        {
          "internalType": "address",
          "name": "",
          "type": "address"
        }
      ],
      "stateMutability": "view",
      "type": "function"
    },
    {
      "inputs": [],
      "name": "renounceOwnership",
      "outputs": [],
      "stateMutability": "nonpayable",
      "type": "function"
    },
    {
      "inputs": [
        {
          "internalType": "address",
          "name": "_addr",
          "type": "address"
        },
        {
          "internalType": "bool",
          "name": "_status",
          "type": "bool"
        }
      ],
      "name": "setAuthorized",
      "outputs": [],
      "stateMutability": "nonpayable",
      "type": "function"
    },
    {
      "inputs": [
        {
          "internalType": "address",
          "name": "_minter",
          "type": "address"
        }
      ],
      "name": "setMinter",
      "outputs": [],
      "stateMutability": "nonpayable",
      "type": "function"
    },
    {
      "inputs": [],
      "name": "symbol",
      "outputs": [
        {
          "internalType": "string",
          "name": "",
          "type": "string"
        }
      ],
      "stateMutability": "view",
      "type": "function"
    },
    {
      "inputs": [],
      "name": "totalSupply",
      "outputs": [
        {
          "internalType": "uint256",
          "name": "",
          "type": "uint256"
        }
      ],
      "stateMutability": "view",
      "type": "function"
    },
    {
      "inputs": [
        {
          "internalType": "address",
          "name": "to",
          "type": "address"
        },
        {
          "internalType": "uint256",
          "name": "value",
          "type": "uint256"
        }
      ],
      "name": "transfer",
      "outputs": [
        {
          "internalType": "bool",
          "name": "",
          "type": "bool"
        }
      ],
      "stateMutability": "nonpayable",
      "type": "function"
    },
    {
      "inputs": [
        {
          "internalType": "address",
          "name": "from",
          "type": "address"
        },
        {
          "internalType": "address",
          "name": "to",
          "type": "address"
        },
        {
          "internalType": "uint256",
          "name": "value",
          "type": "uint256"
        }
      ],
      "name": "transferFrom",
      "outputs": [
        {
          "internalType": "bool",
          "name": "",
          "type": "bool"
        }
      ],
      "stateMutability": "nonpayable",
      "type": "function"
    },
    {
      "inputs": [
        {
          "internalType": "address",
          "name": "newOwner",
          "type": "address"
        }
      ],
      "name": "transferOwnership",
      "outputs": [],
      "stateMutability": "nonpayable",
      "type": "function"
    }
  ],
  "bytecode": "0x60803462000361576040906001600160401b0390808301828111828210176200026c578352601081526020916f115d1a195c9499585b1b5cc811dbdb1960821b838301528351848101818110838211176200026c5785526006815265115491d3d31160d21b8482015282518281116200026c576003918254916001958684811c9416801562000356575b8885101462000342578190601f94858111620002ef575b5088908583116001146200028c575f9262000280575b50505f1982861b1c191690861b1783555b80519384116200026c5760049586548681811c9116801562000261575b828210146200024e5783811162000206575b50809285116001146200019c57509383949184925f9562000190575b50501b925f19911b1c19161781555b33156200017b575060058054336001600160a01b0319821681179092559151916001600160a01b03167f8be0079c531659141344cd1fd0a4f28419497f9722a3daafe3b4186f6b6457e05f80a3610bf29081620003668239f35b5f6024925191631e4fbdf760e01b8352820152fd5b015193505f8062000112565b92919084601f198116885f52855f20955f905b89838310620001eb5750505010620001d1575b50505050811b01815562000121565b01519060f8845f19921b161c191690555f808080620001c2565b858701518955909701969485019488935090810190620001af565b875f52815f208480880160051c82019284891062000244575b0160051c019087905b82811062000238575050620000f6565b5f815501879062000228565b925081926200021f565b602288634e487b7160e01b5f525260245ffd5b90607f1690620000e4565b634e487b7160e01b5f52604160045260245ffd5b015190505f80620000b6565b90889350601f19831691875f528a5f20925f5b8c828210620002d85750508411620002c0575b505050811b018355620000c7565b01515f1983881b60f8161c191690555f8080620002b2565b8385015186558c979095019493840193016200029f565b909150855f52885f208580850160051c8201928b861062000338575b918a91869594930160051c01915b82811062000329575050620000a0565b5f81558594508a910162000319565b925081926200030b565b634e487b7160e01b5f52602260045260245ffd5b93607f169362000089565b5f80fdfe60806040818152600480361015610014575f80fd5b5f3560e01c92836306fdde03146108c757508263075461721461089f578263095ea7b3146107f757826318160ddd146107d957826323b872dd146106e9578263313ce567146106ce57826340c10f19146105fa57826370a08231146105c4578263711bf9b21461053d578263715018a6146104e257826379cc6790146103e65782638da5cb5b146103be57826395d89b411461029f578263a9059cbb1461026f578263b918161114610233578263dd62ed3e146101ea578263f2fde38b1461015d57505063fca3b5aa146100e6575f80fd5b34610159576020366003190112610159576100ff6109e6565b610107610b90565b6001600160a01b039081169061011e821515610a6a565b816006549182167f1cf2de25c5bf439ac0287061c3a0fa69b3b02867d0ccfd2ded34e42577050b735f80a36001600160a01b03191617600655005b5f80fd5b34610159576020366003190112610159576101766109e6565b9061017f610b90565b6001600160a01b039182169283156101d4575050600554826bffffffffffffffffffffffff60a01b821617600555167f8be0079c531659141344cd1fd0a4f28419497f9722a3daafe3b4186f6b6457e05f80a3005b905f6024925191631e4fbdf760e01b8352820152fd5b50346101595780600319360112610159576020906102066109e6565b61020e6109fc565b9060018060a01b038091165f5260018452825f2091165f528252805f20549051908152f35b5034610159576020366003190112610159576020906001600160a01b036102586109e6565b165f526007825260ff815f20541690519015158152f35b503461015957806003193601126101595760209061029861028e6109e6565b6024359033610ab6565b5160018152f35b9034610159575f366003190112610159578051905f835460018160011c90600183169283156103b4575b60209384841081146103a1578388529081156103855750600114610331575b505050829003601f01601f191682019267ffffffffffffffff84118385101761031e575082918261031a92528261099f565b0390f35b604190634e487b7160e01b5f525260245ffd5b5f878152929350837f8a35acfbc15ff81a39ae7d344fd709f28e8600b4aa8c65c6b64bfe7fe36bd19b5b83851061037157505050508301018480806102e8565b80548886018301529301928490820161035b565b60ff1916878501525050151560051b84010190508480806102e8565b602289634e487b7160e01b5f525260245ffd5b91607f16916102c9565b5034610159575f3660031901126101595760055490516001600160a01b039091168152602090f35b90346101595780600319360112610159576103ff6109e6565b906024359260018060a01b038060065416331480156104cb575b61042290610a12565b83169283156104b557835f525f602052825f205491858310610481575f857fddf252ad1be2c89b69c2b068fc378daa952ba7f163c4a11628f55a4df523b3ef6020898881898688528785520381872055816002540360025551908152a3005b835163391434e360e21b81526001600160a01b03909216908201908152602081018390526040810186905281906060010390fd5b505f6024925191634b637e8f60e11b8352820152fd5b50335f90815260076020528390205460ff16610419565b34610159575f366003190112610159576104fa610b90565b600580546001600160a01b031981169091555f906001600160a01b03167f8be0079c531659141344cd1fd0a4f28419497f9722a3daafe3b4186f6b6457e08280a3005b50346101595780600319360112610159576105566109e6565b60243590811515809203610159577f4baf71ac1b8b1858d7ab3d2f65eceedce776ac368d0e05e8f9e9f0bf7ea64e4f91602091610591610b90565b6001600160a01b0316936105a6851515610a6a565b845f5260078352805f2060ff1981541660ff841617905551908152a2005b5034610159576020366003190112610159576020906001600160a01b036105e96109e6565b165f525f8252805f20549051908152f35b90346101595780600319360112610159576106136109e6565b60065460243592916001600160a01b03918216331480156106b7575b61063890610a12565b169283156106a2576002549083820180921161068f57505f927fddf252ad1be2c89b69c2b068fc378daa952ba7f163c4a11628f55a4df523b3ef9260209260025585855284835280852082815401905551908152a3005b601190634e487b7160e01b5f525260245ffd5b5f602492519163ec442f0560e01b8352820152fd5b50335f90815260076020528390205460ff1661062f565b5034610159575f366003190112610159576020905160128152f35b34610159576060366003190112610159576107026109e6565b61070a6109fc565b906044359260018060a01b038216805f526001602052855f20335f52602052855f2054915f198310610745575b602087610298888888610ab6565b8583106107ad57811561079757331561078157505f90815260016020908152868220338352815290869020918590039091558290610298610737565b6024905f885191634a1406b160e11b8352820152fd5b6024905f88519163e602df0560e01b8352820152fd5b8651637dc7a0d960e11b8152339181019182526020820193909352604081018690528291506060010390fd5b5034610159575f366003190112610159576020906002549051908152f35b90346101595780600319360112610159576108106109e6565b602435903315610889576001600160a01b03169081156108735760209350335f5260018452825f20825f52845280835f205582519081527f8c5be1e5ebec7d5bd14f71427d1e84f3dd0314c0f7b2291e5b200ac8c7c3b925843392a35160018152f35b8251634a1406b160e11b81525f81860152602490fd5b825163e602df0560e01b81525f81860152602490fd5b5034610159575f3660031901126101595760065490516001600160a01b039091168152602090f35b8234610159575f366003190112610159575f60035460018160011c9060018316928315610995575b60209384841081146103a157838852908115610385575060011461093f57505050829003601f01601f191682019267ffffffffffffffff84118385101761031e575082918261031a92528261099f565b60035f908152929350837fc2575a0e9e593c00f959f8c92f12db2869c3395a3b0502d05e2516446f71f85b5b83851061098157505050508301018480806102e8565b80548886018301529301928490820161096b565b91607f16916108ef565b602080825282518183018190529093925f5b8281106109d257505060409293505f838284010152601f8019910116010190565b8181018601518482016040015285016109b1565b600435906001600160a01b038216820361015957565b602435906001600160a01b038216820361015957565b15610a1957565b60405162461bcd60e51b815260206004820152602360248201527f476f6c64546f6b656e3a2063616c6c6572206973206e6f7420617574686f72696044820152621e995960ea1b6064820152608490fd5b15610a7157565b60405162461bcd60e51b815260206004820152601760248201527f476f6c64546f6b656e3a207a65726f20616464726573730000000000000000006044820152606490fd5b916001600160a01b03808416928315610b785716928315610b6057825f525f60205260405f205490828210610b2e5750817fddf252ad1be2c89b69c2b068fc378daa952ba7f163c4a11628f55a4df523b3ef92602092855f525f84520360405f2055845f5260405f20818154019055604051908152a3565b60405163391434e360e21b81526001600160a01b03919091166004820152602481019190915260448101829052606490fd5b60405163ec442f0560e01b81525f6004820152602490fd5b604051634b637e8f60e11b81525f6004820152602490fd5b6005546001600160a01b03163303610ba457565b60405163118cdaa760e01b8152336004820152602490fdfea26469706673582212200b185aa0e5c3942741e6adec368fcd576e1fe47707947dc1554f22daf04fcbca64736f6c63430008180033",
  "linkReferences": {},
  "deployedLinkReferences": {}
}