{
  "_format": "hh-sol-artifact-1",
  "contractName": "GuildManager",
  "sourceName": "contracts/GuildManager.sol",
  "abi": [
    {
      "inputs": [],
      "stateMutability": "nonpayable",
      "type": "constructor"
    },
    {
      "inputs": [
        {
          "internalType": "address",
          "name": "owner",
          "type": "address"
        }
      ],
      "name": "OwnableInvalidOwner",
      "type": "error"
    },
    {
      "inputs": [
        {
          "internalType": "address",
          "name": "account",
          "type": "address"
        }
      ],
      "name": "OwnableUnauthorizedAccount",
      "type": "error"
    },
    {
      "anonymous": false,
      "inputs": [
        {
          "indexed": true,
          "internalType": "uint256",
          "name": "guildId",
          "type": "uint256"
        },
        {
          "indexed": false,
          "internalType": "string",
          "name": "name",
          "type": "string"
        },
        {
          "indexed": true,
          "internalType": "address",
          "name": "leader",
          "type": "address"
        }
      ],
      "name": "GuildCreated",
      "type": "event"
    },
    {
      "anonymous": false,
      "inputs": [
        {
          "indexed": true,
          "internalType": "uint256",
          "name": "guildId",
          "type": "uint256"
        },
        {
          "indexed": true,
          "internalType": "address",
          "name": "member",
          "type": "address"
        }
      ],
      "name": "MemberJoined",
      "type": "event"
    },
    {
      "anonymous": false,
      "inputs": [
        {
          "indexed": true,
          "internalType": "uint256",
          "name": "guildId",
          "type": "uint256"
        },
        {
          "indexed": true,
          "internalType": "address",
          "name": "member",
          "type": "address"
        }
      ],
      "name": "MemberLeft",
      "type": "event"
    },
    {
      "anonymous": false,
      "inputs": [
        {
          "indexed": true,
          "internalType": "address",
          "name": "previousOwner",
          "type": "address"
        },
        {
          "indexed": true,
          "internalType": "address",
          "name": "newOwner",
          "type": "address"
        }
      ],
      "name": "OwnershipTransferred",
      "type": "event"
    },
    {
      "anonymous": false,
      "inputs": [
        {
          "indexed": true,
          "internalType": "uint256",
          "name": "proposalId",
          "type": "uint256"
        },
        {
          "indexed": true,
          "internalType": "uint256",
          "name": "guildId",
          "type": "uint256"
        },
        {
          "indexed": false,
          "internalType": "string",
          "name": "description",
          "type": "string"
        }
      ],
      "name": "ProposalCreated",
      "type": "event"
    },
    {
      "anonymous": false,
      "inputs": [
        {
          "indexed": true,
          "internalType": "uint256",
          "name": "guildId",
          "type": "uint256"
        },
        {
          "indexed": true,
          "internalType": "address",
          "name": "donor",
          "type": "address"
        },
        {
          "indexed": false,
          "internalType": "uint256",
          "name": "amount",
          "type": "uint256"
        }
      ],
      "name": "TreasuryDonation",
      "type": "event"
    },
    {
      "anonymous": false,
      "inputs": [
        {
          "indexed": true,
          "internalType": "uint256",
          "name": "proposalId",
          "type": "uint256"
        },
        {
          "indexed": true,
          "internalType": "address",
          "name": "voter",
          "type": "address"
        },
        {
          "indexed": false,
          "internalType": "bool",
          "name": "support",
          "type": "bool"
        }
      ],
      "name": "Voted",
      "type": "event"
    },
    {
      "inputs": [
        {
          "internalType": "string",
          "name": "_name",
          "type": "string"
        },
        {
          "internalType": "address",
          "name": "creator",
          "type": "address"
        }
      ],
      "name": "createGuild",
      "outputs": [
        {
          "internalType": "uint256",
          "name": "",
          "type": "uint256"
        }
      ],
      "stateMutability": "nonpayable",
      "type": "function"
    },
    {
      "inputs": [
        {
          "internalType": "uint256",
          "name": "guildId",
          "type": "uint256"
        },
        {
          "internalType": "string",
          "name": "description",
          "type": "string"
        },
        {
          "internalType": "address",
          "name": "proposer",
          "type": "address"
        }
      ],
      "name": "createProposal",
      "outputs": [
        {
          "internalType": "uint256",
          "name": "",
          "type": "uint256"
        }
      ],
      "stateMutability": "nonpayable",
      "type": "function"
    },
    {
      "inputs": [
        {
          "internalType": "uint256",
          "name": "guildId",
          "type": "uint256"
        },
        {
          "internalType": "uint256",
          "name": "amount",
          "type": "uint256"
        },
        {
          "internalType": "address",
          "name": "donor",
          "type": "address"
        }
      ],
      "name": "donateToTreasury",
      "outputs": [],
      "stateMutability": "nonpayable",
      "type": "function"
    },
    {
      "inputs": [],
      "name": "gameManager",
      "outputs": [
        {
          "internalType": "address",
          "name": "",
          "type": "address"
        }
      ],
      "stateMutability": "view",
      "type": "function"
    },
    {
      "inputs": [
        {
          "internalType": "uint256",
          "name": "guildId",
          "type": "uint256"
        }
      ],
      "name": "getGuild",
      "outputs": [
        {
          "components": [
            {
              "internalType": "string",
              "name": "name",
              "type": "string"
            },
            {
              "internalType": "address",
              "name": "leader",
              "type": "address"
            },
            {
              "internalType": "uint256",
              "name": "treasury",
              "type": "uint256"
            },
            {
              "internalType": "uint256",
              "name": "memberCount",
              "type": "uint256"
            },
            {
              "internalType": "uint64",
              "name": "createdAt",
              "type": "uint64"
            },
            {
              "internalType": "bool",
              "name": "active",
              "type": "bool"
            }
          ],
          "internalType": "struct GuildManager.Guild",
          "name": "",
          "type": "tuple"
        }
      ],
      "stateMutability": "view",
      "type": "function"
    },
    {
      "inputs": [
        {
          "internalType": "uint256",
          "name": "proposalId",
          "type": "uint256"
        }
      ],
      "name": "getProposal",
      "outputs": [
        {
          "components": [
            {
              "internalType": "uint256",
              "name": "guildId",
              "type": "uint256"
            },
            {
              "internalType": "string",
              "name": "description",
              "type": "string"
            },
            {
              "internalType": "address",
              "name": "proposer",
              "type": "address"
            },
            {
              "internalType": "uint256",
              "name": "votesFor",
              "type": "uint256"
            },
            {
              "internalType": "uint256",
              "name": "votesAgainst",
              "type": "uint256"
            },
            {
              "internalType": "uint64",
              "name": "deadline",
              "type": "uint64"
            },
            {
              "internalType": "bool",
              "name": "executed",
              "type": "bool"
            }
          ],
          "internalType": "struct GuildManager.Proposal",
          "name": "",
          "type": "tuple"
        }
      ],
      "stateMutability": "view",
      "type": "function"
    },
    {
      "inputs": [
        {
          "internalType": "uint256",
          "name": "",
          "type": "uint256"
        },
        {
          "internalType": "address",
          "name": "",
          "type": "address"
        }
      ],
      "name": "guildMembers",
      "outputs": [
        {
          "internalType": "bool",
          "name": "",
          "type": "bool"
        }
      ],
      "stateMutability": "view",
      "type": "function"
    },
    {
      "inputs": [
        {
          "internalType": "uint256",
          "name": "",
          "type": "uint256"
        }
      ],
      "name": "guilds",
      "outputs": [
        {
          "internalType": "string",
          "name": "name",
          "type": "string"
        },
        {
          "internalType": "address",
          "name": "leader",
          "type": "address"
        },
        {
          "internalType": "uint256",
          "name": "treasury",
          "type": "uint256"
        },
        {
          "internalType": "uint256",
          "name": "memberCount",
          "type": "uint256"
        },
        {
          "internalType": "uint64",
          "name": "createdAt",
          "type": "uint64"
        },
        {
          "internalType": "bool",
          "name": "active",
          "type": "bool"
        }
      ],
      "stateMutability": "view",
      "type": "function"
    },
    {
      "inputs": [
        {
          "internalType": "uint256",
          "name": "",
          "type": "uint256"
        },
        {
          "internalType": "address",
          "name": "",
          "type": "address"
        }
      ],
      "name": "hasVoted",
      "outputs": [
        {
          "internalType": "bool",
          "name": "",
          "type": "bool"
        }
      ],
      "stateMutability": "view",
      "type": "function"
    },
    {
      "inputs": [
        {
          "internalType": "uint256",
          "name": "guildId",
          "type": "uint256"
        },
        {
          "internalType": "address",
          "name": "player",
          "type": "address"
        }
      ],
      "name": "isGuildMember",
      "outputs": [
        {
          "internalType": "bool",
          "name": "",
          "type": "bool"
        }
      ],
      "stateMutability": "view",
      "type": "function"
    },
    {
      "inputs": [
        {
          "internalType": "uint256",
          "name": "guildId",
          "type": "uint256"
        },
        {
          "internalType": "address",
          "name": "player",
          "type": "address"
        }
      ],
      "name": "joinGuild",
      "outputs": [],
      "stateMutability": "nonpayable",
      "type": "function"
    },
    {
      "inputs": [
        {
          "internalType": "address",
          "name": "player",
          "type": "address"
        }
      ],
      "name": "leaveGuild",
      "outputs": [],
      "stateMutability": "nonpayable",
      "type": "function"
    },
    {
      "inputs": [],
      "name": "nextGuildId",
      "outputs": [
        {
          "internalType": "uint256",
          "name": "",
          "type": "uint256"
        }
      ],
      "stateMutability": "view",
      "type": "function"
    },
    {
      "inputs": [],
      "name": "nextProposalId",
      "outputs": [
        {
          "internalType": "uint256",
          "name": "",
          "type": "uint256"
        }
      ],
      "stateMutability": "view",
      "type": "function"
    },
    {
      "inputs": [],
      "name": "owner",
      "outputs": [
        {
          "internalType": "address",
          "name": "",
          "type": "address"
        }
      ],
      "stateMutability": "view",
      "type": "function"
    },
    {
      "inputs": [
        {
          "internalType": "address",
          "name": "",
          "type": "address"
        }
      ],
      "name": "playerGuild",
      "outputs": [
        {
          "internalType": "uint256",
          "name": "",
          "type": "uint256"
        }
      ],
      "stateMutability": "view",
      "type": "function"
    },
    {
      "inputs": [
        {
          "internalType": "uint256",
          "name": "",
          "type": "uint256"
        }
      ],
      "name": "proposals",
      "outputs": [
        {
          "internalType": "uint256",
          "name": "guildId",
          "type": "uint256"
        },
        {
          "internalType": "string",
          "name": "description",
          "type": "string"
        },
        {
          "internalType": "address",
          "name": "proposer",
          "type": "address"
        },
        {
          "internalType": "uint256",
          "name": "votesFor",
          "type": "uint256"
        },
        {
          "internalType": "uint256",
          "name": "votesAgainst",
          "type": "uint256"
        },
        {
          "internalType": "uint64",
          "name": "deadline",
          "type": "uint64"
        },
        {
          "internalType": "bool",
          "name": "executed",
          "type": "bool"
        }
      ],
      "stateMutability": "view",
      "type": "function"
    },
    {
      "inputs": [],
      "name": "renounceOwnership",
      "outputs": [],
      "stateMutability": "nonpayable",
      "type": "function"
    },
    {
      "inputs": [
        {
          "internalType": "address",
          "name": "_gm",
          "type": "address"
        }
      ],
      "name": "setGameManager",
      "outputs": [],
      "stateMutability": "nonpayable",
      "type": "function"
    },
    {
      "inputs": [
        {
          "internalType": "address",
          "name": "newOwner",
          "type": "address"
        }
      ],
      "name": "transferOwnership",
      "outputs": [],
      "stateMutability": "nonpayable",
      "type": "function"
    },
    {
      "inputs": [
        {
          "internalType": "uint256",
          "name": "proposalId",
          "type": "uint256"
        },
        {
          "internalType": "address",
          "name": "voter",
          "type": "address"
        },
        {
          "internalType": "bool",
          "name": "support",
          "type": "bool"
        }
      ],
      "name": "vote",
      "outputs": [],
      "stateMutability": "nonpayable",
      "type": "function"
    }
  ],
  "bytecode": "0x60808060405234610078573315610063575f8054336001600160a01b03198216811783556040519290916001600160a01b0316907f8be0079c531659141344cd1fd0a4f28419497f9722a3daafe3b4186f6b6457e09080a3611626908161007d8239f35b631e4fbdf760e01b81525f6004820152602490fd5b5f80fdfe60806040526004361015610011575f80fd5b60e05f35811c908163013cf08b146111a85781632ab09d141461118b578163359b1e2a146110305781633ee5d66e14610f8c5781634385963214610f43578163497a7fd2146107705781634fa4a1bb14610beb578163715018a614610b945781638da5cb5b14610b6d578163b2137f2114610a9d578163b6bdaba914610a80578163b7127e41146109f4578163c6b05266146109cc578163c7f758a8146108b6578163d3e96693146107b957508063ddabd74414610770578063e2a9affe14610738578063e2cdd42a14610540578063efe7b7af146104b1578063f2fde38b1461042c5763fd9d880d14610103575f80fd5b34610428576060366003190112610428576024356001600160401b038111610428576101339036906004016113ee565b9061013c6113c2565b9061015260018060a01b0360015416331461141b565b6004355f52600560205260405f209160018060a01b031691825f5260205261018060ff60405f205416611579565b61018b6003546114ff565b91826003556203f480420190814211610414576001600160401b03604051926101b384611290565b60043584526101c336888761150d565b926020850193845260408501525f60608501525f60808501521660a08301525f60c0830152835f52600760205260405f209082518255518051906001600160401b03821161040057610218600184015461123d565b601f81116103bc575b5091859391602097938890601f83116001146103215760057f7aade497c2cd4241d757f694370d0e4a250bfa251b3ab287406b2ab58d3fdad69694846102fb9561030b989560c0955f92610316575b50508160011b915f199060031b1c19161760018201555b6002810160018060a01b036040860151166001600160601b0360a01b825416179055606084015160038201556080840151600482015501916001600160401b0360a0820151166001600160401b03198454161783550151151560ff60401b825491151560401b169060ff60401b1916179055565b6040519182916004359683611552565b0390a3604051908152f35b015190505f80610270565b90600184015f52895f20915f5b601f19851681106103a257507f7aade497c2cd4241d757f694370d0e4a250bfa251b3ab287406b2ab58d3fdad6969460018561030b989560c0956005956102fb99601f1981161061038a575b505050811b016001820155610287565b01515f1960f88460031b161c191690555f808061037a565b8183015184558a9850600190930192918b01918b0161032e565b600184015f5260205f20601f840160051c8101602085106103f9575b601f830160051c820181106103ee575050610221565b5f81556001016103d8565b50806103d8565b634e487b7160e01b5f52604160045260245ffd5b634e487b7160e01b5f52601160045260245ffd5b5f80fd5b34610428576020366003190112610428576104456113ac565b61044d6115c5565b6001600160a01b03908116908115610499575f54826001600160601b0360a01b8216175f55167f8be0079c531659141344cd1fd0a4f28419497f9722a3daafe3b4186f6b6457e05f80a3005b604051631e4fbdf760e01b81525f6004820152602490fd5b34610428576020366003190112610428576004355f52600460205261051260405f206104dc816112cc565b9060ff60018060a01b0360018301541691600281015490600460038201549101549160405196879660c0885260c088019061136e565b946020870152604086015260608501526001600160401b038116608085015260401c16151560a08301520390f35b346104285760603660031901126104285760043561055c6113d8565b60443591821515808403610428576001546001600160a01b039190610584908316331461141b565b825f526020916007835260405f2090600582015460ff8160401c166106f3576001600160401b03164210156106ae5781545f526005845260405f20951694855f5283526105d760ff60405f205416611579565b835f526008835260405f20855f52835260ff60405f205416610669578394957ff2913dbe661ee2acc4a046d8fbcdc792373bda34c41c6086484b5345e5785e5f945f526008845260405f20875f52845260405f20600160ff198254161790555f146106555760030161064981546114ff565b90555b604051908152a3005b60040161066281546114ff565b905561064c565b60405162461bcd60e51b815260048101849052601b60248201527f4775696c644d616e616765723a20616c726561647920766f74656400000000006044820152606490fd5b60405162461bcd60e51b815260048101859052601a60248201527f4775696c644d616e616765723a20766f74696e6720656e6465640000000000006044820152606490fd5b60405162461bcd60e51b815260048101869052601e60248201527f4775696c644d616e616765723a20616c726561647920657865637574656400006044820152606490fd5b34610428576020366003190112610428576001600160a01b036107596113ac565b165f526006602052602060405f2054604051908152f35b34610428576040366003190112610428576107896113d8565b6004355f52600560205260405f209060018060a01b03165f52602052602060ff60405f2054166040519015158152f35b34610428576020806003193601126104285760c0915f60a06040516107dd81611275565b60608152828582015282604082015282606082015282608082015201526004355f526004825260405f20906040519261081584611275565b61081e836112cc565b845260018060a01b0391826001850154169382860194855260028101546040870190815260046003830154926060890193845201549461088f6001600160401b039560808a0195878916875260ff60a08c019960401c16151589526040519b8c9b838d5251928c01528a019061136e565b9651166040880152516060870152516080860152511660a084015251151560c08301520390f35b346104285760209081600319360112610428575f60c06040516108d881611290565b8281526060858201528260408201528260608201528260808201528260a082015201526004355f526007825260405f206040519161091583611290565b81548352610925600183016112cc565b9184840192835260018060a01b03806002830154169360408601948552600383015492606087019384526005600482015491608089019283520154936001600160401b03936109a660a08a0194868816865260ff60c08c019860401c16151588526040519b8c9b818d5251908c0152518860408c01526101008b019061136e565b97511660608901525160808801525160a0870152511660c0850152511515908301520390f35b34610428575f366003190112610428576001546040516001600160a01b039091168152602090f35b3461042857602036600319011261042857610a0d6113ac565b610a156115c5565b6001600160a01b03168015610a3b576001600160601b0360a01b60015416176001555f80f35b60405162461bcd60e51b815260206004820152601a60248201527f4775696c644d616e616765723a207a65726f20616464726573730000000000006044820152606490fd5b34610428575f366003190112610428576020600254604051908152f35b3461042857604036600319011261042857600435610ab96113d8565b90600460018060a01b03610ad28160015416331461141b565b825f52602093828552610af060ff8460405f20015460401c16611467565b1692835f5260068152610b0760405f2054156114b3565b825f526005815260405f20845f52815260405f20600160ff19825416179055600681528260405f2055825f5252600360405f2001610b4581546114ff565b90557f78da64a590c3052953ad9e0a5546bbf12bb68ae7634e3fb2a774e22a8c6557c15f80a3005b34610428575f366003190112610428575f546040516001600160a01b039091168152602090f35b34610428575f36600319011261042857610bac6115c5565b5f80546001600160a01b0319811682556001600160a01b03167f8be0079c531659141344cd1fd0a4f28419497f9722a3daafe3b4186f6b6457e08280a3005b34610428576040366003190112610428576004356001600160401b03811161042857610c1b9036906004016113ee565b90610c246113d8565b90610c3a60018060a01b0360015416331461141b565b82151580610f38575b15610ef3576001600160a01b0382165f90815260066020526040902054610c6a90156114b3565b610c756002546114ff565b918260025560405190610c8782611275565b610c9236868561150d565b825260018060a01b03811660208301525f6040830152600160608301526001600160401b0342166080830152600160a0830152835f52600460205260405f209180518051906001600160401b03821161040057610cef855461123d565b601f8111610eb2575b5091869391602098938990601f8311600114610e1d577f904702839547953faeb50d3bb98f52a1cdc21495c9717693baa55f24132e7201969783610dc9959460a0946004945f92610e12575b50508160011b915f199060031b1c19161781555b60018101600180851b038d860151166001600160601b03851b825416179055604084015160028201556060840151600382015501916001600160401b036080820151166001600160401b03198454161783550151151560ff60401b825491151560401b169060ff60401b1916179055565b835f526005875260405f2060018060a01b0382165f52875260405f20600160ff19825416179055600687528360405f205561030b60405192839260018060a01b03169683611552565b015190508e80610d44565b875f98939298528a5f20905f5b601f1984168110610e985750926001836004937f904702839547953faeb50d3bb98f52a1cdc21495c9717693baa55f24132e72019a9b610dc9989760a097601f19811610610e80575b505050811b018155610d58565b01515f1960f88460031b161c191690558e8080610e73565b818a01518355988c01988b98506001909201918c01610e2a565b855f5260205f20601f840160051c810160208510610eec575b601f830160051c82018110610ee1575050610cf8565b5f8155600101610ecb565b5080610ecb565b60405162461bcd60e51b815260206004820152601a60248201527f4775696c644d616e616765723a20696e76616c6964206e616d650000000000006044820152606490fd5b506020831115610c43565b3461042857604036600319011261042857610f5c6113d8565b6004355f52600860205260405f209060018060a01b03165f52602052602060ff60405f2054166040519015158152f35b3461042857606036600319011261042857602435600435610fab6113c2565b6001546001600160a01b0390610fc4908216331461141b565b825f526004602052610fe260ff600460405f20015460401c16611467565b825f526004602052600260405f200190815492858401809411610414577f4993273dbb189310b207fc120574953ba15ce38d3dc2e3a85f61c73ab4c8134d93602093556040519586521693a3005b34610428576020806003193601126104285761104a6113ac565b6001546001600160a01b03918291611065908316331461141b565b1691825f526006815260405f2054918215611146578390835f5260048352600160405f20015416146110f857600490825f526005815260405f20845f52815260405f2060ff198154169055600681525f6040812055825f5252600360405f200180548015610414575f190190557fa8dcd974806422d974a6135dd981896f1694065789986f7ba7947fbb4759e8995f80a3005b6084906040519062461bcd60e51b82526004820152602160248201527f4775696c644d616e616765723a206c65616465722063616e6e6f74206c6561766044820152606560f81b6064820152fd5b60405162461bcd60e51b815260048101839052601a60248201527f4775696c644d616e616765723a206e6f7420696e206775696c640000000000006044820152606490fd5b34610428575f366003190112610428576020600354604051908152f35b34610428576020366003190112610428576004355f52600760205260405f2080549060ff6111d8600183016112cc565b60018060a01b0360028401541692600381015461120f600560048401549301549360405198899889528060208a015288019061136e565b946040870152606086015260808501526001600160401b03811660a085015260401c16151560c08301520390f35b90600182811c9216801561126b575b602083101461125757565b634e487b7160e01b5f52602260045260245ffd5b91607f169161124c565b60c081019081106001600160401b0382111761040057604052565b60e081019081106001600160401b0382111761040057604052565b90601f801991011681019081106001600160401b0382111761040057604052565b9060405191825f82546112de8161123d565b908184526020946001916001811690815f1461134c575060011461130e575b50505061130c925003836112ab565b565b5f90815285812095935091905b81831061133457505061130c93508201015f80806112fd565b8554888401850152948501948794509183019161131b565b9250505061130c94925060ff191682840152151560051b8201015f80806112fd565b91908251928382525f5b848110611398575050825f602080949584010152601f8019910116010190565b602081830181015184830182015201611378565b600435906001600160a01b038216820361042857565b604435906001600160a01b038216820361042857565b602435906001600160a01b038216820361042857565b9181601f84011215610428578235916001600160401b038311610428576020838186019501011161042857565b1561142257565b60405162461bcd60e51b815260206004820152601d60248201527f4775696c644d616e616765723a206e6f742047616d654d616e616765720000006044820152606490fd5b1561146e57565b60405162461bcd60e51b815260206004820152601e60248201527f4775696c644d616e616765723a206775696c64206e6f742061637469766500006044820152606490fd5b156114ba57565b60405162461bcd60e51b815260206004820152601e60248201527f4775696c644d616e616765723a20616c726561647920696e206775696c6400006044820152606490fd5b5f1981146104145760010190565b9291926001600160401b0382116104005760405191611536601f8201601f1916602001846112ab565b829481845281830111610428578281602093845f960137010152565b90918060409360208452816020850152848401375f828201840152601f01601f1916010190565b1561158057565b60405162461bcd60e51b815260206004820152601a60248201527f4775696c644d616e616765723a206e6f742061206d656d6265720000000000006044820152606490fd5b5f546001600160a01b031633036115d857565b60405163118cdaa760e01b8152336004820152602490fdfea2646970667358221220492407001315be01b0502c07aa819268cd90340982824d4fd8b9e72557ba1eaa64736f6c63430008180033",
  "linkReferences": {},
  "deployedLinkReferences": {}
}