{
  "_format": "hh-sol-artifact-1",
  "contractName": "ItemNFT",
  "sourceName": "contracts/ItemNFT.sol",
  "abi": [
    {
      "inputs": [],
      "stateMutability": "nonpayable",
      "type": "constructor"
    },
    {
      "inputs": [
        {
          "internalType": "address",
          "name": "sender",
          "type": "address"
        },
        {
          "internalType": "uint256",
          "name": "tokenId",
          "type": "uint256"
        },
        {
          "internalType": "address",
          "name": "owner",
          "type": "address"
        }
      ],
      "name": "ERC721IncorrectOwner",
      "type": "error"
    },
    {
      "inputs": [
        {
          "internalType": "address",
          "name": "operator",
          "type": "address"
        },
        {
          "internalType": "uint256",
          "name": "tokenId",
          "type": "uint256"
        }
      ],
      "name": "ERC721InsufficientApproval",
      "type": "error"
    },
    {
      "inputs": [
        {
          "internalType": "address",
          "name": "approver",
          "type": "address"
        }
      ],
      "name": "ERC721InvalidApprover",
      "type": "error"
    },
    {
      "inputs": [
        {
          "internalType": "address",
          "name": "operator",
          "type": "address"
        }
      ],
      "name": "ERC721InvalidOperator",
      "type": "error"
    },
    {
      "inputs": [
        {
          "internalType": "address",
          "name": "owner",
          "type": "address"
        }
      ],
      "name": "ERC721InvalidOwner",
      "type": "error"
    },
    {
      "inputs": [
        {
          "internalType": "address",
          "name": "receiver",
          "type": "address"
        }
      ],
      "name": "ERC721InvalidReceiver",
      "type": "error"
    },
    {
      "inputs": [
        {
          "internalType": "address",
          "name": "sender",
          "type": "address"
        }
      ],
      "name": "ERC721InvalidSender",
      "type": "error"
    },
    {
      "inputs": [
        {
          "internalType": "uint256",
          "name": "tokenId",
          "type": "uint256"
        }
      ],
      "name": "ERC721NonexistentToken",
      "type": "error"
    },
    {
      "inputs": [
        {
          "internalType": "address",
          "name": "owner",
          "type": "address"
        }
      ],
      "name": "OwnableInvalidOwner",
      "type": "error"
    },
    {
      "inputs": [
        {
          "internalType": "address",
          "name": "account",
          "type": "address"
        }
      ],
      "name": "OwnableUnauthorizedAccount",
      "type": "error"
    },
    {
      "anonymous": false,
      "inputs": [
        {
          "indexed": true,
          "internalType": "address",
          "name": "owner",
          "type": "address"
        },
        {
          "indexed": true,
          "internalType": "address",
          "name": "approved",
          "type": "address"
        },
        {
          "indexed": true,
          "internalType": "uint256",
          "name": "tokenId",
          "type": "uint256"
        }
      ],
      "name": "Approval",
      "type": "event"
    },
    {
      "anonymous": false,
      "inputs": [
        {
          "indexed": true,
          "internalType": "address",
          "name": "owner",
          "type": "address"
        },
        {
          "indexed": true,
          "internalType": "address",
          "name": "operator",
          "type": "address"
        },
        {
          "indexed": false,
          "internalType": "bool",
          "name": "approved",
          "type": "bool"
        }
      ],
      "name": "ApprovalForAll",
      "type": "event"
    },
    {
      "anonymous": false,
      "inputs": [
        {
          "indexed": true,
          "internalType": "address",
          "name": "owner",
          "type": "address"
        },
        {
          "indexed": true,
          "internalType": "uint256",
          "name": "tokenId",
          "type": "uint256"
        },
        {
          "indexed": false,
          "internalType": "string",
          "name": "name",
          "type": "string"
        },
        {
          "indexed": false,
          "internalType": "uint8",
          "name": "itemType",
          "type": "uint8"
        },
        {
          "indexed": false,
          "internalType": "uint16",
          "name": "power",
          "type": "uint16"
        },
        {
          "indexed": false,
          "internalType": "uint8",
          "name": "rarity",
          "type": "uint8"
        }
      ],
      "name": "ItemMinted",
      "type": "event"
    },
    {
      "anonymous": false,
      "inputs": [
        {
          "indexed": true,
          "internalType": "uint256",
          "name": "tokenId",
          "type": "uint256"
        },
        {
          "indexed": true,
          "internalType": "address",
          "name": "user",
          "type": "address"
        }
      ],
      "name": "ItemUsed",
      "type": "event"
    },
    {
      "anonymous": false,
      "inputs": [
        {
          "indexed": true,
          "internalType": "address",
          "name": "previousOwner",
          "type": "address"
        },
        {
          "indexed": true,
          "internalType": "address",
          "name": "newOwner",
          "type": "address"
        }
      ],
      "name": "OwnershipTransferred",
      "type": "event"
    },
    {
      "anonymous": false,
      "inputs": [
        {
          "indexed": true,
          "internalType": "address",
          "name": "from",
          "type": "address"
        },
        {
          "indexed": true,
          "internalType": "address",
          "name": "to",
          "type": "address"
        },
        {
          "indexed": true,
          "internalType": "uint256",
          "name": "tokenId",
          "type": "uint256"
        }
      ],
      "name": "Transfer",
      "type": "event"
    },
    {
      "inputs": [
        {
          "internalType": "address",
          "name": "to",
          "type": "address"
        },
        {
          "internalType": "uint256",
          "name": "tokenId",
          "type": "uint256"
        }
      ],
      "name": "approve",
      "outputs": [],
      "stateMutability": "nonpayable",
      "type": "function"
    },
    {
      "inputs": [
        {
          "internalType": "address",
          "name": "owner",
          "type": "address"
        }
      ],
      "name": "balanceOf",
      "outputs": [
        {
          "internalType": "uint256",
          "name": "",
          "type": "uint256"
        }
      ],
      "stateMutability": "view",
      "type": "function"
    },
    {
      "inputs": [
        {
          "internalType": "uint256",
          "name": "tokenId",
          "type": "uint256"
        }
      ],
      "name": "consumeItem",
      "outputs": [],
      "stateMutability": "nonpayable",
      "type": "function"
    },
    {
      "inputs": [],
      "name": "gameManager",
      "outputs": [
        {
          "internalType": "address",
          "name": "",
          "type": "address"
        }
      ],
      "stateMutability": "view",
      "type": "function"
    },
    {
      "inputs": [
        {
          "internalType": "uint256",
          "name": "tokenId",
          "type": "uint256"
        }
      ],
      "name": "getApproved",
      "outputs": [
        {
          "internalType": "address",
          "name": "",
          "type": "address"
        }
      ],
      "stateMutability": "view",
      "type": "function"
    },
    {
      "inputs": [
        {
          "internalType": "uint256",
          "name": "tokenId",
          "type": "uint256"
        }
      ],
      "name": "getItem",
      "outputs": [
        {
          "components": [
            {
              "internalType": "string",
              "name": "name",
              "type": "string"
            },
            {
              "internalType": "enum ItemNFT.ItemType",
              "name": "itemType",
              "type": "uint8"
            },
            {
              "internalType": "uint16",
              "name": "power",
              "type": "uint16"
            },
            {
              "internalType": "uint8",
              "name": "rarity",
              "type": "uint8"
            },
            {
              "internalType": "uint64",
              "name": "mintedAt",
              "type": "uint64"
            },
            {
              "internalType": "address",
              "name": "originalOwner",
              "type": "address"
            }
          ],
          "internalType": "struct ItemNFT.Item",
          "name": "",
          "type": "tuple"
        }
      ],
      "stateMutability": "view",
      "type": "function"
    },
    {
      "inputs": [],
      "name": "getNextTokenId",
      "outputs": [
        {
          "internalType": "uint256",
          "name": "",
          "type": "uint256"
        }
      ],
      "stateMutability": "view",
      "type": "function"
    },
    {
      "inputs": [
        {
          "internalType": "uint256",
          "name": "tokenId",
          "type": "uint256"
        }
      ],
      "name": "getOwnershipHistory",
      "outputs": [
        {
          "components": [
            {
              "internalType": "address",
              "name": "owner",
              "type": "address"
            },
            {
              "internalType": "uint64",
              "name": "acquiredAt",
              "type": "uint64"
            }
          ],
          "internalType": "struct ItemNFT.OwnershipRecord[]",
          "name": "",
          "type": "tuple[]"
        }
      ],
      "stateMutability": "view",
      "type": "function"
    },
    {
      "inputs": [
        {
          "internalType": "address",
          "name": "owner",
          "type": "address"
        },
        {
          "internalType": "address",
          "name": "operator",
          "type": "address"
        }
      ],
      "name": "isApprovedForAll",
      "outputs": [
        {
          "internalType": "bool",
          "name": "",
          "type": "bool"
        }
      ],
      "stateMutability": "view",
      "type": "function"
    },
    {
      "inputs": [
        {
          "internalType": "uint256",
          "name": "",
          "type": "uint256"
        }
      ],
      "name": "items",
      "outputs": [
        {
          "internalType": "string",
          "name": "name",
          "type": "string"
        },
        {
          "internalType": "enum ItemNFT.ItemType",
          "name": "itemType",
          "type": "uint8"
        },
        {
          "internalType": "uint16",
          "name": "power",
          "type": "uint16"
        },
        {
          "internalType": "uint8",
          "name": "rarity",
          "type": "uint8"
        },
        {
          "internalType": "uint64",
          "name": "mintedAt",
          "type": "uint64"
        },
        {
          "internalType": "address",
          "name": "originalOwner",
          "type": "address"
        }
      ],
      "stateMutability": "view",
      "type": "function"
    },
    {
      "inputs": [
        {
          "internalType": "address",
          "name": "to",
          "type": "address"
        },
        {
          "internalType": "string",
          "name": "_name",
          "type": "string"
        },
        {
          "internalType": "enum ItemNFT.ItemType",
          "name": "_type",
          "type": "uint8"
        },
        {
          "internalType": "uint16",
          "name": "_power",
          "type": "uint16"
        },
        {
          "internalType": "uint8",
          "name": "_rarity",
          "type": "uint8"
        }
      ],
      "name": "mintItem",
      "outputs": [
        {
          "internalType": "uint256",
          "name": "",
          "type": "uint256"
        }
      ],
      "stateMutability": "nonpayable",
      "type": "function"
    },
    {
      "inputs": [],
      "name": "name",
      "outputs": [
        {
          "internalType": "string",
          "name": "",
          "type": "string"
        }
      ],
      "stateMutability": "view",
      "type": "function"
    },
    {
      "inputs": [],
      "name": "owner",
      "outputs": [
        {
          "internalType": "address",
          "name": "",
          "type": "address"
        }
      ],
      "stateMutability": "view",
      "type": "function"
    },
    {
      "inputs": [
        {
          "internalType": "uint256",
          "name": "tokenId",
          "type": "uint256"
        }
      ],
      "name": "ownerOf",
      "outputs": [
        {
          "internalType": "address",
          "name": "",
          "type": "address"
        }
      ],
      "stateMutability": "view",
      "type": "function"
    },
    {
      "inputs": [
        {
          "internalType": "uint256",
          "name": "",
          "type": "uint256"
        },
        {
          "internalType": "uint256",
          "name": "",
          "type": "uint256"
        }
      ],
      "name": "ownershipHistory",
      "outputs": [
        {
          "internalType": "address",
          "name": "owner",
          "type": "address"
        },
        {
          "internalType": "uint64",
          "name": "acquiredAt",
          "type": "uint64"
        }
      ],
      "stateMutability": "view",
      "type": "function"
    },
    {
      "inputs": [],
      "name": "renounceOwnership",
      "outputs": [],
      "stateMutability": "nonpayable",
      "type": "function"
    },
    {
      "inputs": [
        {
          "internalType": "address",
          "name": "from",
          "type": "address"
        },
        {
          "internalType": "address",
          "name": "to",
          "type": "address"
        },
        {
          "internalType": "uint256",
          "name": "tokenId",
          "type": "uint256"
        }
      ],
      "name": "safeTransferFrom",
      "outputs": [],
      "stateMutability": "nonpayable",
      "type": "function"
    },
    {
      "inputs": [
        {
          "internalType": "address",
          "name": "from",
          "type": "address"
        },
        {
          "internalType": "address",
          "name": "to",
          "type": "address"
        },
        {
          "internalType": "uint256",
          "name": "tokenId",
          "type": "uint256"
        },
        {
          "internalType": "bytes",
          "name": "data",
          "type": "bytes"
        }
      ],
      "name": "safeTransferFrom",
      "outputs": [],
      "stateMutability": "nonpayable",
      "type": "function"
    },
    {
      "inputs": [
        {
          "internalType": "address",
          "name": "operator",
          "type": "address"
        },
        {
          "internalType": "bool",
          "name": "approved",
          "type": "bool"
        }
      ],
      "name": "setApprovalForAll",
      "outputs": [],
      "stateMutability": "nonpayable",
      "type": "function"
    },
    {
      "inputs": [
        {
          "internalType": "address",
          "name": "_gm",
          "type": "address"
        }
      ],
      "name": "setGameManager",
      "outputs": [],
      "stateMutability": "nonpayable",
      "type": "function"
    },
    {
      "inputs": [
        {
          "internalType": "bytes4",
          "name": "interfaceId",
          "type": "bytes4"
        }
      ],
      "name": "supportsInterface",
      "outputs": [
        {
          "internalType": "bool",
          "name": "",
          "type": "bool"
        }
      ],
      "stateMutability": "view",
      "type": "function"
    },
    {
      "inputs": [],
      "name": "symbol",
      "outputs": [
        {
          "internalType": "string",
          "name": "",
          "type": "string"
        }
      ],
      "stateMutability": "view",
      "type": "function"
    },
    {
      "inputs": [
        {
          "internalType": "uint256",
          "name": "tokenId",
          "type": "uint256"
        }
      ],
      "name": "tokenURI",
      "outputs": [
        {
          "internalType": "string",
          "name": "",
          "type": "string"
        }
      ],
      "stateMutability": "view",
      "type": "function"
    },
    {
      "inputs": [],
      "name": "totalItems",
      "outputs": [
        {
          "internalType": "uint256",
          "name": "",
          "type": "uint256"
        }
      ],
      "stateMutability": "view",
      "type": "function"
    },
    {
      "inputs": [
        {
          "internalType": "address",
          "name": "from",
          "type": "address"
        },
        {
          "internalType": "address",
          "name": "to",
          "type": "address"
        },
        {
          "internalType": "uint256",
          "name": "tokenId",
          "type": "uint256"
        }
      ],
      "name": "transferFrom",
      "outputs": [],
      "stateMutability": "nonpayable",
      "type": "function"
    },
    {
      "inputs": [
        {
          "internalType": "address",
          "name": "newOwner",
          "type": "address"
        }
      ],
      "name": "transferOwnership",
      "outputs": [],
      "stateMutability": "nonpayable",
      "type": "function"
    }
  ],
  "bytecode": "0x6080346200034a576001600160401b03906040908082018381118282101762000268578252601081526020926f45746865725265616c6d73204974656d60801b848301528251938385018581108382111762000268578452600685526545524954454d60d01b8186015282519082821162000268575f54916001948584811c941680156200033f575b8385101462000249578190601f94858111620002ec575b50839085831160011462000288575f926200027c575b50505f19600383901b1c191690851b175f555b8551928311620002685783548481811c911680156200025d575b82821014620002495782811162000201575b50809183116001146200019c5750819293945f9262000190575b50505f19600383901b1c191690821b1790555b33156200017a5760068054336001600160a01b0319821681179092559151916001600160a01b03167f8be0079c531659141344cd1fd0a4f28419497f9722a3daafe3b4186f6b6457e05f80a361275690816200034f8239f35b51631e4fbdf760e01b81525f6004820152602490fd5b015190505f806200010e565b90601f19831695845f52825f20925f905b888210620001e95750508385969710620001d0575b505050811b01905562000121565b01515f1960f88460031b161c191690555f8080620001c2565b808785968294968601518155019501930190620001ad565b845f52815f208380860160051c8201928487106200023f575b0160051c019085905b82811062000233575050620000f4565b5f815501859062000223565b925081926200021a565b634e487b7160e01b5f52602260045260245ffd5b90607f1690620000e2565b634e487b7160e01b5f52604160045260245ffd5b015190505f80620000b5565b90879350601f198316915f8052855f20925f5b87828210620002d55750508411620002bc575b505050811b015f55620000c8565b01515f1960f88460031b161c191690555f8080620002ae565b8385015186558b979095019493840193016200029b565b9091505f8052835f208580850160051c82019286861062000335575b918991869594930160051c01915b828110620003265750506200009f565b5f815585945089910162000316565b9250819262000308565b93607f169362000088565b5f80fdfe6080806040526004361015610012575f80fd5b5f3560e01c90816301ffc9a714611a2b5750806306fdde0314611984578063081812fc14611948578063095ea7b31461186757806323b872dd146118505780632799276d146118335780633129e7731461170c57806342842e0e146116df5780636352211e146116af57806370a0823114611659578063715018a6146115fe5780638da5cb5b146115d657806395d89b41146114f85780639ceb45e014610f4d578063a22cb46514610e8e578063b68d7d1414610d25578063b7127e4114610ca1578063b88d4fde14610c34578063bfb231d214610ba8578063c6b0526614610b80578063c87b56dd1461038f578063c9cf2adc14610332578063caa0f92a14610315578063e985e9c5146102c3578063f1dbaccb146101c55763f2fde38b1461013a575f80fd5b346101c15760203660031901126101c157610153611adc565b61015b612028565b6001600160a01b039081169081156101a957600654826001600160601b0360a01b821617600655167f8be0079c531659141344cd1fd0a4f28419497f9722a3daafe3b4186f6b6457e05f80a3005b604051631e4fbdf760e01b81525f6004820152602490fd5b5f80fd5b346101c1576020806003193601126101c1576004355f52600a815260405f20908154916001600160401b03928381116102af57916040519261020c828260051b0185611b9b565b80845281840180935f52825f205f915b83831061027557505050506040519281840190828552518091526040840192915f5b82811061024b5785850386f35b835180516001600160a01b031686528201518716858301526040909401939281019260010161023e565b600185819260409997995161028981611b65565b8b8654858060a01b038116835260a01c168382015281520192019201919095939561021c565b634e487b7160e01b5f52604160045260245ffd5b346101c15760403660031901126101c1576102dc611adc565b6102e4611af2565b9060018060a01b038091165f52600560205260405f2091165f52602052602060ff60405f2054166040519015158152f35b346101c1575f3660031901126101c1576020600754604051908152f35b346101c15760403660031901126101c1576024356004355f52600a60205260405f2080548210156101c15760409161036991611ce7565b505481516001600160a01b038216815260a09190911c6001600160401b03166020820152f35b346101c1576020806003193601126101c15760043580151580610b74575b6103b690611ec8565b805f526009825260405f206001604051916103d083611b4a565b6103d981611c45565b8352015491838201926103ef60ff821685611f0a565b61ffff936040840192858360081c168452606085019260ff8160181c1684526001600160401b0381891c16608087015260601c60a086015281516003811015610b605761043b9061219e565b61045460ff61044c8187511661221a565b955116612339565b9251966003881015610b605761046a8998612406565b9680518288511661047a9061247a565b946104849061247a565b604080517f3c73766720786d6c6e733d22687474703a2f2f7777772e77332e6f72672f3230818e01527f30302f737667222076696577426f783d22302030203235302032353022207374918101919091527f796c653d226261636b67726f756e643a23316132333332223e0000000000000060608201527f3c726563742077696474683d2232353022206865696768743d2232353022207260798201527f783d223132222066696c6c3d222331613233333222207374726f6b653d22000060998201528751909a8b938d928a840192906105628160b7890186611a96565b73111039ba3937b5b296bbb4b23a341e911991179f60611b60b7918801918201527f3c7465787420783d223132352220793d2238302220746578742d616e63686f7260cb8201527f3d226d6964646c652220666f6e742d73697a653d223630223e0000000000000060eb8201528151610104929091906105e9908390858401908901611a96565b661e17ba32bc3a1f60c91b91019182018190527f3c7465787420783d223132352220793d223133302220746578742d616e63686f61010b8301527f723d226d6964646c65222066696c6c3d22236532653866302220666f6e742d7361012b8301527f697a653d2231362220666f6e742d7765696768743d22626f6c642220666f6e7461014b8301527416b330b6b4b63c9e9139b0b73996b9b2b934b3111f60591b61016b83015282519094610180938693916106ab9184918785019101611a96565b019182015261018781017f3c7465787420783d223132352220793d223135352220746578742d616e63686f905270391e9136b4b232363291103334b6361e9160791b6101a78201526101b8995191828b830161070692611a96565b019788017f2220666f6e742d73697a653d2231332220666f6e742d66616d696c793d227361905269373996b9b2b934b3111f60b11b6101d88901526101e29b8c988a519081838d019b82019061075c918d611a96565b0197600160fd1b809e8a0152826101e391818a51858c019c8d8287830161078292611a96565b01938401527f3c7465787420783d223132352220793d223138352220746578742d616e63686f6101ea8401527f723d226d6964646c65222066696c6c3d22236662626632342220666f6e742d7361020a8401527f697a653d2231342220666f6e742d66616d696c793d2273616e732d736572696661022a840152680111f2837bbb2b91d160bd1b61024a8401528051610253939091610828908390868401908801611a96565b01918201527f3c7465787420783d223132352220793d223233302220746578742d616e63686f61025a8201527f723d226d6964646c65222066696c6c3d22233634373438622220666f6e742d7361027a8201527f697a653d2231312220666f6e742d66616d696c793d2273616e732d736572696661029a82015268223e546f6b656e202360b81b6102ba82015283516102c39490926108cd9184918785019101611a96565b01918201526102ca8101651e17b9bb339f60d11b9052036102b0810189526102d0016108f99089611b9b565b5196610904906125e1565b9551166109109061247a565b94604051978897683d913730b6b2911d1160b91b8b8a0152805190818c60298c0192019161093d92611a96565b7f222c226465736372697074696f6e223a2245746865725265616c6d73204974656029918a0191820152630369016960e51b604982015286519061098582604d830189611a96565b0190604d82015282519081604e82019061099f9187611a96565b01604e81017f222c22696d616765223a22646174613a696d6167652f7376672b786d6c3b62619052606e8101641cd94d8d0b60da1b9052815191828b607384019201916109eb92611a96565b01906f222c2261747472696275746573223a5b60801b6073830152608382017f7b2274726169745f74797065223a2254797065222c2276616c7565223a220000905251918260a18301610a3d92611a96565b0162089f4b60ea1b928360a183015260a482017f7b2274726169745f74797065223a22526172697479222c2276616c7565223a22905251918260c48301610a8392611a96565b019060c482015260c781017f7b2274726169745f74797065223a22506f776572222c2276616c7565223a00009052815191828660e58401920191610ac692611a96565b0160e58101627d5d7d60e81b90520360c88101825260e801610ae89082611b9b565b610af1906125e1565b9060405180928282017f646174613a6170706c69636174696f6e2f6a736f6e3b6261736536342c00000090528051908184603d8501920191610b3292611a96565b810103601d81018352603d01610b489083611b9b565b6040519181839283528201610b5c91611ab7565b0390f35b634e487b7160e01b5f52602160045260245ffd5b506007548111156103ad565b346101c1575f3660031901126101c1576008546040516001600160a01b039091168152602090f35b346101c15760203660031901126101c1576004355f526009602052610bec60405f206001610bd582611c45565b91015460405192839260c0845260c0840190611ab7565b90610bfd6020840160ff8316611b3d565b61ffff8160081c16604084015260ff8160181c1660608401526001600160401b038160201c16608084015260601c60a08301520390f35b346101c15760803660031901126101c157610c4d611adc565b610c55611af2565b90604435606435926001600160401b0384116101c157366023850112156101c157610c8d610c9f943690602481600401359101611bd7565b92610c99838383611d10565b33612054565b005b346101c15760203660031901126101c157610cba611adc565b610cc2612028565b6001600160a01b03168015610ce8576001600160601b0360a01b60085416176008555f80f35b60405162461bcd60e51b81526020600482015260156024820152744974656d4e46543a207a65726f206164647265737360581b6044820152606490fd5b346101c1576020806003193601126101c1576004359060018060a01b03610d5181600854163314611f16565b825f526009825260ff600160405f200154166003811015610b6057600203610e49575f818492610d8084612006565b16837f697fe668f50dbd9b1cfb6b66911015797935f1a1c873d43501294e97024bf00f8480a38282526002845260408220541660028115948515610e17575b848452526040822080546001600160a01b03191690557fddf252ad1be2c89b69c2b068fc378daa952ba7f163c4a11628f55a4df523b3ef8280a4610dff57005b60249060405190637e27328960e01b82526004820152fd5b5f85815260046020526040902080546001600160a01b0319169055828452600381526040842084198154019055610dbf565b60405162461bcd60e51b815260048101839052601760248201527f4974656d4e46543a206e6f7420636f6e73756d61626c650000000000000000006044820152606490fd5b346101c15760403660031901126101c157610ea7611adc565b602435908115158092036101c1573315610f35576001600160a01b0316908115610f1c57335f52600560205260405f20825f5260205260405f2060ff1981541660ff83161790556040519081527f17307eab39ab6107e8899845ad3d59bd9653f200f220920489ca2b5937696c3160203392a3005b604051630b61174360e31b815260048101839052602490fd5b60405163a9fbf51f60e01b81525f6004820152602490fd5b346101c15760a03660031901126101c157610f66611adc565b6024356001600160401b0381116101c157366023820112156101c1576001600160401b038160040135116101c1573660248260040135830101116101c157600360443510156101c1576064359061ffff821682036101c1576084359060ff821682036101c1576008546001600160a01b039290610fe69084163314611f16565b610ff1600754611f6d565b938460075560405161100281611b80565b5f8152848716156114e057855f5260026020528460405f205416806114ad575b8588165f52600360205260405f2060018154019055865f52600260205260405f208689166001600160601b0360a01b82541617905560405187878a16837fddf252ad1be2c89b69c2b068fc378daa952ba7f163c4a11628f55a4df523b3ef5f80a481611478575b5061146057863b61133a575b506040516110a281611b4a565b6110b436856004013560248701611bd7565b81526110c560443560208301611f0a565b61ffff8216604082015260ff831660608201526001600160401b034216608082015284871660a0820152855f52600960205260405f209181518051906001600160401b0382116102af57819061111b8654611c0d565b601f81116112ed575b50602090601f8311600114611285575f9261127a575b50508160011b915f199060031b1c19161783555b6020820151956003871015610b605760209860ff7ff084caf2da43ea43f140670ecb725deaa138c7e19d728476a55c3df5b4f3408a9661ffff9660018c9b8862ffff00604060a09b015160081b1663ff000000606083015160181b1690876bffffffffffffffff00000000608085015160201b16938d6001600160601b031991015160601b16941617171717910155895f52600a8c5261121060405f20604051906111f882611b65565b86861682526001600160401b0342168f830152611f8f565b61121b600b54611f6d565b600b55604051968795608087528a6004013560808801528a6004013560248c01898901375f888c600401358901015283604435168e8801521660408601521660608401521694601f8019916004013501168101030190a3604051908152f35b015190508a8061113a565b9250855f5260205f20905f935b601f19841685106112d2576001945083601f198116106112ba575b505050811b01835561114e565b01515f1960f88460031b161c191690558a80806112ad565b81810151835560209485019460019093019290910190611292565b909150855f5260205f20601f840160051c810160208510611333575b90849392915b601f830160051c82018110611325575050611124565b5f815585945060010161130f565b5080611309565b6040969594965160208180611377630a85bd0160e11b958683523360048401525f60248401528a6044840152608060648401526084830190611ab7565b03815f8c8c165af15f918161141b575b506113e85787873d156113e0573d9161139f83611bbc565b926113ad6040519485611b9b565b83523d5f602085013e5b825192836113d957604051633250574960e11b81528284166004820152602490fd5b6020849101fd5b6060916113b7565b959694956001600160e01b031916036114015786611095565b604051633250574960e11b81528487166004820152602490fd5b9091506020813d602011611458575b8161143760209383611b9b565b810103126101c157516001600160e01b0319811681036101c1579089611387565b3d915061142a565b6040516339e3563760e11b81525f6004820152602490fd5b6114a790600a60205260405f2061148e82611b65565b888b1682526001600160401b0342166020830152611f8f565b88611089565b5f87815260046020526040902080546001600160a01b0319169055805f52600360205260405f205f198154019055611022565b604051633250574960e11b81525f6004820152602490fd5b346101c1575f3660031901126101c1576040515f6001826001549261151c84611c0d565b92838352602094856001821691825f146115b657505060011461155b575b5061154792500383611b9b565b610b5c604051928284938452830190611ab7565b84915060015f527fb10e2d527612073b26eecdfd717e6a320cf44b4afac2b0732d9fcbe2b7fa0cf6905f915b85831061159e57505061154793508201018561153a565b80548389018501528794508693909201918101611587565b60ff19168582015261154795151560051b850101925087915061153a9050565b346101c1575f3660031901126101c1576006546040516001600160a01b039091168152602090f35b346101c1575f3660031901126101c157611616612028565b600680546001600160a01b031981169091555f906001600160a01b03167f8be0079c531659141344cd1fd0a4f28419497f9722a3daafe3b4186f6b6457e08280a3005b346101c15760203660031901126101c1576001600160a01b0361167a611adc565b168015611697575f526003602052602060405f2054604051908152f35b6040516322718ad960e21b81525f6004820152602490fd5b346101c15760203660031901126101c15760206116cd600435612006565b6040516001600160a01b039091168152f35b346101c157610c9f6116f036611b08565b90604051926116fe84611b80565b5f8452610c99838383611d10565b346101c1576020806003193601126101c1576004355f60a060405161173081611b4a565b606081528285820152826040820152826060820152826080820152015280151580611827575b61175f90611ec8565b5f526009815260405f209060016040519261177984611b4a565b61178281611c45565b845201548183019061179760ff821683611f0a565b61ffff60408501818360081c16815260ff60608701818560181c1681526001600160401b0393608089019385878a1c16855260a08a019660601c87526117ff6117f38a60c06040519d8e9d8e5251918d015260e08c0190611ab7565b985160408b0190611b3d565b5116606088015251166080860152511660a0840152516001600160a01b031660c08301520390f35b50600754811115611756565b346101c1575f3660031901126101c1576020600b54604051908152f35b346101c157610c9f61186136611b08565b91611d10565b346101c15760403660031901126101c157611880611adc565b60243561188c81612006565b33151580611935575b8061190c575b6118f4576001600160a01b039283169282918491167f8c5be1e5ebec7d5bd14f71427d1e84f3dd0314c0f7b2291e5b200ac8c7c3b9255f80a45f90815260046020526040902080546001600160a01b0319169091179055005b60405163a9fbf51f60e01b8152336004820152602490fd5b5060018060a01b0381165f52600560205260405f20335f5260205260ff60405f2054161561189b565b506001600160a01b038116331415611895565b346101c15760203660031901126101c15760043561196581612006565b505f526004602052602060018060a01b0360405f205416604051908152f35b346101c1575f3660031901126101c1576040515f805490826119a583611c0d565b91828252602093600190856001821691825f146115b65750506001146119d2575061154792500383611b9b565b5f808052859250907f290decd9548b62a8d60345a988386fc84ba6bc95484008f6362f93160ef3e5635b858310611a1357505061154793508201018561153a565b805483890185015287945086939092019181016119fc565b346101c15760203660031901126101c1576004359063ffffffff60e01b82168092036101c1576020916380ac58cd60e01b8114908115611a85575b8115611a74575b5015158152f35b6301ffc9a760e01b14905083611a6d565b635b5e139f60e01b81149150611a66565b5f5b838110611aa75750505f910152565b8181015183820152602001611a98565b90602091611ad081518092818552858086019101611a96565b601f01601f1916010190565b600435906001600160a01b03821682036101c157565b602435906001600160a01b03821682036101c157565b60609060031901126101c1576001600160a01b039060043582811681036101c1579160243590811681036101c1579060443590565b906003821015610b605752565b60c081019081106001600160401b038211176102af57604052565b604081019081106001600160401b038211176102af57604052565b602081019081106001600160401b038211176102af57604052565b90601f801991011681019081106001600160401b038211176102af57604052565b6001600160401b0381116102af57601f01601f191660200190565b929192611be382611bbc565b91611bf16040519384611b9b565b8294818452818301116101c1578281602093845f960137010152565b90600182811c92168015611c3b575b6020831014611c2757565b634e487b7160e01b5f52602260045260245ffd5b91607f1691611c1c565b9060405191825f8254611c5781611c0d565b908184526020946001916001811690815f14611cc55750600114611c87575b505050611c8592500383611b9b565b565b5f90815285812095935091905b818310611cad575050611c8593508201015f8080611c76565b85548884018501529485019487945091830191611c94565b92505050611c8594925060ff191682840152151560051b8201015f8080611c76565b8054821015611cfc575f5260205f2001905f90565b634e487b7160e01b5f52603260045260245ffd5b916001600160a01b039182169182156114e057815f526020936002855260409482865f2054169433151580611e3d575b508515159081611e0c575b805f5260038352875f2060018154019055855f5260028352875f20816001600160601b0360a01b8254161790558751918682897fddf252ad1be2c89b69c2b068fc378daa952ba7f163c4a11628f55a4df523b3ef5f80a4611dda575b5050501692838303611db95750505050565b6064945051926364283d7b60e01b8452600484015260248301526044820152fd5b82600a611e049452885f2091611def84611b65565b83526001600160401b03421690830152611f8f565b5f8080611da7565b5f86815260046020526040812080546001600160a01b03191690558781526003845288902080545f19019055611d4b565b80611e87575b15611e4e575f611d40565b868587611e6b576024915190637e27328960e01b82526004820152fd5b604491519063177e802f60e01b82523360048301526024820152fd5b503386148015611eac575b80611e435750845f52600482523384885f20541614611e43565b50855f5260058252865f20335f52825260ff875f205416611e92565b15611ecf57565b60405162461bcd60e51b8152602060048201526013602482015272125d195b5391950e881a5b9d985b1a59081a59606a1b6044820152606490fd5b6003821015610b605752565b15611f1d57565b60405162461bcd60e51b815260206004820152602260248201527f4974656d4e46543a2063616c6c6572206973206e6f742047616d654d616e616760448201526132b960f11b6064820152608490fd5b5f198114611f7b5760010190565b634e487b7160e01b5f52601160045260245ffd5b8054680100000000000000008110156102af57611fb191600182018155611ce7565b919091611ff357805182546020909201516001600160e01b03199092166001600160a01b03919091161760a09190911b67ffffffffffffffff60a01b16179055565b634e487b7160e01b5f525f60045260245ffd5b5f818152600260205260409020546001600160a01b0316908115610dff575090565b6006546001600160a01b0316330361203c57565b60405163118cdaa760e01b8152336004820152602490fd5b9293909193843b612067575b5050505050565b604051630a85bd0160e11b8082526001600160a01b0395861660048301529385166024820152604481019190915260806064820152602095949093169392908590829081906120ba906084830190611ab7565b03815f885af15f918161215e575b50612127575050503d5f1461211f573d916120e283611bbc565b926120f06040519485611b9b565b83523d5f8285013e5b8251928361211a57604051633250574960e11b815260048101849052602490fd5b019050fd5b6060916120f9565b9193506001600160e01b03199091160361214657505f80808080612060565b60249060405190633250574960e11b82526004820152fd5b9091508581813d8311612197575b6121768183611b9b565b810103126101c157516001600160e01b0319811681036101c157905f6120c8565b503d61216c565b6003811015610b605780156121f7576001146121d6576040516121c081611b65565b60068152652837ba34b7b760d11b602082015290565b6040516121e281611b65565b600581526420b936b7b960d91b602082015290565b5060405161220481611b65565b60068152652bb2b0b837b760d11b602082015290565b60ff16600181146122f357600281146122ce57600381146122ad576004811461228c576005146122675760405161225081611b65565b60078152662ab735b737bbb760c91b602082015290565b60405161227381611b65565b60098152684c6567656e6461727960b81b602082015290565b5060405161229981611b65565b60048152634570696360e01b602082015290565b506040516122ba81611b65565b60048152635261726560e01b602082015290565b506040516122db81611b65565b60088152672ab731b7b6b6b7b760c11b602082015290565b5060405161230081611b65565b600681526521b7b6b6b7b760d11b602082015290565b6040519061232382611b65565b6007825266119cb1b099b0b360c91b6020830152565b60ff16600181146123fd57600281146123d957600381146123b557600481146123915760051461236e5761236b612316565b90565b60405161237a81611b65565b600781526608d99898998c8d60ca1b602082015290565b5060405161239e81611b65565b60078152662361373862666160c81b602082015290565b506040516123c281611b65565b60078152662336306135666160c81b602082015290565b506040516123e681611b65565b60078152660233461646538360cc1b602082015290565b5061236b612316565b6003811015610b6057801561245a5760011461243b5760405161242881611b65565b6003815262e29a9760e81b602082015290565b60405161244781611b65565b60038152621c537560eb1b602082015290565b5060405161246781611b65565b600381526238a6a560ea1b602082015290565b805f917a184f03e93ff9f4daa797ed6e38ed64bf6a1f010000000000000000808210156125d3575b506d04ee2d6d415b85acef8100000000808310156125c4575b50662386f26fc10000808310156125b5575b506305f5e100808310156125a6575b5061271080831015612597575b506064821015612587575b600a8092101561257d575b600190816021600186019561251387611bbc565b966125216040519889611b9b565b808852612530601f1991611bbc565b01366020890137860101905b612548575b5050505090565b5f19019083906f181899199a1a9b1b9c1cb0b131b232b360811b8282061a8353049182156125785791908261253c565b612541565b91600101916124ff565b91906064600291049101916124f4565b6004919392049101915f6124e9565b6008919392049101915f6124dc565b6010919392049101915f6124cd565b6020919392049101915f6124bb565b60409350810491505f6124a2565b80511561270d578051916002808401809411611f7b57600393849004600281901b91906001600160fe1b03811603611f7b5793604051937f4142434445464748494a4b4c4d4e4f505152535455565758595a616263646566601f52603f917f6768696a6b6c6d6e6f707172737475767778797a303132333435363738392b2f603f5260208601928291835184019160208301998a51945f8c525b8481106126d1575050505050906003916020959697525106806001146126bc576002146126af575b50808452830101604052565b603d905f1901535f6126a3565b50603d90815f1982015360011901535f6126a3565b836004919c95989c019b838d51818160121c165183538181600c1c16516001840153818160061c1651858401531651858201530196939a61267b565b5060405161271a81611b80565b5f81529056fea2646970667358221220b2d2e1c4541b81c214800991ba0e8ba058628bc8b37e24a9aaa9408446acd70264736f6c63430008180033",
  "linkReferences": {},
  "deployedLinkReferences": {}
}