{
  "_format": "hh-sol-artifact-1",
  "contractName": "Marketplace",
  "sourceName": "contracts/Marketplace.sol",
  "abi": [
    {
      "inputs": [
        {
          "internalType": "address",
          "name": "_itemNFT",
          "type": "address"
        },
        {
          "internalType": "address",
          "name": "_goldToken",
          "type": "address"
        }
      ],
      "stateMutability": "nonpayable",
      "type": "constructor"
    },
    {
      "inputs": [
        {
          "internalType": "address",
          "name": "owner",
          "type": "address"
        }
      ],
      "name": "OwnableInvalidOwner",
      "type": "error"
    },
    {
      "inputs": [
        {
          "internalType": "address",
          "name": "account",
          "type": "address"
        }
      ],
      "name": "OwnableUnauthorizedAccount",
      "type": "error"
    },
    {
      "anonymous": false,
      "inputs": [
        {
          "indexed": true,
          "internalType": "uint256",
          "name": "listingId",
          "type": "uint256"
        },
        {
          "indexed": true,
          "internalType": "uint256",
          "name": "itemId",
          "type": "uint256"
        },
        {
          "indexed": true,
          "internalType": "address",
          "name": "seller",
          "type": "address"
        },
        {
          "indexed": false,
          "internalType": "uint256",
          "name": "price",
          "type": "uint256"
        }
      ],
      "name": "ItemListed",
      "type": "event"
    },
    {
      "anonymous": false,
      "inputs": [
        {
          "indexed": true,
          "internalType": "uint256",
          "name": "listingId",
          "type": "uint256"
        },
        {
          "indexed": true,
          "internalType": "uint256",
          "name": "itemId",
          "type": "uint256"
        },
        {
          "indexed": false,
          "internalType": "address",
          "name": "seller",
          "type": "address"
        },
        {
          "indexed": false,
          "internalType": "address",
          "name": "buyer",
          "type": "address"
        },
        {
          "indexed": false,
          "internalType": "uint256",
          "name": "price",
          "type": "uint256"
        }
      ],
      "name": "ItemSold",
      "type": "event"
    },
    {
      "anonymous": false,
      "inputs": [
        {
          "indexed": true,
          "internalType": "uint256",
          "name": "listingId",
          "type": "uint256"
        },
        {
          "indexed": true,
          "internalType": "uint256",
          "name": "itemId",
          "type": "uint256"
        },
        {
          "indexed": true,
          "internalType": "address",
          "name": "seller",
          "type": "address"
        }
      ],
      "name": "ListingCancelled",
      "type": "event"
    },
    {
      "anonymous": false,
      "inputs": [
        {
          "indexed": true,
          "internalType": "address",
          "name": "previousOwner",
          "type": "address"
        },
        {
          "indexed": true,
          "internalType": "address",
          "name": "newOwner",
          "type": "address"
        }
      ],
      "name": "OwnershipTransferred",
      "type": "event"
    },
    {
      "inputs": [],
      "name": "FEE_PERCENT",
      "outputs": [
        {
          "internalType": "uint256",
          "name": "",
          "type": "uint256"
        }
      ],
      "stateMutability": "view",
      "type": "function"
    },
    {
      "inputs": [
        {
          "internalType": "uint256",
          "name": "listingId",
          "type": "uint256"
        }
      ],
      "name": "buyItem",
      "outputs": [],
      "stateMutability": "nonpayable",
      "type": "function"
    },
    {
      "inputs": [
        {
          "internalType": "uint256",
          "name": "listingId",
          "type": "uint256"
        }
      ],
      "name": "cancelListing",
      "outputs": [],
      "stateMutability": "nonpayable",
      "type": "function"
    },
    {
      "inputs": [],
      "name": "getActiveListingCount",
      "outputs": [
        {
          "internalType": "uint256",
          "name": "",
          "type": "uint256"
        }
      ],
      "stateMutability": "view",
      "type": "function"
    },
    {
      "inputs": [
        {
          "internalType": "uint256",
          "name": "maxCount",
          "type": "uint256"
        }
      ],
      "name": "getActiveListings",
      "outputs": [
        {
          "internalType": "uint256[]",
          "name": "listingIds",
          "type": "uint256[]"
        },
        {
          "internalType": "uint256[]",
          "name": "itemIds",
          "type": "uint256[]"
        },
        {
          "internalType": "address[]",
          "name": "sellers",
          "type": "address[]"
        },
        {
          "internalType": "uint256[]",
          "name": "prices",
          "type": "uint256[]"
        },
        {
          "internalType": "string[]",
          "name": "itemNames",
          "type": "string[]"
        },
        {
          "internalType": "uint8[]",
          "name": "itemTypes",
          "type": "uint8[]"
        },
        {
          "internalType": "uint16[]",
          "name": "itemPowers",
          "type": "uint16[]"
        },
        {
          "internalType": "uint8[]",
          "name": "itemRarities",
          "type": "uint8[]"
        }
      ],
      "stateMutability": "view",
      "type": "function"
    },
    {
      "inputs": [
        {
          "internalType": "uint256",
          "name": "listingId",
          "type": "uint256"
        }
      ],
      "name": "getListing",
      "outputs": [
        {
          "components": [
            {
              "internalType": "uint256",
              "name": "itemId",
              "type": "uint256"
            },
            {
              "internalType": "address",
              "name": "seller",
              "type": "address"
            },
            {
              "internalType": "uint256",
              "name": "price",
              "type": "uint256"
            },
            {
              "internalType": "uint64",
              "name": "listedAt",
              "type": "uint64"
            },
            {
              "internalType": "bool",
              "name": "active",
              "type": "bool"
            }
          ],
          "internalType": "struct Marketplace.Listing",
          "name": "",
          "type": "tuple"
        }
      ],
      "stateMutability": "view",
      "type": "function"
    },
    {
      "inputs": [],
      "name": "goldToken",
      "outputs": [
        {
          "internalType": "contract GoldToken",
          "name": "",
          "type": "address"
        }
      ],
      "stateMutability": "view",
      "type": "function"
    },
    {
      "inputs": [],
      "name": "itemNFT",
      "outputs": [
        {
          "internalType": "contract ItemNFT",
          "name": "",
          "type": "address"
        }
      ],
      "stateMutability": "view",
      "type": "function"
    },
    {
      "inputs": [
        {
          "internalType": "uint256",
          "name": "",
          "type": "uint256"
        }
      ],
      "name": "itemToListing",
      "outputs": [
        {
          "internalType": "uint256",
          "name": "",
          "type": "uint256"
        }
      ],
      "stateMutability": "view",
      "type": "function"
    },
    {
      "inputs": [
        {
          "internalType": "uint256",
          "name": "itemId",
          "type": "uint256"
        },
        {
          "internalType": "uint256",
          "name": "price",
          "type": "uint256"
        }
      ],
      "name": "listItem",
      "outputs": [],
      "stateMutability": "nonpayable",
      "type": "function"
    },
    {
      "inputs": [
        {
          "internalType": "uint256",
          "name": "",
          "type": "uint256"
        }
      ],
      "name": "listings",
      "outputs": [
        {
          "internalType": "uint256",
          "name": "itemId",
          "type": "uint256"
        },
        {
          "internalType": "address",
          "name": "seller",
          "type": "address"
        },
        {
          "internalType": "uint256",
          "name": "price",
          "type": "uint256"
        },
        {
          "internalType": "uint64",
          "name": "listedAt",
          "type": "uint64"
        },
        {
          "internalType": "bool",
          "name": "active",
          "type": "bool"
        }
      ],
      "stateMutability": "view",
      "type": "function"
    },
    {
      "inputs": [],
      "name": "nextListingId",
      "outputs": [
        {
          "internalType": "uint256",
          "name": "",
          "type": "uint256"
        }
      ],
      "stateMutability": "view",
      "type": "function"
    },
    {
      "inputs": [],
      "name": "owner",
      "outputs": [
        {
          "internalType": "address",
          "name": "",
          "type": "address"
        }
      ],
      "stateMutability": "view",
      "type": "function"
    },
    {
      "inputs": [],
      "name": "renounceOwnership",
      "outputs": [],
      "stateMutability": "nonpayable",
      "type": "function"
    },
    {
      "inputs": [
        {
          "internalType": "address",
          "name": "newOwner",
          "type": "address"
        }
      ],
      "name": "transferOwnership",
      "outputs": [],
      "stateMutability": "nonpayable",
      "type": "function"
    }
  ],
  "bytecode": "0x",
  "deployedBytecode": "0x6080806040526004361015610012575f80fd5b5f905f3560e01c908163107a274a1461106c57508063305a67a814610f2b578063416e332f14610f0157806357d1f91014610ed8578063715018a614610e7f5780637742084414610e15578063883efa6714610b5b5780638da5cb5b14610b3457806394002b5714610b0b578063aaccf1ec14610aed578063de74e57b14610a82578063e6987501146104b1578063e7fb74c714610174578063eaf98d23146101585763f2fde38b146100c3575f80fd5b34610155576020366003190112610155576004356001600160a01b0381811691829003610151576100f26112fc565b8115610138575f54826bffffffffffffffffffffffff60a01b8216175f55167f8be0079c531659141344cd1fd0a4f28419497f9722a3daafe3b4186f6b6457e05f80a380f35b604051631e4fbdf760e01b815260048101849052602490fd5b8280fd5b80fd5b5034610155578060031936011261015557602060405160028152f35b5034610155576020806003193601126104ad57600435808352600482526040832060038101928354906101ac60ff8360401c16611209565b600183019460018060a01b039283875416331461046a57908291849360249560025416604051968780926370a0823160e01b82523360048301525afa94851561045f57899561042c575b5060028601948554116103e75768ff000000000000000019169055835487526005905260408620869055600254825487918316803b156101515760405163079cc67960e41b8152336004820152602481019290925282908290604490829084905af18015610388576103d3575b505081548060011b818104600214821517156103bf576064900481039081116103ab5786908260025416908388541690823b156103a7576040516340c10f1960e01b81526001600160a01b0392909216600483015260248201529082908290604490829084905af1801561038857610393575b508160015416845490803b15610151576040516323b872dd60e01b8152306004820152336024820152604481019290925282908290606490829084905af1801561038857610370575b5050915493549054604080516001600160a01b0393909416929092168352336020840152908201527f636c891e1c595c5879015e9f0767c0138ec002c115fa5425d3a585252e13a1ed90606090a380f35b610379906111d5565b61038457855f61031f565b8580fd5b6040513d84823e3d90fd5b61039c906111d5565b61038457855f6102d6565b8380fd5b634e487b7160e01b87526011600452602487fd5b634e487b7160e01b88526011600452602488fd5b6103dc906111d5565b61038457855f610263565b60405162461bcd60e51b815260048101849052601e60248201527f4d61726b6574706c6163653a20696e73756666696369656e7420676f6c6400006044820152606490fd5b9094508281813d8311610458575b61044481836111e8565b810103126104545751935f6101f6565b8880fd5b503d61043a565b6040513d8b823e3d90fd5b6064836040519062461bcd60e51b825280600483015260248201527f4d61726b6574706c6163653a2063616e6e6f7420627579206f776e206974656d6044820152fd5b5080fd5b503461015557602036600319011261015557600435816001600354905b8181111580610a79575b1561051b57808352600460205260ff600360408520015460401c16610506575b61050190611255565b6104ce565b9361051361050191611255565b9490506104f8565b509150610527836112a2565b610530846112a2565b9161053a8561128b565b9061054860405192836111e8565b8582526105548661128b565b601f1901366020840137610567866112a2565b6105708761128b565b61057d60405191826111e8565b8781526105898861128b565b601f1901835b818110610a685750506105a1886112a2565b916105ab8961128b565b946105b960405196876111e8565b8986526105c58a61128b565b601f19013660208801376105d88a6112a2565b97859a60015b8b81111580610a5f575b1561090957808852600460205260408820600381015460ff8160401c1661061a575b505061061590611255565b6105de565b60ff90929e9260026040519361062f856111ba565b8054855260018101546001600160a01b0316602086015201546040808501919091526001600160401b03821660608501521c16151560808201528d610674838d6112d4565b52805161068183866112d4565b5260208101516001600160a01b031661069a83876112d4565b5260408101516106aa83886112d4565b528860018060a01b03600154169151602460405180948193633129e77360e01b835260048301525afa899181610779575b506106f6575b506106ee61061591611255565b9c905f61060a565b805161070283896112d4565b5261070d82886112d4565b506020810151600381101561076557918c61075d8260ff60608f966106ee978f998461073c876106159d6112d4565b911690526107538561ffff604085015116926112d4565b52015116926112d4565b5291506106e1565b634e487b7160e01b8a52602160045260248afd5b9091503d90818b823e61078c82826111e8565b6020818381010312610905578051906001600160401b0382116109015760c0828201848301031261090157604051928360c08101106001600160401b0360c0860111176108ed5760c08401604052828201516001600160401b0381116108e957818301601f82868601010112156108e957808484010151906001600160401b0382116108d5576040519261082a601f8401601f1916602001856111e8565b828452840160208383888801010101116108d15790610853916020808501918787010101611163565b83526020828201015160038110156108cd5760208401526040828201015161ffff811681036108cd5760408401526060828201015160ff811681036108cd576060840152608082820101516001600160401b03811681036108cd57608084015260a0916108c291018201611277565b90820152905f6106db565b8c80fd5b8e80fd5b634e487b7160e01b8f52604160045260248ffd5b8d80fd5b634e487b7160e01b5f52604160045260245ffd5b8b80fd5b8a80fd5b888a8c8a8a8a898b6109388b61092a60405199610100808c528b0190611130565b9089820360208b0152611130565b878103604089015260208084519283815201930190865b818110610a40575050509061096b918782036060890152611130565b918583036080870152815180845260208401936020808360051b83010194019486915b8383106109fa57505050506109ab925085820360a0870152611184565b83810360c0850152602080865192838152019501915b8181106109e05784806109dc888783820360e0850152611184565b0390f35b825161ffff168652602095860195909201916001016109c1565b909192939460208080600193601f198682030187528a51610a2681518092818552858086019101611163565b601f8019910116010198019301930191959493929061098e565b82516001600160a01b031685526020948501949092019160010161094f565b50818d106105e8565b80606060208093860101520161058f565b508385106104d8565b503461015557602036600319011261015557604060a091600435815260046020522060ff815491600180851b03600182015416906003600282015491015491604051948552602085015260408401526001600160401b038116606084015260401c1615156080820152f35b50346101555780600319360112610155576020600354604051908152f35b50346101555780600319360112610155576002546040516001600160a01b039091168152602090f35b5034610155578060031936011261015557546040516001600160a01b039091168152602090f35b5034610155576040366003190112610155576004356024359060018060a01b038060015416604051906331a9108f60e11b82528360048301526020918281602481855afa908115610e0a578791610dd1575b508333911603610d8c578415610d4757838652600582526040862054610d04578086913b156104ad576040516323b872dd60e01b8152336004820152306024820152604481018690529082908290606490829084905af1801561038857610cec575b50507fccc2c46ea1a1fc6b4e5d39ac3fed1a88c04185f5221091df5b44b249f982851b90610c3e600354611255565b9283600355866001600160401b036003604051610c5a816111ba565b88815285810133815260408201908b82526060830196854216885260406080850197600189528c815260048b522093518455600184019151166bffffffffffffffffffffffff60a01b8254161790555160028201550192511660ff60401b83549251151560401b169168ffffffffffffffffff191617179055838652600581528260408720556040519485523394a480f35b610cf5906111d5565b610d0057845f610c0f565b8480fd5b6064826040519062461bcd60e51b825280600483015260248201527f4d61726b6574706c6163653a206974656d20616c7265616479206c69737465646044820152fd5b60405162461bcd60e51b815260048101839052601e60248201527f4d61726b6574706c6163653a207072696365206d757374206265203e203000006044820152606490fd5b60405162461bcd60e51b815260048101839052601b60248201527f4d61726b6574706c6163653a206e6f74206974656d206f776e657200000000006044820152606490fd5b90508281813d8311610e03575b610de881836111e8565b81010312610dff57610df990611277565b5f610bad565b8680fd5b503d610dde565b6040513d89823e3d90fd5b503461015557806003193601126101555760038054908260015b83811115610e4257602085604051908152f35b808252600460205260ff8360408420015460401c16610e6a575b610e6590611255565b610e2f565b93610e77610e6591611255565b949050610e5c565b5034610155578060031936011261015557610e986112fc565b5f80546001600160a01b0319811682556001600160a01b03167f8be0079c531659141344cd1fd0a4f28419497f9722a3daafe3b4186f6b6457e08280a380f35b50346101555780600319360112610155576001546040516001600160a01b039091168152602090f35b50346101555760203660031901126101555760406020916004358152600583522054604051908152f35b503461102357602036600319011261102357600435805f52600460205260405f209060038201805490610f6360ff8360401c16611209565b60018401546001600160a01b039290831633036110275760ff60401b1916905582545f5260056020525f604081205560015416825490803b15611023576040516323b872dd60e01b815230600482015233602482015260448101929092525f908290606490829084905af1801561101857611005575b50339154907f5f0be1e06429123bb18a91b02cae2672c631c3d0eef488ee77e1e9870a6e2cb48480a480f35b6110109193506111d5565b5f915f610fd9565b6040513d5f823e3d90fd5b5f80fd5b60405162461bcd60e51b815260206004820152601760248201527f4d61726b6574706c6163653a206e6f742073656c6c65720000000000000000006044820152606490fd5b346110235760203660031901126110235760808161108a5f936111ba565b82815282602082015282604082015282606082015201526004355f52600460205260a060405f206040516110bd816111ba565b815491828252600180851b03918260018301541691602082019283526003600282015491604084019283520154936001600160401b039360ff608060608601958789168752019660401c161515865260405196875251166020860152516040850152511660608301525115156080820152f35b9081518082526020808093019301915f5b82811061114f575050505090565b835185529381019392810192600101611141565b5f5b8381106111745750505f910152565b8181015183820152602001611165565b9081518082526020808093019301915f5b8281106111a3575050505090565b835160ff1685529381019392810192600101611195565b60a081019081106001600160401b038211176108ed57604052565b6001600160401b0381116108ed57604052565b90601f801991011681019081106001600160401b038211176108ed57604052565b1561121057565b60405162461bcd60e51b815260206004820152601f60248201527f4d61726b6574706c6163653a206c697374696e67206e6f7420616374697665006044820152606490fd5b5f1981146112635760010190565b634e487b7160e01b5f52601160045260245ffd5b51906001600160a01b038216820361102357565b6001600160401b0381116108ed5760051b60200190565b906112ac8261128b565b6112b960405191826111e8565b82815280926112ca601f199161128b565b0190602036910137565b80518210156112e85760209160051b010190565b634e487b7160e01b5f52603260045260245ffd5b5f546001600160a01b0316330361130f57565b60405163118cdaa760e01b8152336004820152602490fdfea2646970667358221220119ed19342251850f069f8cd1779daec4d76875b14fbda26650fcaa9cae2d22d64736f6c63430008180033",
  "linkReferences": {},
  "deployedLinkReferences": {}
}